{
  "address": "0x8291825B85CCBf3ED127FA8DA90A54377845b6D5",
  "abi": [
    {
      "inputs": [
        {
          "internalType": "string",
          "name": "_name",
          "type": "string"
        },
        {
          "internalType": "string",
          "name": "_symbol",
          "type": "string"
        },
        {
          "internalType": "uint256",
          "name": "_price",
          "type": "uint256"
        },
        {
          "internalType": "uint256",
          "name": "_maxSupply",
          "type": "uint256"
        },
        {
          "internalType": "bytes32",
          "name": "_merkleRoot",
          "type": "bytes32"
        },
        {
          "internalType": "uint256",
          "name": "_allowListMintStartBlock",
          "type": "uint256"
        },
        {
          "internalType": "uint256",
          "name": "_publicMintOffsetBlocks",
          "type": "uint256"
        },
        {
          "internalType": "address",
          "name": "_renderer",
          "type": "address"
        }
      ],
      "stateMutability": "nonpayable",
      "type": "constructor"
    },
    {
      "inputs": [],
      "name": "ApprovalCallerNotOwnerNorApproved",
      "type": "error"
    },
    {
      "inputs": [],
      "name": "ApprovalQueryForNonexistentToken",
      "type": "error"
    },
    {
      "inputs": [],
      "name": "BalanceQueryForZeroAddress",
      "type": "error"
    },
    {
      "inputs": [],
      "name": "MintERC2309QuantityExceedsLimit",
      "type": "error"
    },
    {
      "inputs": [],
      "name": "MintToZeroAddress",
      "type": "error"
    },
    {
      "inputs": [],
      "name": "MintZeroQuantity",
      "type": "error"
    },
    {
      "inputs": [],
      "name": "OwnerQueryForNonexistentToken",
      "type": "error"
    },
    {
      "inputs": [],
      "name": "OwnershipNotInitializedForExtraData",
      "type": "error"
    },
    {
      "inputs": [],
      "name": "TransferCallerNotOwnerNorApproved",
      "type": "error"
    },
    {
      "inputs": [],
      "name": "TransferFromIncorrectOwner",
      "type": "error"
    },
    {
      "inputs": [],
      "name": "TransferToNonERC721ReceiverImplementer",
      "type": "error"
    },
    {
      "inputs": [],
      "name": "TransferToZeroAddress",
      "type": "error"
    },
    {
      "inputs": [],
      "name": "URIQueryForNonexistentToken",
      "type": "error"
    },
    {
      "anonymous": false,
      "inputs": [
        {
          "indexed": true,
          "internalType": "address",
          "name": "owner",
          "type": "address"
        },
        {
          "indexed": true,
          "internalType": "address",
          "name": "approved",
          "type": "address"
        },
        {
          "indexed": true,
          "internalType": "uint256",
          "name": "tokenId",
          "type": "uint256"
        }
      ],
      "name": "Approval",
      "type": "event"
    },
    {
      "anonymous": false,
      "inputs": [
        {
          "indexed": true,
          "internalType": "address",
          "name": "owner",
          "type": "address"
        },
        {
          "indexed": true,
          "internalType": "address",
          "name": "operator",
          "type": "address"
        },
        {
          "indexed": false,
          "internalType": "bool",
          "name": "approved",
          "type": "bool"
        }
      ],
      "name": "ApprovalForAll",
      "type": "event"
    },
    {
      "anonymous": false,
      "inputs": [
        {
          "indexed": true,
          "internalType": "uint256",
          "name": "fromTokenId",
          "type": "uint256"
        },
        {
          "indexed": false,
          "internalType": "uint256",
          "name": "toTokenId",
          "type": "uint256"
        },
        {
          "indexed": true,
          "internalType": "address",
          "name": "from",
          "type": "address"
        },
        {
          "indexed": true,
          "internalType": "address",
          "name": "to",
          "type": "address"
        }
      ],
      "name": "ConsecutiveTransfer",
      "type": "event"
    },
    {
      "anonymous": false,
      "inputs": [
        {
          "indexed": true,
          "internalType": "address",
          "name": "previousOwner",
          "type": "address"
        },
        {
          "indexed": true,
          "internalType": "address",
          "name": "newOwner",
          "type": "address"
        }
      ],
      "name": "OwnershipTransferred",
      "type": "event"
    },
    {
      "anonymous": false,
      "inputs": [
        {
          "indexed": true,
          "internalType": "address",
          "name": "from",
          "type": "address"
        },
        {
          "indexed": true,
          "internalType": "address",
          "name": "to",
          "type": "address"
        },
        {
          "indexed": true,
          "internalType": "uint256",
          "name": "tokenId",
          "type": "uint256"
        }
      ],
      "name": "Transfer",
      "type": "event"
    },
    {
      "inputs": [
        {
          "internalType": "address[]",
          "name": "_recipients",
          "type": "address[]"
        },
        {
          "internalType": "uint256",
          "name": "_quantity",
          "type": "uint256"
        }
      ],
      "name": "airdrop",
      "outputs": [],
      "stateMutability": "payable",
      "type": "function"
    },
    {
      "inputs": [],
      "name": "allowListMintStartBlock",
      "outputs": [
        {
          "internalType": "uint256",
          "name": "",
          "type": "uint256"
        }
      ],
      "stateMutability": "view",
      "type": "function"
    },
    {
      "inputs": [
        {
          "internalType": "address",
          "name": "_wallet",
          "type": "address"
        },
        {
          "internalType": "bytes32[]",
          "name": "_proof",
          "type": "bytes32[]"
        }
      ],
      "name": "allowListed",
      "outputs": [
        {
          "internalType": "bool",
          "name": "",
          "type": "bool"
        }
      ],
      "stateMutability": "view",
      "type": "function"
    },
    {
      "inputs": [
        {
          "internalType": "address",
          "name": "to",
          "type": "address"
        },
        {
          "internalType": "uint256",
          "name": "tokenId",
          "type": "uint256"
        }
      ],
      "name": "approve",
      "outputs": [],
      "stateMutability": "payable",
      "type": "function"
    },
    {
      "inputs": [
        {
          "internalType": "address",
          "name": "owner",
          "type": "address"
        }
      ],
      "name": "balanceOf",
      "outputs": [
        {
          "internalType": "uint256",
          "name": "",
          "type": "uint256"
        }
      ],
      "stateMutability": "view",
      "type": "function"
    },
    {
      "inputs": [
        {
          "internalType": "uint256",
          "name": "tokenId",
          "type": "uint256"
        }
      ],
      "name": "getApproved",
      "outputs": [
        {
          "internalType": "address",
          "name": "",
          "type": "address"
        }
      ],
      "stateMutability": "view",
      "type": "function"
    },
    {
      "inputs": [],
      "name": "hasAllowlistSaleStarted",
      "outputs": [
        {
          "internalType": "bool",
          "name": "",
          "type": "bool"
        }
      ],
      "stateMutability": "view",
      "type": "function"
    },
    {
      "inputs": [],
      "name": "hasPublicSaleStarted",
      "outputs": [
        {
          "internalType": "bool",
          "name": "",
          "type": "bool"
        }
      ],
      "stateMutability": "view",
      "type": "function"
    },
    {
      "inputs": [
        {
          "internalType": "address",
          "name": "owner",
          "type": "address"
        },
        {
          "internalType": "address",
          "name": "operator",
          "type": "address"
        }
      ],
      "name": "isApprovedForAll",
      "outputs": [
        {
          "internalType": "bool",
          "name": "",
          "type": "bool"
        }
      ],
      "stateMutability": "view",
      "type": "function"
    },
    {
      "inputs": [],
      "name": "maxMintPerWallet",
      "outputs": [
        {
          "internalType": "uint256",
          "name": "",
          "type": "uint256"
        }
      ],
      "stateMutability": "view",
      "type": "function"
    },
    {
      "inputs": [],
      "name": "maxSupply",
      "outputs": [
        {
          "internalType": "uint256",
          "name": "",
          "type": "uint256"
        }
      ],
      "stateMutability": "view",
      "type": "function"
    },
    {
      "inputs": [],
      "name": "merkleRoot",
      "outputs": [
        {
          "internalType": "bytes32",
          "name": "",
          "type": "bytes32"
        }
      ],
      "stateMutability": "view",
      "type": "function"
    },
    {
      "inputs": [
        {
          "internalType": "uint256",
          "name": "_quantity",
          "type": "uint256"
        },
        {
          "internalType": "bytes32[]",
          "name": "_proof",
          "type": "bytes32[]"
        }
      ],
      "name": "mintAllowList",
      "outputs": [],
      "stateMutability": "payable",
      "type": "function"
    },
    {
      "inputs": [
        {
          "internalType": "uint256",
          "name": "_quantity",
          "type": "uint256"
        }
      ],
      "name": "mintPublic",
      "outputs": [],
      "stateMutability": "payable",
      "type": "function"
    },
    {
      "inputs": [
        {
          "internalType": "address",
          "name": "_wallet",
          "type": "address"
        }
      ],
      "name": "mintQuotaRemaining",
      "outputs": [
        {
          "internalType": "uint256",
          "name": "",
          "type": "uint256"
        }
      ],
      "stateMutability": "view",
      "type": "function"
    },
    {
      "inputs": [],
      "name": "name",
      "outputs": [
        {
          "internalType": "string",
          "name": "",
          "type": "string"
        }
      ],
      "stateMutability": "view",
      "type": "function"
    },
    {
      "inputs": [],
      "name": "owner",
      "outputs": [
        {
          "internalType": "address",
          "name": "",
          "type": "address"
        }
      ],
      "stateMutability": "view",
      "type": "function"
    },
    {
      "inputs": [
        {
          "internalType": "uint256",
          "name": "tokenId",
          "type": "uint256"
        }
      ],
      "name": "ownerOf",
      "outputs": [
        {
          "internalType": "address",
          "name": "",
          "type": "address"
        }
      ],
      "stateMutability": "view",
      "type": "function"
    },
    {
      "inputs": [],
      "name": "price",
      "outputs": [
        {
          "internalType": "uint256",
          "name": "",
          "type": "uint256"
        }
      ],
      "stateMutability": "view",
      "type": "function"
    },
    {
      "inputs": [],
      "name": "publicMintOffsetBlocks",
      "outputs": [
        {
          "internalType": "uint256",
          "name": "",
          "type": "uint256"
        }
      ],
      "stateMutability": "view",
      "type": "function"
    },
    {
      "inputs": [],
      "name": "renderer",
      "outputs": [
        {
          "internalType": "contract Renderer",
          "name": "",
          "type": "address"
        }
      ],
      "stateMutability": "view",
      "type": "function"
    },
    {
      "inputs": [],
      "name": "renounceOwnership",
      "outputs": [],
      "stateMutability": "nonpayable",
      "type": "function"
    },
    {
      "inputs": [
        {
          "internalType": "address",
          "name": "from",
          "type": "address"
        },
        {
          "internalType": "address",
          "name": "to",
          "type": "address"
        },
        {
          "internalType": "uint256",
          "name": "tokenId",
          "type": "uint256"
        }
      ],
      "name": "safeTransferFrom",
      "outputs": [],
      "stateMutability": "payable",
      "type": "function"
    },
    {
      "inputs": [
        {
          "internalType": "address",
          "name": "from",
          "type": "address"
        },
        {
          "internalType": "address",
          "name": "to",
          "type": "address"
        },
        {
          "internalType": "uint256",
          "name": "tokenId",
          "type": "uint256"
        },
        {
          "internalType": "bytes",
          "name": "_data",
          "type": "bytes"
        }
      ],
      "name": "safeTransferFrom",
      "outputs": [],
      "stateMutability": "payable",
      "type": "function"
    },
    {
      "inputs": [
        {
          "internalType": "uint256",
          "name": "_allowListMintStartBlock",
          "type": "uint256"
        }
      ],
      "name": "setAllowListMintStartBlock",
      "outputs": [],
      "stateMutability": "nonpayable",
      "type": "function"
    },
    {
      "inputs": [
        {
          "internalType": "address",
          "name": "operator",
          "type": "address"
        },
        {
          "internalType": "bool",
          "name": "approved",
          "type": "bool"
        }
      ],
      "name": "setApprovalForAll",
      "outputs": [],
      "stateMutability": "nonpayable",
      "type": "function"
    },
    {
      "inputs": [
        {
          "internalType": "uint256",
          "name": "_price",
          "type": "uint256"
        }
      ],
      "name": "setPrice",
      "outputs": [],
      "stateMutability": "nonpayable",
      "type": "function"
    },
    {
      "inputs": [
        {
          "internalType": "uint256",
          "name": "_publicMintOffsetBlocks",
          "type": "uint256"
        }
      ],
      "name": "setPublicMintOffsetBlocks",
      "outputs": [],
      "stateMutability": "nonpayable",
      "type": "function"
    },
    {
      "inputs": [
        {
          "internalType": "bytes4",
          "name": "interfaceId",
          "type": "bytes4"
        }
      ],
      "name": "supportsInterface",
      "outputs": [
        {
          "internalType": "bool",
          "name": "",
          "type": "bool"
        }
      ],
      "stateMutability": "view",
      "type": "function"
    },
    {
      "inputs": [],
      "name": "symbol",
      "outputs": [
        {
          "internalType": "string",
          "name": "",
          "type": "string"
        }
      ],
      "stateMutability": "view",
      "type": "function"
    },
    {
      "inputs": [
        {
          "internalType": "uint256",
          "name": "_tokenId",
          "type": "uint256"
        }
      ],
      "name": "tokenURI",
      "outputs": [
        {
          "internalType": "string",
          "name": "",
          "type": "string"
        }
      ],
      "stateMutability": "view",
      "type": "function"
    },
    {
      "inputs": [],
      "name": "totalSupply",
      "outputs": [
        {
          "internalType": "uint256",
          "name": "",
          "type": "uint256"
        }
      ],
      "stateMutability": "view",
      "type": "function"
    },
    {
      "inputs": [
        {
          "internalType": "address",
          "name": "from",
          "type": "address"
        },
        {
          "internalType": "address",
          "name": "to",
          "type": "address"
        },
        {
          "internalType": "uint256",
          "name": "tokenId",
          "type": "uint256"
        }
      ],
      "name": "transferFrom",
      "outputs": [],
      "stateMutability": "payable",
      "type": "function"
    },
    {
      "inputs": [
        {
          "internalType": "address",
          "name": "newOwner",
          "type": "address"
        }
      ],
      "name": "transferOwnership",
      "outputs": [],
      "stateMutability": "nonpayable",
      "type": "function"
    },
    {
      "inputs": [],
      "name": "withdraw",
      "outputs": [],
      "stateMutability": "nonpayable",
      "type": "function"
    }
  ],
  "transactionHash": "0xdc5c016d59416b92cbaf0e168c53ced709b616046e5f976038dac85e169ccb5b",
  "args": [
    "Test",
    "TEST",
    "10000000000000000",
    1000,
    "0x1a803dbdfb3d0c0c775bc03f7e858f42eac3ccf7aae62a18b498e8dcced2b224",
    8304455,
    4,
    "0x52F6843a9Db9b2B05702700c23fD21a6260A7f0E"
  ],
  "numDeployments": 10,
  "solcInputHash": "dc132e3b7aeb5ef3cdb4a975ddb8788c",
  "bytecode": "0x60806040523480156200001157600080fd5b50604051620051393803806200513983398181016040528101906200003791906200044c565b878781600290816200004a919062000794565b5080600390816200005c919062000794565b506200006d6200010760201b60201c565b600081905550505062000095620000896200011060201b60201c565b6200011860201b60201c565b8560098190555084600a8190555083600c8190555082600d8190555081600e8190555080600b60006101000a81548173ffffffffffffffffffffffffffffffffffffffff021916908373ffffffffffffffffffffffffffffffffffffffff16021790555050505050505050506200087b565b60006001905090565b600033905090565b6000600860009054906101000a900473ffffffffffffffffffffffffffffffffffffffff16905081600860006101000a81548173ffffffffffffffffffffffffffffffffffffffff021916908373ffffffffffffffffffffffffffffffffffffffff1602179055508173ffffffffffffffffffffffffffffffffffffffff168173ffffffffffffffffffffffffffffffffffffffff167f8be0079c531659141344cd1fd0a4f28419497f9722a3daafe3b4186f6b6457e060405160405180910390a35050565b6000604051905090565b600080fd5b600080fd5b600080fd5b600080fd5b6000601f19601f8301169050919050565b7f4e487b7100000000000000000000000000000000000000000000000000000000600052604160045260246000fd5b6200024782620001fc565b810181811067ffffffffffffffff821117156200026957620002686200020d565b5b80604052505050565b60006200027e620001de565b90506200028c82826200023c565b919050565b600067ffffffffffffffff821115620002af57620002ae6200020d565b5b620002ba82620001fc565b9050602081019050919050565b60005b83811015620002e7578082015181840152602081019050620002ca565b60008484015250505050565b60006200030a620003048462000291565b62000272565b905082815260208101848484011115620003295762000328620001f7565b5b62000336848285620002c7565b509392505050565b600082601f830112620003565762000355620001f2565b5b815162000368848260208601620002f3565b91505092915050565b6000819050919050565b620003868162000371565b81146200039257600080fd5b50565b600081519050620003a6816200037b565b92915050565b6000819050919050565b620003c181620003ac565b8114620003cd57600080fd5b50565b600081519050620003e181620003b6565b92915050565b600073ffffffffffffffffffffffffffffffffffffffff82169050919050565b60006200041482620003e7565b9050919050565b620004268162000407565b81146200043257600080fd5b50565b60008151905062000446816200041b565b92915050565b600080600080600080600080610100898b03121562000470576200046f620001e8565b5b600089015167ffffffffffffffff811115620004915762000490620001ed565b5b6200049f8b828c016200033e565b985050602089015167ffffffffffffffff811115620004c357620004c2620001ed565b5b620004d18b828c016200033e565b9750506040620004e48b828c0162000395565b9650506060620004f78b828c0162000395565b95505060806200050a8b828c01620003d0565b94505060a06200051d8b828c0162000395565b93505060c0620005308b828c0162000395565b92505060e0620005438b828c0162000435565b9150509295985092959890939650565b600081519050919050565b7f4e487b7100000000000000000000000000000000000000000000000000000000600052602260045260246000fd5b60006002820490506001821680620005a657607f821691505b602082108103620005bc57620005bb6200055e565b5b50919050565b60008190508160005260206000209050919050565b60006020601f8301049050919050565b600082821b905092915050565b600060088302620006267fffffffffffffffffffffffffffffffffffffffffffffffffffffffffffffffff82620005e7565b620006328683620005e7565b95508019841693508086168417925050509392505050565b6000819050919050565b6000620006756200066f620006698462000371565b6200064a565b62000371565b9050919050565b6000819050919050565b620006918362000654565b620006a9620006a0826200067c565b848454620005f4565b825550505050565b600090565b620006c0620006b1565b620006cd81848462000686565b505050565b5b81811015620006f557620006e9600082620006b6565b600181019050620006d3565b5050565b601f82111562000744576200070e81620005c2565b6200071984620005d7565b8101602085101562000729578190505b620007416200073885620005d7565b830182620006d2565b50505b505050565b600082821c905092915050565b6000620007696000198460080262000749565b1980831691505092915050565b600062000784838362000756565b9150826002028217905092915050565b6200079f8262000553565b67ffffffffffffffff811115620007bb57620007ba6200020d565b5b620007c782546200058d565b620007d4828285620006f9565b600060209050601f8311600181146200080c5760008415620007f7578287015190505b62000803858262000776565b86555062000873565b601f1984166200081c86620005c2565b60005b8281101562000846578489015182556001820191506020850194506020810190506200081f565b8683101562000866578489015162000862601f89168262000756565b8355505b6001600288020188555050505b505050505050565b6148ae806200088b6000396000f3fe6080604052600436106102045760003560e01c80638da5cb5b11610118578063c87b56dd116100a0578063efd0cbf91161006f578063efd0cbf91461072a578063f2fde38b14610746578063f764561d1461076f578063fa05a65714610798578063fdd4b0f0146107b457610204565b8063c87b56dd1461065a578063d0e59d5a14610697578063d5abeb01146106c2578063e985e9c5146106ed57610204565b8063a22cb465116100e7578063a22cb465146105a3578063afc1cad3146105cc578063b228d925146105f7578063b88d4fde14610622578063c204642c1461063e57610204565b80638da5cb5b146104f957806391b7f5ed1461052457806395d89b411461054d578063a035b1fe1461057857610204565b806323b872dd1161019b57806342842e0e1161016a57806342842e0e146104215780636352211e1461043d57806370a082311461047a578063715018a6146104b75780638ada6b0f146104ce57610204565b806323b872dd14610386578063247155ff146103a25780632eb4a7ab146103df5780633ccfd60b1461040a57610204565b80630bf02d87116101d75780630bf02d87146102ca5780630e2a1448146102f5578063170a78cc1461033257806318160ddd1461035b57610204565b806301ffc9a71461020957806306fdde0314610246578063081812fc14610271578063095ea7b3146102ae575b600080fd5b34801561021557600080fd5b50610230600480360381019061022b91906127a8565b6107df565b60405161023d91906127f0565b60405180910390f35b34801561025257600080fd5b5061025b610871565b604051610268919061289b565b60405180910390f35b34801561027d57600080fd5b50610298600480360381019061029391906128f3565b610903565b6040516102a59190612961565b60405180910390f35b6102c860048036038101906102c391906129a8565b610982565b005b3480156102d657600080fd5b506102df610ac6565b6040516102ec91906127f0565b60405180910390f35b34801561030157600080fd5b5061031c600480360381019061031791906129e8565b610ad3565b6040516103299190612a24565b60405180910390f35b34801561033e57600080fd5b50610359600480360381019061035491906128f3565b610af1565b005b34801561036757600080fd5b50610370610b03565b60405161037d9190612a24565b60405180910390f35b6103a0600480360381019061039b9190612a3f565b610b1a565b005b3480156103ae57600080fd5b506103c960048036038101906103c49190612af7565b610e3c565b6040516103d691906127f0565b60405180910390f35b3480156103eb57600080fd5b506103f4610ebb565b6040516104019190612b70565b60405180910390f35b34801561041657600080fd5b5061041f610ec1565b005b61043b60048036038101906104369190612a3f565b610f09565b005b34801561044957600080fd5b50610464600480360381019061045f91906128f3565b610f29565b6040516104719190612961565b60405180910390f35b34801561048657600080fd5b506104a1600480360381019061049c91906129e8565b610f3b565b6040516104ae9190612a24565b60405180910390f35b3480156104c357600080fd5b506104cc610ff3565b005b3480156104da57600080fd5b506104e3611007565b6040516104f09190612bea565b60405180910390f35b34801561050557600080fd5b5061050e61102d565b60405161051b9190612961565b60405180910390f35b34801561053057600080fd5b5061054b600480360381019061054691906128f3565b611057565b005b34801561055957600080fd5b50610562611069565b60405161056f919061289b565b60405180910390f35b34801561058457600080fd5b5061058d6110fb565b60405161059a9190612a24565b60405180910390f35b3480156105af57600080fd5b506105ca60048036038101906105c59190612c31565b611101565b005b3480156105d857600080fd5b506105e161120c565b6040516105ee9190612a24565b60405180910390f35b34801561060357600080fd5b5061060c611212565b6040516106199190612a24565b60405180910390f35b61063c60048036038101906106379190612da1565b611217565b005b61065860048036038101906106539190612ee7565b61128a565b005b34801561066657600080fd5b50610681600480360381019061067c91906128f3565b61133d565b60405161068e919061289b565b60405180910390f35b3480156106a357600080fd5b506106ac61187a565b6040516106b99190612a24565b60405180910390f35b3480156106ce57600080fd5b506106d7611880565b6040516106e49190612a24565b60405180910390f35b3480156106f957600080fd5b50610714600480360381019061070f9190612f43565b611886565b60405161072191906127f0565b60405180910390f35b610744600480360381019061073f91906128f3565b61191a565b005b34801561075257600080fd5b5061076d600480360381019061076891906129e8565b61196d565b005b34801561077b57600080fd5b50610796600480360381019061079191906128f3565b6119f0565b005b6107b260048036038101906107ad9190612f83565b611a02565b005b3480156107c057600080fd5b506107c9611aa1565b6040516107d691906127f0565b60405180910390f35b60006301ffc9a760e01b827bffffffffffffffffffffffffffffffffffffffffffffffffffffffff1916148061083a57506380ac58cd60e01b827bffffffffffffffffffffffffffffffffffffffffffffffffffffffff1916145b8061086a5750635b5e139f60e01b827bffffffffffffffffffffffffffffffffffffffffffffffffffffffff1916145b9050919050565b60606002805461088090613012565b80601f01602080910402602001604051908101604052809291908181526020018280546108ac90613012565b80156108f95780601f106108ce576101008083540402835291602001916108f9565b820191906000526020600020905b8154815290600101906020018083116108dc57829003601f168201915b5050505050905090565b600061090e82611abb565b610944576040517fcf4700e400000000000000000000000000000000000000000000000000000000815260040160405180910390fd5b6006600083815260200190815260200160002060000160009054906101000a900473ffffffffffffffffffffffffffffffffffffffff169050919050565b600061098d82610f29565b90508073ffffffffffffffffffffffffffffffffffffffff166109ae611b1a565b73ffffffffffffffffffffffffffffffffffffffff1614610a11576109da816109d5611b1a565b611886565b610a10576040517fcfb3b94200000000000000000000000000000000000000000000000000000000815260040160405180910390fd5b5b826006600084815260200190815260200160002060000160006101000a81548173ffffffffffffffffffffffffffffffffffffffff021916908373ffffffffffffffffffffffffffffffffffffffff160217905550818373ffffffffffffffffffffffffffffffffffffffff168273ffffffffffffffffffffffffffffffffffffffff167f8c5be1e5ebec7d5bd14f71427d1e84f3dd0314c0f7b2291e5b200ac8c7c3b92560405160405180910390a4505050565b6000600d54431015905090565b6000610ade82611b22565b6014610aea9190613072565b9050919050565b610af9611b79565b80600e8190555050565b6000610b0d611bf7565b6001546000540303905090565b6000610b2582611c00565b90508373ffffffffffffffffffffffffffffffffffffffff168173ffffffffffffffffffffffffffffffffffffffff1614610b8c576040517fa114810000000000000000000000000000000000000000000000000000000000815260040160405180910390fd5b600080610b9884611ccc565b91509150610bae8187610ba9611b1a565b611cf3565b610bfa57610bc386610bbe611b1a565b611886565b610bf9576040517f59c896be00000000000000000000000000000000000000000000000000000000815260040160405180910390fd5b5b600073ffffffffffffffffffffffffffffffffffffffff168573ffffffffffffffffffffffffffffffffffffffff1603610c60576040517fea553b3400000000000000000000000000000000000000000000000000000000815260040160405180910390fd5b610c6d8686866001611d37565b8015610c7857600082555b600560008773ffffffffffffffffffffffffffffffffffffffff1673ffffffffffffffffffffffffffffffffffffffff168152602001908152602001600020600081546001900391905081905550600560008673ffffffffffffffffffffffffffffffffffffffff1673ffffffffffffffffffffffffffffffffffffffff1681526020019081526020016000206000815460010191905081905550610d4685610d22888887611d3d565b7c020000000000000000000000000000000000000000000000000000000017611d65565b600460008681526020019081526020016000208190555060007c0200000000000000000000000000000000000000000000000000000000841603610dcc5760006001850190506000600460008381526020019081526020016000205403610dca576000548114610dc9578360046000838152602001908152602001600020819055505b5b505b838573ffffffffffffffffffffffffffffffffffffffff168773ffffffffffffffffffffffffffffffffffffffff167fddf252ad1be2c89b69c2b068fc378daa952ba7f163c4a11628f55a4df523b3ef60405160405180910390a4610e348686866001611d90565b505050505050565b6000610eb2838380806020026020016040519081016040528093929190818152602001838360200280828437600081840152601f19601f82011690508083019250505050505050600c5486604051602001610e9791906130ee565b60405160208183030381529060405280519060200120611d96565b90509392505050565b600c5481565b610ec9611b79565b3373ffffffffffffffffffffffffffffffffffffffff166108fc479081150290604051600060405180830381858888f19350505050610f0757600080fd5b565b610f2483838360405180602001604052806000815250611217565b505050565b6000610f3482611c00565b9050919050565b60008073ffffffffffffffffffffffffffffffffffffffff168273ffffffffffffffffffffffffffffffffffffffff1603610fa2576040517f8f4eb60400000000000000000000000000000000000000000000000000000000815260040160405180910390fd5b67ffffffffffffffff600560008473ffffffffffffffffffffffffffffffffffffffff1673ffffffffffffffffffffffffffffffffffffffff16815260200190815260200160002054169050919050565b610ffb611b79565b6110056000611dad565b565b600b60009054906101000a900473ffffffffffffffffffffffffffffffffffffffff1681565b6000600860009054906101000a900473ffffffffffffffffffffffffffffffffffffffff16905090565b61105f611b79565b8060098190555050565b60606003805461107890613012565b80601f01602080910402602001604051908101604052809291908181526020018280546110a490613012565b80156110f15780601f106110c6576101008083540402835291602001916110f1565b820191906000526020600020905b8154815290600101906020018083116110d457829003601f168201915b5050505050905090565b60095481565b806007600061110e611b1a565b73ffffffffffffffffffffffffffffffffffffffff1673ffffffffffffffffffffffffffffffffffffffff16815260200190815260200160002060008473ffffffffffffffffffffffffffffffffffffffff1673ffffffffffffffffffffffffffffffffffffffff16815260200190815260200160002060006101000a81548160ff0219169083151502179055508173ffffffffffffffffffffffffffffffffffffffff166111bb611b1a565b73ffffffffffffffffffffffffffffffffffffffff167f17307eab39ab6107e8899845ad3d59bd9653f200f220920489ca2b5937696c318360405161120091906127f0565b60405180910390a35050565b600e5481565b601481565b611222848484610b1a565b60008373ffffffffffffffffffffffffffffffffffffffff163b146112845761124d84848484611e73565b611283576040517fd1a57ed600000000000000000000000000000000000000000000000000000000815260040160405180910390fd5b5b50505050565b611292611b79565b600a548251826112a29190613109565b6112aa610b03565b6112b49190613163565b11156112f5576040517f08c379a00000000000000000000000000000000000000000000000000000000081526004016112ec906131e3565b60405180910390fd5b60005b82518110156113385761132583828151811061131757611316613203565b5b602002602001015183611fc3565b808061133090613232565b9150506112f8565b505050565b606061134882611abb565b61137e576040517fa14c4b5000000000000000000000000000000000000000000000000000000000815260040160405180910390fd5b60006113898361217e565b6040516020016113999190613302565b604051602081830303815290604052905060006040518060600160405280603f815260200161483a603f913990506000600b60009054906101000a900473ffffffffffffffffffffffffffffffffffffffff1673ffffffffffffffffffffffffffffffffffffffff1663d6cf5f55866040518263ffffffff1660e01b81526004016114249190612a24565b61012060405180830381865afa158015611442573d6000803e3d6000fd5b505050506040513d601f19601f820116820180604052508101906114669190613438565b90506032851115816101000190151590811515815250506000600b60009054906101000a900473ffffffffffffffffffffffffffffffffffffffff1673ffffffffffffffffffffffffffffffffffffffff166391b078a4836040518263ffffffff1660e01b81526004016114da919061353b565b600060405180830381865afa1580156114f7573d6000803e3d6000fd5b505050506040513d6000823e3d601f19601f820116820180604052508101906115209190613784565b90506000600b60009054906101000a900473ffffffffffffffffffffffffffffffffffffffff1673ffffffffffffffffffffffffffffffffffffffff16637d11e69c84846040518363ffffffff1660e01b8152600401611581929190613979565b600060405180830381865afa15801561159e573d6000803e3d6000fd5b505050506040513d6000823e3d601f19601f820116820180604052508101906115c79190613a4c565b905060006115d8846020015161217e565b6115e5856060015161217e565b6115f2866040015161217e565b8660c00151611636576040518060400160405280600281526020017f4e6f00000000000000000000000000000000000000000000000000000000000081525061166d565b6040518060400160405280600381526020017f59657300000000000000000000000000000000000000000000000000000000008152505b738C7EA5ce359a9FeB86b7D74Cc1c99D8718A4830f6375f5696d88600001516040518263ffffffff1660e01b81526004016116a89190613aa4565b600060405180830381865af41580156116c5573d6000803e3d6000fd5b505050506040513d6000823e3d601f19601f820116820180604052508101906116ee9190613a4c565b604051602001611702959493929190613d91565b60405160208183030381529060405290508360e00151156117c25780738C7EA5ce359a9FeB86b7D74Cc1c99D8718A4830f6375f5696d85602001516040518263ffffffff1660e01b81526004016117599190613aa4565b600060405180830381865af4158015611776573d6000803e3d6000fd5b505050506040513d6000823e3d601f19601f8201168201806040525081019061179f9190613a4c565b6040516020016117b0929190613edf565b60405160208183030381529060405290505b836101000151156117f057806040516020016117de9190613f8f565b60405160208183030381529060405290505b806040516020016118019190613fd7565b6040516020818303038152906040529050600086868361182086612306565b604051602001611833949392919061419f565b604051602081830303815290604052905061184d81612306565b60405160200161185d9190614260565b604051602081830303815290604052975050505050505050919050565b600d5481565b600a5481565b6000600760008473ffffffffffffffffffffffffffffffffffffffff1673ffffffffffffffffffffffffffffffffffffffff16815260200190815260200160002060008373ffffffffffffffffffffffffffffffffffffffff1673ffffffffffffffffffffffffffffffffffffffff16815260200190815260200160002060009054906101000a900460ff16905092915050565b611922611aa1565b611961576040517f08c379a0000000000000000000000000000000000000000000000000000000008152600401611958906142ce565b60405180910390fd5b61196a8161249d565b50565b611975611b79565b600073ffffffffffffffffffffffffffffffffffffffff168173ffffffffffffffffffffffffffffffffffffffff16036119e4576040517f08c379a00000000000000000000000000000000000000000000000000000000081526004016119db90614360565b60405180910390fd5b6119ed81611dad565b50565b6119f8611b79565b80600d8190555050565b611a0d338383610e3c565b611a4c576040517f08c379a0000000000000000000000000000000000000000000000000000000008152600401611a43906143cc565b60405180910390fd5b611a54610ac6565b611a93576040517f08c379a0000000000000000000000000000000000000000000000000000000008152600401611a8a9061445e565b60405180910390fd5b611a9c8361249d565b505050565b6000600e54600d54611ab39190613163565b431015905090565b600081611ac6611bf7565b11158015611ad5575060005482105b8015611b13575060007c0100000000000000000000000000000000000000000000000000000000600460008581526020019081526020016000205416145b9050919050565b600033905090565b600067ffffffffffffffff6040600560008573ffffffffffffffffffffffffffffffffffffffff1673ffffffffffffffffffffffffffffffffffffffff16815260200190815260200160002054901c169050919050565b611b81612683565b73ffffffffffffffffffffffffffffffffffffffff16611b9f61102d565b73ffffffffffffffffffffffffffffffffffffffff1614611bf5576040517f08c379a0000000000000000000000000000000000000000000000000000000008152600401611bec906144ca565b60405180910390fd5b565b60006001905090565b60008082905080611c0f611bf7565b11611c9557600054811015611c945760006004600083815260200190815260200160002054905060007c0100000000000000000000000000000000000000000000000000000000821603611c92575b60008103611c88576004600083600190039350838152602001908152602001600020549050611c5e565b8092505050611cc7565b505b5b6040517fdf2d9b4200000000000000000000000000000000000000000000000000000000815260040160405180910390fd5b919050565b60008060006006600085815260200190815260200160002090508092508254915050915091565b600073ffffffffffffffffffffffffffffffffffffffff8316925073ffffffffffffffffffffffffffffffffffffffff821691508382148383141790509392505050565b50505050565b60008060e883901c905060e8611d5486868461268b565b62ffffff16901b9150509392505050565b600073ffffffffffffffffffffffffffffffffffffffff83169250814260a01b178317905092915050565b50505050565b600082611da38584612694565b1490509392505050565b6000600860009054906101000a900473ffffffffffffffffffffffffffffffffffffffff16905081600860006101000a81548173ffffffffffffffffffffffffffffffffffffffff021916908373ffffffffffffffffffffffffffffffffffffffff1602179055508173ffffffffffffffffffffffffffffffffffffffff168173ffffffffffffffffffffffffffffffffffffffff167f8be0079c531659141344cd1fd0a4f28419497f9722a3daafe3b4186f6b6457e060405160405180910390a35050565b60008373ffffffffffffffffffffffffffffffffffffffff1663150b7a02611e99611b1a565b8786866040518563ffffffff1660e01b8152600401611ebb949392919061453f565b6020604051808303816000875af1925050508015611ef757506040513d601f19601f82011682018060405250810190611ef491906145a0565b60015b611f70573d8060008114611f27576040519150601f19603f3d011682016040523d82523d6000602084013e611f2c565b606091505b506000815103611f68576040517fd1a57ed600000000000000000000000000000000000000000000000000000000815260040160405180910390fd5b805181602001fd5b63150b7a0260e01b7bffffffffffffffffffffffffffffffffffffffffffffffffffffffff1916817bffffffffffffffffffffffffffffffffffffffffffffffffffffffff191614915050949350505050565b60008054905060008203612003576040517fb562e8dd00000000000000000000000000000000000000000000000000000000815260040160405180910390fd5b6120106000848385611d37565b600160406001901b178202600560008573ffffffffffffffffffffffffffffffffffffffff1673ffffffffffffffffffffffffffffffffffffffff16815260200190815260200160002060008282540192505081905550612087836120786000866000611d3d565b612081856126ea565b17611d65565b6004600083815260200190815260200160002081905550600080838301905073ffffffffffffffffffffffffffffffffffffffff85169150828260007fddf252ad1be2c89b69c2b068fc378daa952ba7f163c4a11628f55a4df523b3ef600080a4600183015b81811461212857808360007fddf252ad1be2c89b69c2b068fc378daa952ba7f163c4a11628f55a4df523b3ef600080a46001810190506120ed565b5060008203612163576040517f2e07630000000000000000000000000000000000000000000000000000000000815260040160405180910390fd5b8060008190555050506121796000848385611d90565b505050565b6060600082036121c5576040518060400160405280600181526020017f30000000000000000000000000000000000000000000000000000000000000008152509050612301565b600082905060005b600082146121f75780806121e090613232565b915050600a826121f091906145fc565b91506121cd565b60008167ffffffffffffffff81111561221357612212612c76565b5b6040519080825280601f01601f1916602001820160405280156122455781602001600182028036833780820191505090505b50905060008290505b600086146122f9576001816122639190613072565b90506000600a808861227591906145fc565b61227f9190613109565b8761228a9190613072565b6030612296919061463a565b905060008160f81b9050808484815181106122b4576122b3613203565b5b60200101907effffffffffffffffffffffffffffffffffffffffffffffffffffffffffffff1916908160001a905350600a886122f091906145fc565b9750505061224e565b819450505050505b919050565b60606000825190506000810361232e5760405180602001604052806000815250915050612498565b6000600360028361233f9190613163565b61234991906145fc565b60046123559190613109565b905060006020826123669190613163565b67ffffffffffffffff81111561237f5761237e612c76565b5b6040519080825280601f01601f1916602001820160405280156123b15781602001600182028036833780820191505090505b50905060006040518060600160405280604081526020016147fa604091399050600181016020830160005b868110156124555760038101905062ffffff818a015116603f8160121c168401518060081b905060ff603f83600c1c1686015116810190508060081b905060ff603f8360061c1686015116810190508060081b905060ff603f831686015116810190508060e01b905080845260048401935050506123dc565b50600386066001811461246f576002811461247f5761248a565b613d3d60f01b600283035261248a565b603d60f81b60018303525b508484525050819450505050505b919050565b806009546124ab9190613109565b3410156124ed576040517f08c379a00000000000000000000000000000000000000000000000000000000081526004016124e4906146bb565b60405180910390fd5b600a54816124f9610b03565b6125039190613163565b1115612544576040517f08c379a000000000000000000000000000000000000000000000000000000000815260040161253b906131e3565b60405180910390fd5b60148161255033611b22565b61255a9190613163565b111561259b576040517f08c379a000000000000000000000000000000000000000000000000000000000815260040161259290614727565b60405180910390fd5b6125a53382611fc3565b806009546125b39190613109565b3411156126805760003373ffffffffffffffffffffffffffffffffffffffff16826009546125e19190613109565b346125ec9190613072565b6040516125f890614778565b60006040518083038185875af1925050503d8060008114612635576040519150601f19603f3d011682016040523d82523d6000602084013e61263a565b606091505b505090508061267e576040517f08c379a0000000000000000000000000000000000000000000000000000000008152600401612675906147d9565b60405180910390fd5b505b50565b600033905090565b60009392505050565b60008082905060005b84518110156126df576126ca828683815181106126bd576126bc613203565b5b60200260200101516126fa565b915080806126d790613232565b91505061269d565b508091505092915050565b60006001821460e11b9050919050565b60008183106127125761270d8284612725565b61271d565b61271c8383612725565b5b905092915050565b600082600052816020526040600020905092915050565b6000604051905090565b600080fd5b600080fd5b60007fffffffff0000000000000000000000000000000000000000000000000000000082169050919050565b61278581612750565b811461279057600080fd5b50565b6000813590506127a28161277c565b92915050565b6000602082840312156127be576127bd612746565b5b60006127cc84828501612793565b91505092915050565b60008115159050919050565b6127ea816127d5565b82525050565b600060208201905061280560008301846127e1565b92915050565b600081519050919050565b600082825260208201905092915050565b60005b8381101561284557808201518184015260208101905061282a565b60008484015250505050565b6000601f19601f8301169050919050565b600061286d8261280b565b6128778185612816565b9350612887818560208601612827565b61289081612851565b840191505092915050565b600060208201905081810360008301526128b58184612862565b905092915050565b6000819050919050565b6128d0816128bd565b81146128db57600080fd5b50565b6000813590506128ed816128c7565b92915050565b60006020828403121561290957612908612746565b5b6000612917848285016128de565b91505092915050565b600073ffffffffffffffffffffffffffffffffffffffff82169050919050565b600061294b82612920565b9050919050565b61295b81612940565b82525050565b60006020820190506129766000830184612952565b92915050565b61298581612940565b811461299057600080fd5b50565b6000813590506129a28161297c565b92915050565b600080604083850312156129bf576129be612746565b5b60006129cd85828601612993565b92505060206129de858286016128de565b9150509250929050565b6000602082840312156129fe576129fd612746565b5b6000612a0c84828501612993565b91505092915050565b612a1e816128bd565b82525050565b6000602082019050612a396000830184612a15565b92915050565b600080600060608486031215612a5857612a57612746565b5b6000612a6686828701612993565b9350506020612a7786828701612993565b9250506040612a88868287016128de565b9150509250925092565b600080fd5b600080fd5b600080fd5b60008083601f840112612ab757612ab6612a92565b5b8235905067ffffffffffffffff811115612ad457612ad3612a97565b5b602083019150836020820283011115612af057612aef612a9c565b5b9250929050565b600080600060408486031215612b1057612b0f612746565b5b6000612b1e86828701612993565b935050602084013567ffffffffffffffff811115612b3f57612b3e61274b565b5b612b4b86828701612aa1565b92509250509250925092565b6000819050919050565b612b6a81612b57565b82525050565b6000602082019050612b856000830184612b61565b92915050565b6000819050919050565b6000612bb0612bab612ba684612920565b612b8b565b612920565b9050919050565b6000612bc282612b95565b9050919050565b6000612bd482612bb7565b9050919050565b612be481612bc9565b82525050565b6000602082019050612bff6000830184612bdb565b92915050565b612c0e816127d5565b8114612c1957600080fd5b50565b600081359050612c2b81612c05565b92915050565b60008060408385031215612c4857612c47612746565b5b6000612c5685828601612993565b9250506020612c6785828601612c1c565b9150509250929050565b600080fd5b7f4e487b7100000000000000000000000000000000000000000000000000000000600052604160045260246000fd5b612cae82612851565b810181811067ffffffffffffffff82111715612ccd57612ccc612c76565b5b80604052505050565b6000612ce061273c565b9050612cec8282612ca5565b919050565b600067ffffffffffffffff821115612d0c57612d0b612c76565b5b612d1582612851565b9050602081019050919050565b82818337600083830152505050565b6000612d44612d3f84612cf1565b612cd6565b905082815260208101848484011115612d6057612d5f612c71565b5b612d6b848285612d22565b509392505050565b600082601f830112612d8857612d87612a92565b5b8135612d98848260208601612d31565b91505092915050565b60008060008060808587031215612dbb57612dba612746565b5b6000612dc987828801612993565b9450506020612dda87828801612993565b9350506040612deb878288016128de565b925050606085013567ffffffffffffffff811115612e0c57612e0b61274b565b5b612e1887828801612d73565b91505092959194509250565b600067ffffffffffffffff821115612e3f57612e3e612c76565b5b602082029050602081019050919050565b6000612e63612e5e84612e24565b612cd6565b90508083825260208201905060208402830185811115612e8657612e85612a9c565b5b835b81811015612eaf5780612e9b8882612993565b845260208401935050602081019050612e88565b5050509392505050565b600082601f830112612ece57612ecd612a92565b5b8135612ede848260208601612e50565b91505092915050565b60008060408385031215612efe57612efd612746565b5b600083013567ffffffffffffffff811115612f1c57612f1b61274b565b5b612f2885828601612eb9565b9250506020612f39858286016128de565b9150509250929050565b60008060408385031215612f5a57612f59612746565b5b6000612f6885828601612993565b9250506020612f7985828601612993565b9150509250929050565b600080600060408486031215612f9c57612f9b612746565b5b6000612faa868287016128de565b935050602084013567ffffffffffffffff811115612fcb57612fca61274b565b5b612fd786828701612aa1565b92509250509250925092565b7f4e487b7100000000000000000000000000000000000000000000000000000000600052602260045260246000fd5b6000600282049050600182168061302a57607f821691505b60208210810361303d5761303c612fe3565b5b50919050565b7f4e487b7100000000000000000000000000000000000000000000000000000000600052601160045260246000fd5b600061307d826128bd565b9150613088836128bd565b92508282039050818111156130a05761309f613043565b5b92915050565b60008160601b9050919050565b60006130be826130a6565b9050919050565b60006130d0826130b3565b9050919050565b6130e86130e382612940565b6130c5565b82525050565b60006130fa82846130d7565b60148201915081905092915050565b6000613114826128bd565b915061311f836128bd565b9250817fffffffffffffffffffffffffffffffffffffffffffffffffffffffffffffffff048311821515161561315857613157613043565b5b828202905092915050565b600061316e826128bd565b9150613179836128bd565b925082820190508082111561319157613190613043565b5b92915050565b7f45786365656473206d617820737570706c790000000000000000000000000000600082015250565b60006131cd601283612816565b91506131d882613197565b602082019050919050565b600060208201905081810360008301526131fc816131c0565b9050919050565b7f4e487b7100000000000000000000000000000000000000000000000000000000600052603260045260246000fd5b600061323d826128bd565b91507fffffffffffffffffffffffffffffffffffffffffffffffffffffffffffffffff820361326f5761326e613043565b5b600182019050919050565b600081905092915050565b7f4b616c6569646f73636f70652023000000000000000000000000000000000000600082015250565b60006132bb600e8361327a565b91506132c682613285565b600e82019050919050565b60006132dc8261280b565b6132e6818561327a565b93506132f6818560208601612827565b80840191505092915050565b600061330d826132ae565b915061331982846132d1565b915081905092915050565b600080fd5b600080fd5b60008151905061333d816128c7565b92915050565b60008151905061335281612c05565b92915050565b6000610120828403121561336f5761336e613324565b5b61337a610120612cd6565b9050600061338a8482850161332e565b600083015250602061339e8482850161332e565b60208301525060406133b28482850161332e565b60408301525060606133c68482850161332e565b60608301525060806133da8482850161332e565b60808301525060a06133ee8482850161332e565b60a08301525060c061340284828501613343565b60c08301525060e061341684828501613343565b60e08301525061010061342b84828501613343565b6101008301525092915050565b6000610120828403121561344f5761344e612746565b5b600061345d84828501613358565b91505092915050565b61346f816128bd565b82525050565b61347e816127d5565b82525050565b6101208201600082015161349b6000850182613466565b5060208201516134ae6020850182613466565b5060408201516134c16040850182613466565b5060608201516134d46060850182613466565b5060808201516134e76080850182613466565b5060a08201516134fa60a0850182613466565b5060c082015161350d60c0850182613475565b5060e082015161352060e0850182613475565b50610100820151613535610100850182613475565b50505050565b6000610120820190506135516000830184613484565b92915050565b60006060828403121561356d5761356c613324565b5b6135776060612cd6565b905060006135878482850161332e565b600083015250602061359b8482850161332e565b60208301525060406135af8482850161332e565b60408301525092915050565b600067ffffffffffffffff8211156135d6576135d5612c76565b5b602082029050602081019050919050565b60006135fa6135f5846135bb565b612cd6565b9050808382526020820190506060840283018581111561361d5761361c612a9c565b5b835b8181101561364657806136328882613557565b84526020840193505060608101905061361f565b5050509392505050565b600082601f83011261366557613664612a92565b5b81516136758482602086016135e7565b91505092915050565b6000610200828403121561369557613694613324565b5b6136a0610100612cd6565b905060006136b08482850161332e565b60008301525060206136c48482850161332e565b60208301525060406136d884828501613557565b60408301525060a06136ec84828501613557565b60608301525061010061370184828501613557565b60808301525061016061371684828501613557565b60a0830152506101c082015167ffffffffffffffff81111561373b5761373a613329565b5b61374784828501613650565b60c0830152506101e082015167ffffffffffffffff81111561376c5761376b613329565b5b61377884828501613650565b60e08301525092915050565b60006020828403121561379a57613799612746565b5b600082015167ffffffffffffffff8111156137b8576137b761274b565b5b6137c48482850161367e565b91505092915050565b6060820160008201516137e36000850182613466565b5060208201516137f66020850182613466565b5060408201516138096040850182613466565b50505050565b600081519050919050565b600082825260208201905092915050565b6000819050602082019050919050565b600061384783836137cd565b60608301905092915050565b6000602082019050919050565b600061386b8261380f565b613875818561381a565b93506138808361382b565b8060005b838110156138b1578151613898888261383b565b97506138a383613853565b925050600181019050613884565b5085935050505092915050565b6000610200830160008301516138d76000860182613466565b5060208301516138ea6020860182613466565b5060408301516138fd60408601826137cd565b50606083015161391060a08601826137cd565b5060808301516139246101008601826137cd565b5060a08301516139386101608601826137cd565b5060c08301518482036101c08601526139518282613860565b91505060e08301518482036101e086015261396c8282613860565b9150508091505092915050565b60006101408201905061398f6000830185613484565b8181036101208301526139a281846138be565b90509392505050565b600067ffffffffffffffff8211156139c6576139c5612c76565b5b6139cf82612851565b9050602081019050919050565b60006139ef6139ea846139ab565b612cd6565b905082815260208101848484011115613a0b57613a0a612c71565b5b613a16848285612827565b509392505050565b600082601f830112613a3357613a32612a92565b5b8151613a438482602086016139dc565b91505092915050565b600060208284031215613a6257613a61612746565b5b600082015167ffffffffffffffff811115613a8057613a7f61274b565b5b613a8c84828501613a1e565b91505092915050565b613a9e816128bd565b82525050565b6000602082019050613ab96000830184613a95565b92915050565b7f2261747472696275746573223a205b0000000000000000000000000000000000815250565b7f7b2274726169745f74797065223a20224d6972726f7273222c202276616c756560008201527f223a200000000000000000000000000000000000000000000000000000000000602082015250565b6000613b4160238361327a565b9150613b4c82613ae5565b602382019050919050565b7f7d2c000000000000000000000000000000000000000000000000000000000000815250565b7f7b2274726169745f74797065223a20224f75747369646520417274696661637460008201527f73222c202276616c7565223a2000000000000000000000000000000000000000602082015250565b6000613bd9602d8361327a565b9150613be482613b7d565b602d82019050919050565b7f7b2274726169745f74797065223a2022496e736964652041727469666163747360008201527f222c202276616c7565223a200000000000000000000000000000000000000000602082015250565b6000613c4b602c8361327a565b9150613c5682613bef565b602c82019050919050565b7f7b2274726169745f74797065223a20224772616469656e74222c202276616c7560008201527f65223a2022000000000000000000000000000000000000000000000000000000602082015250565b6000613cbd60258361327a565b9150613cc882613c61565b602582019050919050565b7f227d2c0000000000000000000000000000000000000000000000000000000000815250565b7f7b2274726169745f74797065223a20225072696d61727920436f6c6f72222c2060008201527f2276616c7565223a202200000000000000000000000000000000000000000000602082015250565b6000613d55602a8361327a565b9150613d6082613cf9565b602a82019050919050565b7f227d000000000000000000000000000000000000000000000000000000000000815250565b6000613d9c82613abf565b600f82019150613dab82613b34565b9150613db782886132d1565b9150613dc282613b57565b600282019150613dd182613bcc565b9150613ddd82876132d1565b9150613de882613b57565b600282019150613df782613c3e565b9150613e0382866132d1565b9150613e0e82613b57565b600282019150613e1d82613cb0565b9150613e2982856132d1565b9150613e3482613cd3565b600382019150613e4382613d48565b9150613e4f82846132d1565b9150613e5a82613d6b565b6002820191508190509695505050505050565b7f2c7b2274726169745f74797065223a20225365636f6e6461727920436f6c6f7260008201527f222c202276616c7565223a202200000000000000000000000000000000000000602082015250565b6000613ec9602d8361327a565b9150613ed482613e6d565b602d82019050919050565b6000613eeb82856132d1565b9150613ef682613ebc565b9150613f0282846132d1565b9150613f0d82613d6b565b6002820191508190509392505050565b7f2c7b2274726169745f74797065223a202248616c6f222c202276616c7565223a60008201527f2022596573227d00000000000000000000000000000000000000000000000000602082015250565b6000613f7960278361327a565b9150613f8482613f1d565b602782019050919050565b6000613f9b82846132d1565b9150613fa682613f6c565b915081905092915050565b7f5d00000000000000000000000000000000000000000000000000000000000000815250565b6000613fe382846132d1565b9150613fee82613fb1565b60018201915081905092915050565b7f7b226e616d65223a220000000000000000000000000000000000000000000000600082015250565b600061403360098361327a565b915061403e82613ffd565b600982019050919050565b7f222c226465736372697074696f6e223a22000000000000000000000000000000600082015250565b600061407f60118361327a565b915061408a82614049565b601182019050919050565b7f222c000000000000000000000000000000000000000000000000000000000000600082015250565b60006140cb60028361327a565b91506140d682614095565b600282019050919050565b7f2c2022696d616765223a2022646174613a696d6167652f7376672b786d6c3b6260008201527f61736536342c0000000000000000000000000000000000000000000000000000602082015250565b600061413d60268361327a565b9150614148826140e1565b602682019050919050565b7f227d000000000000000000000000000000000000000000000000000000000000600082015250565b600061418960028361327a565b915061419482614153565b600282019050919050565b60006141aa82614026565b91506141b682876132d1565b91506141c182614072565b91506141cd82866132d1565b91506141d8826140be565b91506141e482856132d1565b91506141ef82614130565b91506141fb82846132d1565b91506142068261417c565b915081905095945050505050565b7f646174613a6170706c69636174696f6e2f6a736f6e3b6261736536342c000000600082015250565b600061424a601d8361327a565b915061425582614214565b601d82019050919050565b600061426b8261423d565b915061427782846132d1565b915081905092915050565b7f5075626c69632073616c6520686173206e6f7420737461727465642079657400600082015250565b60006142b8601f83612816565b91506142c382614282565b602082019050919050565b600060208201905081810360008301526142e7816142ab565b9050919050565b7f4f776e61626c653a206e6577206f776e657220697320746865207a65726f206160008201527f6464726573730000000000000000000000000000000000000000000000000000602082015250565b600061434a602683612816565b9150614355826142ee565b604082019050919050565b600060208201905081810360008301526143798161433d565b9050919050565b7f596f7520617265206e6f74206f6e2074686520616c6c6f776c69737400000000600082015250565b60006143b6601c83612816565b91506143c182614380565b602082019050919050565b600060208201905081810360008301526143e5816143a9565b9050919050565b7f416c6c6f776c6973742073616c6520686173206e6f742073746172746564207960008201527f6574000000000000000000000000000000000000000000000000000000000000602082015250565b6000614448602283612816565b9150614453826143ec565b604082019050919050565b600060208201905081810360008301526144778161443b565b9050919050565b7f4f776e61626c653a2063616c6c6572206973206e6f7420746865206f776e6572600082015250565b60006144b4602083612816565b91506144bf8261447e565b602082019050919050565b600060208201905081810360008301526144e3816144a7565b9050919050565b600081519050919050565b600082825260208201905092915050565b6000614511826144ea565b61451b81856144f5565b935061452b818560208601612827565b61453481612851565b840191505092915050565b60006080820190506145546000830187612952565b6145616020830186612952565b61456e6040830185612a15565b81810360608301526145808184614506565b905095945050505050565b60008151905061459a8161277c565b92915050565b6000602082840312156145b6576145b5612746565b5b60006145c48482850161458b565b91505092915050565b7f4e487b7100000000000000000000000000000000000000000000000000000000600052601260045260246000fd5b6000614607826128bd565b9150614612836128bd565b925082614622576146216145cd565b5b828204905092915050565b600060ff82169050919050565b60006146458261462d565b91506146508361462d565b9250828201905060ff81111561466957614668613043565b5b92915050565b7f496e73756666696369656e742066656500000000000000000000000000000000600082015250565b60006146a5601083612816565b91506146b08261466f565b602082019050919050565b600060208201905081810360008301526146d481614698565b9050919050565b7f45786365656473206d6178207175616e74697479000000000000000000000000600082015250565b6000614711601483612816565b915061471c826146db565b602082019050919050565b6000602082019050818103600083015261474081614704565b9050919050565b600081905092915050565b50565b6000614762600083614747565b915061476d82614752565b600082019050919050565b600061478382614755565b9150819050919050565b7f526566756e64206661696c656400000000000000000000000000000000000000600082015250565b60006147c3600d83612816565b91506147ce8261478d565b602082019050919050565b600060208201905081810360008301526147f2816147b6565b905091905056fe4142434445464748494a4b4c4d4e4f505152535455565758595a6162636465666768696a6b6c6d6e6f707172737475767778797a303132333435363738392b2f46756c6c79206f6e2d636861696e2c2070726f6365647572616c6c792067656e6572617465642c20616e696d61746564206b616c6569646f73636f7065732ea264697066735822122052abef236944e932101b30fe89aa13017f608c9ba9c850189986d5776b62cea064736f6c63430008100033",
  "deployedBytecode": "0x6080604052600436106102045760003560e01c80638da5cb5b11610118578063c87b56dd116100a0578063efd0cbf91161006f578063efd0cbf91461072a578063f2fde38b14610746578063f764561d1461076f578063fa05a65714610798578063fdd4b0f0146107b457610204565b8063c87b56dd1461065a578063d0e59d5a14610697578063d5abeb01146106c2578063e985e9c5146106ed57610204565b8063a22cb465116100e7578063a22cb465146105a3578063afc1cad3146105cc578063b228d925146105f7578063b88d4fde14610622578063c204642c1461063e57610204565b80638da5cb5b146104f957806391b7f5ed1461052457806395d89b411461054d578063a035b1fe1461057857610204565b806323b872dd1161019b57806342842e0e1161016a57806342842e0e146104215780636352211e1461043d57806370a082311461047a578063715018a6146104b75780638ada6b0f146104ce57610204565b806323b872dd14610386578063247155ff146103a25780632eb4a7ab146103df5780633ccfd60b1461040a57610204565b80630bf02d87116101d75780630bf02d87146102ca5780630e2a1448146102f5578063170a78cc1461033257806318160ddd1461035b57610204565b806301ffc9a71461020957806306fdde0314610246578063081812fc14610271578063095ea7b3146102ae575b600080fd5b34801561021557600080fd5b50610230600480360381019061022b91906127a8565b6107df565b60405161023d91906127f0565b60405180910390f35b34801561025257600080fd5b5061025b610871565b604051610268919061289b565b60405180910390f35b34801561027d57600080fd5b50610298600480360381019061029391906128f3565b610903565b6040516102a59190612961565b60405180910390f35b6102c860048036038101906102c391906129a8565b610982565b005b3480156102d657600080fd5b506102df610ac6565b6040516102ec91906127f0565b60405180910390f35b34801561030157600080fd5b5061031c600480360381019061031791906129e8565b610ad3565b6040516103299190612a24565b60405180910390f35b34801561033e57600080fd5b50610359600480360381019061035491906128f3565b610af1565b005b34801561036757600080fd5b50610370610b03565b60405161037d9190612a24565b60405180910390f35b6103a0600480360381019061039b9190612a3f565b610b1a565b005b3480156103ae57600080fd5b506103c960048036038101906103c49190612af7565b610e3c565b6040516103d691906127f0565b60405180910390f35b3480156103eb57600080fd5b506103f4610ebb565b6040516104019190612b70565b60405180910390f35b34801561041657600080fd5b5061041f610ec1565b005b61043b60048036038101906104369190612a3f565b610f09565b005b34801561044957600080fd5b50610464600480360381019061045f91906128f3565b610f29565b6040516104719190612961565b60405180910390f35b34801561048657600080fd5b506104a1600480360381019061049c91906129e8565b610f3b565b6040516104ae9190612a24565b60405180910390f35b3480156104c357600080fd5b506104cc610ff3565b005b3480156104da57600080fd5b506104e3611007565b6040516104f09190612bea565b60405180910390f35b34801561050557600080fd5b5061050e61102d565b60405161051b9190612961565b60405180910390f35b34801561053057600080fd5b5061054b600480360381019061054691906128f3565b611057565b005b34801561055957600080fd5b50610562611069565b60405161056f919061289b565b60405180910390f35b34801561058457600080fd5b5061058d6110fb565b60405161059a9190612a24565b60405180910390f35b3480156105af57600080fd5b506105ca60048036038101906105c59190612c31565b611101565b005b3480156105d857600080fd5b506105e161120c565b6040516105ee9190612a24565b60405180910390f35b34801561060357600080fd5b5061060c611212565b6040516106199190612a24565b60405180910390f35b61063c60048036038101906106379190612da1565b611217565b005b61065860048036038101906106539190612ee7565b61128a565b005b34801561066657600080fd5b50610681600480360381019061067c91906128f3565b61133d565b60405161068e919061289b565b60405180910390f35b3480156106a357600080fd5b506106ac61187a565b6040516106b99190612a24565b60405180910390f35b3480156106ce57600080fd5b506106d7611880565b6040516106e49190612a24565b60405180910390f35b3480156106f957600080fd5b50610714600480360381019061070f9190612f43565b611886565b60405161072191906127f0565b60405180910390f35b610744600480360381019061073f91906128f3565b61191a565b005b34801561075257600080fd5b5061076d600480360381019061076891906129e8565b61196d565b005b34801561077b57600080fd5b50610796600480360381019061079191906128f3565b6119f0565b005b6107b260048036038101906107ad9190612f83565b611a02565b005b3480156107c057600080fd5b506107c9611aa1565b6040516107d691906127f0565b60405180910390f35b60006301ffc9a760e01b827bffffffffffffffffffffffffffffffffffffffffffffffffffffffff1916148061083a57506380ac58cd60e01b827bffffffffffffffffffffffffffffffffffffffffffffffffffffffff1916145b8061086a5750635b5e139f60e01b827bffffffffffffffffffffffffffffffffffffffffffffffffffffffff1916145b9050919050565b60606002805461088090613012565b80601f01602080910402602001604051908101604052809291908181526020018280546108ac90613012565b80156108f95780601f106108ce576101008083540402835291602001916108f9565b820191906000526020600020905b8154815290600101906020018083116108dc57829003601f168201915b5050505050905090565b600061090e82611abb565b610944576040517fcf4700e400000000000000000000000000000000000000000000000000000000815260040160405180910390fd5b6006600083815260200190815260200160002060000160009054906101000a900473ffffffffffffffffffffffffffffffffffffffff169050919050565b600061098d82610f29565b90508073ffffffffffffffffffffffffffffffffffffffff166109ae611b1a565b73ffffffffffffffffffffffffffffffffffffffff1614610a11576109da816109d5611b1a565b611886565b610a10576040517fcfb3b94200000000000000000000000000000000000000000000000000000000815260040160405180910390fd5b5b826006600084815260200190815260200160002060000160006101000a81548173ffffffffffffffffffffffffffffffffffffffff021916908373ffffffffffffffffffffffffffffffffffffffff160217905550818373ffffffffffffffffffffffffffffffffffffffff168273ffffffffffffffffffffffffffffffffffffffff167f8c5be1e5ebec7d5bd14f71427d1e84f3dd0314c0f7b2291e5b200ac8c7c3b92560405160405180910390a4505050565b6000600d54431015905090565b6000610ade82611b22565b6014610aea9190613072565b9050919050565b610af9611b79565b80600e8190555050565b6000610b0d611bf7565b6001546000540303905090565b6000610b2582611c00565b90508373ffffffffffffffffffffffffffffffffffffffff168173ffffffffffffffffffffffffffffffffffffffff1614610b8c576040517fa114810000000000000000000000000000000000000000000000000000000000815260040160405180910390fd5b600080610b9884611ccc565b91509150610bae8187610ba9611b1a565b611cf3565b610bfa57610bc386610bbe611b1a565b611886565b610bf9576040517f59c896be00000000000000000000000000000000000000000000000000000000815260040160405180910390fd5b5b600073ffffffffffffffffffffffffffffffffffffffff168573ffffffffffffffffffffffffffffffffffffffff1603610c60576040517fea553b3400000000000000000000000000000000000000000000000000000000815260040160405180910390fd5b610c6d8686866001611d37565b8015610c7857600082555b600560008773ffffffffffffffffffffffffffffffffffffffff1673ffffffffffffffffffffffffffffffffffffffff168152602001908152602001600020600081546001900391905081905550600560008673ffffffffffffffffffffffffffffffffffffffff1673ffffffffffffffffffffffffffffffffffffffff1681526020019081526020016000206000815460010191905081905550610d4685610d22888887611d3d565b7c020000000000000000000000000000000000000000000000000000000017611d65565b600460008681526020019081526020016000208190555060007c0200000000000000000000000000000000000000000000000000000000841603610dcc5760006001850190506000600460008381526020019081526020016000205403610dca576000548114610dc9578360046000838152602001908152602001600020819055505b5b505b838573ffffffffffffffffffffffffffffffffffffffff168773ffffffffffffffffffffffffffffffffffffffff167fddf252ad1be2c89b69c2b068fc378daa952ba7f163c4a11628f55a4df523b3ef60405160405180910390a4610e348686866001611d90565b505050505050565b6000610eb2838380806020026020016040519081016040528093929190818152602001838360200280828437600081840152601f19601f82011690508083019250505050505050600c5486604051602001610e9791906130ee565b60405160208183030381529060405280519060200120611d96565b90509392505050565b600c5481565b610ec9611b79565b3373ffffffffffffffffffffffffffffffffffffffff166108fc479081150290604051600060405180830381858888f19350505050610f0757600080fd5b565b610f2483838360405180602001604052806000815250611217565b505050565b6000610f3482611c00565b9050919050565b60008073ffffffffffffffffffffffffffffffffffffffff168273ffffffffffffffffffffffffffffffffffffffff1603610fa2576040517f8f4eb60400000000000000000000000000000000000000000000000000000000815260040160405180910390fd5b67ffffffffffffffff600560008473ffffffffffffffffffffffffffffffffffffffff1673ffffffffffffffffffffffffffffffffffffffff16815260200190815260200160002054169050919050565b610ffb611b79565b6110056000611dad565b565b600b60009054906101000a900473ffffffffffffffffffffffffffffffffffffffff1681565b6000600860009054906101000a900473ffffffffffffffffffffffffffffffffffffffff16905090565b61105f611b79565b8060098190555050565b60606003805461107890613012565b80601f01602080910402602001604051908101604052809291908181526020018280546110a490613012565b80156110f15780601f106110c6576101008083540402835291602001916110f1565b820191906000526020600020905b8154815290600101906020018083116110d457829003601f168201915b5050505050905090565b60095481565b806007600061110e611b1a565b73ffffffffffffffffffffffffffffffffffffffff1673ffffffffffffffffffffffffffffffffffffffff16815260200190815260200160002060008473ffffffffffffffffffffffffffffffffffffffff1673ffffffffffffffffffffffffffffffffffffffff16815260200190815260200160002060006101000a81548160ff0219169083151502179055508173ffffffffffffffffffffffffffffffffffffffff166111bb611b1a565b73ffffffffffffffffffffffffffffffffffffffff167f17307eab39ab6107e8899845ad3d59bd9653f200f220920489ca2b5937696c318360405161120091906127f0565b60405180910390a35050565b600e5481565b601481565b611222848484610b1a565b60008373ffffffffffffffffffffffffffffffffffffffff163b146112845761124d84848484611e73565b611283576040517fd1a57ed600000000000000000000000000000000000000000000000000000000815260040160405180910390fd5b5b50505050565b611292611b79565b600a548251826112a29190613109565b6112aa610b03565b6112b49190613163565b11156112f5576040517f08c379a00000000000000000000000000000000000000000000000000000000081526004016112ec906131e3565b60405180910390fd5b60005b82518110156113385761132583828151811061131757611316613203565b5b602002602001015183611fc3565b808061133090613232565b9150506112f8565b505050565b606061134882611abb565b61137e576040517fa14c4b5000000000000000000000000000000000000000000000000000000000815260040160405180910390fd5b60006113898361217e565b6040516020016113999190613302565b604051602081830303815290604052905060006040518060600160405280603f815260200161483a603f913990506000600b60009054906101000a900473ffffffffffffffffffffffffffffffffffffffff1673ffffffffffffffffffffffffffffffffffffffff1663d6cf5f55866040518263ffffffff1660e01b81526004016114249190612a24565b61012060405180830381865afa158015611442573d6000803e3d6000fd5b505050506040513d601f19601f820116820180604052508101906114669190613438565b90506032851115816101000190151590811515815250506000600b60009054906101000a900473ffffffffffffffffffffffffffffffffffffffff1673ffffffffffffffffffffffffffffffffffffffff166391b078a4836040518263ffffffff1660e01b81526004016114da919061353b565b600060405180830381865afa1580156114f7573d6000803e3d6000fd5b505050506040513d6000823e3d601f19601f820116820180604052508101906115209190613784565b90506000600b60009054906101000a900473ffffffffffffffffffffffffffffffffffffffff1673ffffffffffffffffffffffffffffffffffffffff16637d11e69c84846040518363ffffffff1660e01b8152600401611581929190613979565b600060405180830381865afa15801561159e573d6000803e3d6000fd5b505050506040513d6000823e3d601f19601f820116820180604052508101906115c79190613a4c565b905060006115d8846020015161217e565b6115e5856060015161217e565b6115f2866040015161217e565b8660c00151611636576040518060400160405280600281526020017f4e6f00000000000000000000000000000000000000000000000000000000000081525061166d565b6040518060400160405280600381526020017f59657300000000000000000000000000000000000000000000000000000000008152505b73__$5187c88d6fd7cbb2d86814aea483adb806$__6375f5696d88600001516040518263ffffffff1660e01b81526004016116a89190613aa4565b600060405180830381865af41580156116c5573d6000803e3d6000fd5b505050506040513d6000823e3d601f19601f820116820180604052508101906116ee9190613a4c565b604051602001611702959493929190613d91565b60405160208183030381529060405290508360e00151156117c2578073__$5187c88d6fd7cbb2d86814aea483adb806$__6375f5696d85602001516040518263ffffffff1660e01b81526004016117599190613aa4565b600060405180830381865af4158015611776573d6000803e3d6000fd5b505050506040513d6000823e3d601f19601f8201168201806040525081019061179f9190613a4c565b6040516020016117b0929190613edf565b60405160208183030381529060405290505b836101000151156117f057806040516020016117de9190613f8f565b60405160208183030381529060405290505b806040516020016118019190613fd7565b6040516020818303038152906040529050600086868361182086612306565b604051602001611833949392919061419f565b604051602081830303815290604052905061184d81612306565b60405160200161185d9190614260565b604051602081830303815290604052975050505050505050919050565b600d5481565b600a5481565b6000600760008473ffffffffffffffffffffffffffffffffffffffff1673ffffffffffffffffffffffffffffffffffffffff16815260200190815260200160002060008373ffffffffffffffffffffffffffffffffffffffff1673ffffffffffffffffffffffffffffffffffffffff16815260200190815260200160002060009054906101000a900460ff16905092915050565b611922611aa1565b611961576040517f08c379a0000000000000000000000000000000000000000000000000000000008152600401611958906142ce565b60405180910390fd5b61196a8161249d565b50565b611975611b79565b600073ffffffffffffffffffffffffffffffffffffffff168173ffffffffffffffffffffffffffffffffffffffff16036119e4576040517f08c379a00000000000000000000000000000000000000000000000000000000081526004016119db90614360565b60405180910390fd5b6119ed81611dad565b50565b6119f8611b79565b80600d8190555050565b611a0d338383610e3c565b611a4c576040517f08c379a0000000000000000000000000000000000000000000000000000000008152600401611a43906143cc565b60405180910390fd5b611a54610ac6565b611a93576040517f08c379a0000000000000000000000000000000000000000000000000000000008152600401611a8a9061445e565b60405180910390fd5b611a9c8361249d565b505050565b6000600e54600d54611ab39190613163565b431015905090565b600081611ac6611bf7565b11158015611ad5575060005482105b8015611b13575060007c0100000000000000000000000000000000000000000000000000000000600460008581526020019081526020016000205416145b9050919050565b600033905090565b600067ffffffffffffffff6040600560008573ffffffffffffffffffffffffffffffffffffffff1673ffffffffffffffffffffffffffffffffffffffff16815260200190815260200160002054901c169050919050565b611b81612683565b73ffffffffffffffffffffffffffffffffffffffff16611b9f61102d565b73ffffffffffffffffffffffffffffffffffffffff1614611bf5576040517f08c379a0000000000000000000000000000000000000000000000000000000008152600401611bec906144ca565b60405180910390fd5b565b60006001905090565b60008082905080611c0f611bf7565b11611c9557600054811015611c945760006004600083815260200190815260200160002054905060007c0100000000000000000000000000000000000000000000000000000000821603611c92575b60008103611c88576004600083600190039350838152602001908152602001600020549050611c5e565b8092505050611cc7565b505b5b6040517fdf2d9b4200000000000000000000000000000000000000000000000000000000815260040160405180910390fd5b919050565b60008060006006600085815260200190815260200160002090508092508254915050915091565b600073ffffffffffffffffffffffffffffffffffffffff8316925073ffffffffffffffffffffffffffffffffffffffff821691508382148383141790509392505050565b50505050565b60008060e883901c905060e8611d5486868461268b565b62ffffff16901b9150509392505050565b600073ffffffffffffffffffffffffffffffffffffffff83169250814260a01b178317905092915050565b50505050565b600082611da38584612694565b1490509392505050565b6000600860009054906101000a900473ffffffffffffffffffffffffffffffffffffffff16905081600860006101000a81548173ffffffffffffffffffffffffffffffffffffffff021916908373ffffffffffffffffffffffffffffffffffffffff1602179055508173ffffffffffffffffffffffffffffffffffffffff168173ffffffffffffffffffffffffffffffffffffffff167f8be0079c531659141344cd1fd0a4f28419497f9722a3daafe3b4186f6b6457e060405160405180910390a35050565b60008373ffffffffffffffffffffffffffffffffffffffff1663150b7a02611e99611b1a565b8786866040518563ffffffff1660e01b8152600401611ebb949392919061453f565b6020604051808303816000875af1925050508015611ef757506040513d601f19601f82011682018060405250810190611ef491906145a0565b60015b611f70573d8060008114611f27576040519150601f19603f3d011682016040523d82523d6000602084013e611f2c565b606091505b506000815103611f68576040517fd1a57ed600000000000000000000000000000000000000000000000000000000815260040160405180910390fd5b805181602001fd5b63150b7a0260e01b7bffffffffffffffffffffffffffffffffffffffffffffffffffffffff1916817bffffffffffffffffffffffffffffffffffffffffffffffffffffffff191614915050949350505050565b60008054905060008203612003576040517fb562e8dd00000000000000000000000000000000000000000000000000000000815260040160405180910390fd5b6120106000848385611d37565b600160406001901b178202600560008573ffffffffffffffffffffffffffffffffffffffff1673ffffffffffffffffffffffffffffffffffffffff16815260200190815260200160002060008282540192505081905550612087836120786000866000611d3d565b612081856126ea565b17611d65565b6004600083815260200190815260200160002081905550600080838301905073ffffffffffffffffffffffffffffffffffffffff85169150828260007fddf252ad1be2c89b69c2b068fc378daa952ba7f163c4a11628f55a4df523b3ef600080a4600183015b81811461212857808360007fddf252ad1be2c89b69c2b068fc378daa952ba7f163c4a11628f55a4df523b3ef600080a46001810190506120ed565b5060008203612163576040517f2e07630000000000000000000000000000000000000000000000000000000000815260040160405180910390fd5b8060008190555050506121796000848385611d90565b505050565b6060600082036121c5576040518060400160405280600181526020017f30000000000000000000000000000000000000000000000000000000000000008152509050612301565b600082905060005b600082146121f75780806121e090613232565b915050600a826121f091906145fc565b91506121cd565b60008167ffffffffffffffff81111561221357612212612c76565b5b6040519080825280601f01601f1916602001820160405280156122455781602001600182028036833780820191505090505b50905060008290505b600086146122f9576001816122639190613072565b90506000600a808861227591906145fc565b61227f9190613109565b8761228a9190613072565b6030612296919061463a565b905060008160f81b9050808484815181106122b4576122b3613203565b5b60200101907effffffffffffffffffffffffffffffffffffffffffffffffffffffffffffff1916908160001a905350600a886122f091906145fc565b9750505061224e565b819450505050505b919050565b60606000825190506000810361232e5760405180602001604052806000815250915050612498565b6000600360028361233f9190613163565b61234991906145fc565b60046123559190613109565b905060006020826123669190613163565b67ffffffffffffffff81111561237f5761237e612c76565b5b6040519080825280601f01601f1916602001820160405280156123b15781602001600182028036833780820191505090505b50905060006040518060600160405280604081526020016147fa604091399050600181016020830160005b868110156124555760038101905062ffffff818a015116603f8160121c168401518060081b905060ff603f83600c1c1686015116810190508060081b905060ff603f8360061c1686015116810190508060081b905060ff603f831686015116810190508060e01b905080845260048401935050506123dc565b50600386066001811461246f576002811461247f5761248a565b613d3d60f01b600283035261248a565b603d60f81b60018303525b508484525050819450505050505b919050565b806009546124ab9190613109565b3410156124ed576040517f08c379a00000000000000000000000000000000000000000000000000000000081526004016124e4906146bb565b60405180910390fd5b600a54816124f9610b03565b6125039190613163565b1115612544576040517f08c379a000000000000000000000000000000000000000000000000000000000815260040161253b906131e3565b60405180910390fd5b60148161255033611b22565b61255a9190613163565b111561259b576040517f08c379a000000000000000000000000000000000000000000000000000000000815260040161259290614727565b60405180910390fd5b6125a53382611fc3565b806009546125b39190613109565b3411156126805760003373ffffffffffffffffffffffffffffffffffffffff16826009546125e19190613109565b346125ec9190613072565b6040516125f890614778565b60006040518083038185875af1925050503d8060008114612635576040519150601f19603f3d011682016040523d82523d6000602084013e61263a565b606091505b505090508061267e576040517f08c379a0000000000000000000000000000000000000000000000000000000008152600401612675906147d9565b60405180910390fd5b505b50565b600033905090565b60009392505050565b60008082905060005b84518110156126df576126ca828683815181106126bd576126bc613203565b5b60200260200101516126fa565b915080806126d790613232565b91505061269d565b508091505092915050565b60006001821460e11b9050919050565b60008183106127125761270d8284612725565b61271d565b61271c8383612725565b5b905092915050565b600082600052816020526040600020905092915050565b6000604051905090565b600080fd5b600080fd5b60007fffffffff0000000000000000000000000000000000000000000000000000000082169050919050565b61278581612750565b811461279057600080fd5b50565b6000813590506127a28161277c565b92915050565b6000602082840312156127be576127bd612746565b5b60006127cc84828501612793565b91505092915050565b60008115159050919050565b6127ea816127d5565b82525050565b600060208201905061280560008301846127e1565b92915050565b600081519050919050565b600082825260208201905092915050565b60005b8381101561284557808201518184015260208101905061282a565b60008484015250505050565b6000601f19601f8301169050919050565b600061286d8261280b565b6128778185612816565b9350612887818560208601612827565b61289081612851565b840191505092915050565b600060208201905081810360008301526128b58184612862565b905092915050565b6000819050919050565b6128d0816128bd565b81146128db57600080fd5b50565b6000813590506128ed816128c7565b92915050565b60006020828403121561290957612908612746565b5b6000612917848285016128de565b91505092915050565b600073ffffffffffffffffffffffffffffffffffffffff82169050919050565b600061294b82612920565b9050919050565b61295b81612940565b82525050565b60006020820190506129766000830184612952565b92915050565b61298581612940565b811461299057600080fd5b50565b6000813590506129a28161297c565b92915050565b600080604083850312156129bf576129be612746565b5b60006129cd85828601612993565b92505060206129de858286016128de565b9150509250929050565b6000602082840312156129fe576129fd612746565b5b6000612a0c84828501612993565b91505092915050565b612a1e816128bd565b82525050565b6000602082019050612a396000830184612a15565b92915050565b600080600060608486031215612a5857612a57612746565b5b6000612a6686828701612993565b9350506020612a7786828701612993565b9250506040612a88868287016128de565b9150509250925092565b600080fd5b600080fd5b600080fd5b60008083601f840112612ab757612ab6612a92565b5b8235905067ffffffffffffffff811115612ad457612ad3612a97565b5b602083019150836020820283011115612af057612aef612a9c565b5b9250929050565b600080600060408486031215612b1057612b0f612746565b5b6000612b1e86828701612993565b935050602084013567ffffffffffffffff811115612b3f57612b3e61274b565b5b612b4b86828701612aa1565b92509250509250925092565b6000819050919050565b612b6a81612b57565b82525050565b6000602082019050612b856000830184612b61565b92915050565b6000819050919050565b6000612bb0612bab612ba684612920565b612b8b565b612920565b9050919050565b6000612bc282612b95565b9050919050565b6000612bd482612bb7565b9050919050565b612be481612bc9565b82525050565b6000602082019050612bff6000830184612bdb565b92915050565b612c0e816127d5565b8114612c1957600080fd5b50565b600081359050612c2b81612c05565b92915050565b60008060408385031215612c4857612c47612746565b5b6000612c5685828601612993565b9250506020612c6785828601612c1c565b9150509250929050565b600080fd5b7f4e487b7100000000000000000000000000000000000000000000000000000000600052604160045260246000fd5b612cae82612851565b810181811067ffffffffffffffff82111715612ccd57612ccc612c76565b5b80604052505050565b6000612ce061273c565b9050612cec8282612ca5565b919050565b600067ffffffffffffffff821115612d0c57612d0b612c76565b5b612d1582612851565b9050602081019050919050565b82818337600083830152505050565b6000612d44612d3f84612cf1565b612cd6565b905082815260208101848484011115612d6057612d5f612c71565b5b612d6b848285612d22565b509392505050565b600082601f830112612d8857612d87612a92565b5b8135612d98848260208601612d31565b91505092915050565b60008060008060808587031215612dbb57612dba612746565b5b6000612dc987828801612993565b9450506020612dda87828801612993565b9350506040612deb878288016128de565b925050606085013567ffffffffffffffff811115612e0c57612e0b61274b565b5b612e1887828801612d73565b91505092959194509250565b600067ffffffffffffffff821115612e3f57612e3e612c76565b5b602082029050602081019050919050565b6000612e63612e5e84612e24565b612cd6565b90508083825260208201905060208402830185811115612e8657612e85612a9c565b5b835b81811015612eaf5780612e9b8882612993565b845260208401935050602081019050612e88565b5050509392505050565b600082601f830112612ece57612ecd612a92565b5b8135612ede848260208601612e50565b91505092915050565b60008060408385031215612efe57612efd612746565b5b600083013567ffffffffffffffff811115612f1c57612f1b61274b565b5b612f2885828601612eb9565b9250506020612f39858286016128de565b9150509250929050565b60008060408385031215612f5a57612f59612746565b5b6000612f6885828601612993565b9250506020612f7985828601612993565b9150509250929050565b600080600060408486031215612f9c57612f9b612746565b5b6000612faa868287016128de565b935050602084013567ffffffffffffffff811115612fcb57612fca61274b565b5b612fd786828701612aa1565b92509250509250925092565b7f4e487b7100000000000000000000000000000000000000000000000000000000600052602260045260246000fd5b6000600282049050600182168061302a57607f821691505b60208210810361303d5761303c612fe3565b5b50919050565b7f4e487b7100000000000000000000000000000000000000000000000000000000600052601160045260246000fd5b600061307d826128bd565b9150613088836128bd565b92508282039050818111156130a05761309f613043565b5b92915050565b60008160601b9050919050565b60006130be826130a6565b9050919050565b60006130d0826130b3565b9050919050565b6130e86130e382612940565b6130c5565b82525050565b60006130fa82846130d7565b60148201915081905092915050565b6000613114826128bd565b915061311f836128bd565b9250817fffffffffffffffffffffffffffffffffffffffffffffffffffffffffffffffff048311821515161561315857613157613043565b5b828202905092915050565b600061316e826128bd565b9150613179836128bd565b925082820190508082111561319157613190613043565b5b92915050565b7f45786365656473206d617820737570706c790000000000000000000000000000600082015250565b60006131cd601283612816565b91506131d882613197565b602082019050919050565b600060208201905081810360008301526131fc816131c0565b9050919050565b7f4e487b7100000000000000000000000000000000000000000000000000000000600052603260045260246000fd5b600061323d826128bd565b91507fffffffffffffffffffffffffffffffffffffffffffffffffffffffffffffffff820361326f5761326e613043565b5b600182019050919050565b600081905092915050565b7f4b616c6569646f73636f70652023000000000000000000000000000000000000600082015250565b60006132bb600e8361327a565b91506132c682613285565b600e82019050919050565b60006132dc8261280b565b6132e6818561327a565b93506132f6818560208601612827565b80840191505092915050565b600061330d826132ae565b915061331982846132d1565b915081905092915050565b600080fd5b600080fd5b60008151905061333d816128c7565b92915050565b60008151905061335281612c05565b92915050565b6000610120828403121561336f5761336e613324565b5b61337a610120612cd6565b9050600061338a8482850161332e565b600083015250602061339e8482850161332e565b60208301525060406133b28482850161332e565b60408301525060606133c68482850161332e565b60608301525060806133da8482850161332e565b60808301525060a06133ee8482850161332e565b60a08301525060c061340284828501613343565b60c08301525060e061341684828501613343565b60e08301525061010061342b84828501613343565b6101008301525092915050565b6000610120828403121561344f5761344e612746565b5b600061345d84828501613358565b91505092915050565b61346f816128bd565b82525050565b61347e816127d5565b82525050565b6101208201600082015161349b6000850182613466565b5060208201516134ae6020850182613466565b5060408201516134c16040850182613466565b5060608201516134d46060850182613466565b5060808201516134e76080850182613466565b5060a08201516134fa60a0850182613466565b5060c082015161350d60c0850182613475565b5060e082015161352060e0850182613475565b50610100820151613535610100850182613475565b50505050565b6000610120820190506135516000830184613484565b92915050565b60006060828403121561356d5761356c613324565b5b6135776060612cd6565b905060006135878482850161332e565b600083015250602061359b8482850161332e565b60208301525060406135af8482850161332e565b60408301525092915050565b600067ffffffffffffffff8211156135d6576135d5612c76565b5b602082029050602081019050919050565b60006135fa6135f5846135bb565b612cd6565b9050808382526020820190506060840283018581111561361d5761361c612a9c565b5b835b8181101561364657806136328882613557565b84526020840193505060608101905061361f565b5050509392505050565b600082601f83011261366557613664612a92565b5b81516136758482602086016135e7565b91505092915050565b6000610200828403121561369557613694613324565b5b6136a0610100612cd6565b905060006136b08482850161332e565b60008301525060206136c48482850161332e565b60208301525060406136d884828501613557565b60408301525060a06136ec84828501613557565b60608301525061010061370184828501613557565b60808301525061016061371684828501613557565b60a0830152506101c082015167ffffffffffffffff81111561373b5761373a613329565b5b61374784828501613650565b60c0830152506101e082015167ffffffffffffffff81111561376c5761376b613329565b5b61377884828501613650565b60e08301525092915050565b60006020828403121561379a57613799612746565b5b600082015167ffffffffffffffff8111156137b8576137b761274b565b5b6137c48482850161367e565b91505092915050565b6060820160008201516137e36000850182613466565b5060208201516137f66020850182613466565b5060408201516138096040850182613466565b50505050565b600081519050919050565b600082825260208201905092915050565b6000819050602082019050919050565b600061384783836137cd565b60608301905092915050565b6000602082019050919050565b600061386b8261380f565b613875818561381a565b93506138808361382b565b8060005b838110156138b1578151613898888261383b565b97506138a383613853565b925050600181019050613884565b5085935050505092915050565b6000610200830160008301516138d76000860182613466565b5060208301516138ea6020860182613466565b5060408301516138fd60408601826137cd565b50606083015161391060a08601826137cd565b5060808301516139246101008601826137cd565b5060a08301516139386101608601826137cd565b5060c08301518482036101c08601526139518282613860565b91505060e08301518482036101e086015261396c8282613860565b9150508091505092915050565b60006101408201905061398f6000830185613484565b8181036101208301526139a281846138be565b90509392505050565b600067ffffffffffffffff8211156139c6576139c5612c76565b5b6139cf82612851565b9050602081019050919050565b60006139ef6139ea846139ab565b612cd6565b905082815260208101848484011115613a0b57613a0a612c71565b5b613a16848285612827565b509392505050565b600082601f830112613a3357613a32612a92565b5b8151613a438482602086016139dc565b91505092915050565b600060208284031215613a6257613a61612746565b5b600082015167ffffffffffffffff811115613a8057613a7f61274b565b5b613a8c84828501613a1e565b91505092915050565b613a9e816128bd565b82525050565b6000602082019050613ab96000830184613a95565b92915050565b7f2261747472696275746573223a205b0000000000000000000000000000000000815250565b7f7b2274726169745f74797065223a20224d6972726f7273222c202276616c756560008201527f223a200000000000000000000000000000000000000000000000000000000000602082015250565b6000613b4160238361327a565b9150613b4c82613ae5565b602382019050919050565b7f7d2c000000000000000000000000000000000000000000000000000000000000815250565b7f7b2274726169745f74797065223a20224f75747369646520417274696661637460008201527f73222c202276616c7565223a2000000000000000000000000000000000000000602082015250565b6000613bd9602d8361327a565b9150613be482613b7d565b602d82019050919050565b7f7b2274726169745f74797065223a2022496e736964652041727469666163747360008201527f222c202276616c7565223a200000000000000000000000000000000000000000602082015250565b6000613c4b602c8361327a565b9150613c5682613bef565b602c82019050919050565b7f7b2274726169745f74797065223a20224772616469656e74222c202276616c7560008201527f65223a2022000000000000000000000000000000000000000000000000000000602082015250565b6000613cbd60258361327a565b9150613cc882613c61565b602582019050919050565b7f227d2c0000000000000000000000000000000000000000000000000000000000815250565b7f7b2274726169745f74797065223a20225072696d61727920436f6c6f72222c2060008201527f2276616c7565223a202200000000000000000000000000000000000000000000602082015250565b6000613d55602a8361327a565b9150613d6082613cf9565b602a82019050919050565b7f227d000000000000000000000000000000000000000000000000000000000000815250565b6000613d9c82613abf565b600f82019150613dab82613b34565b9150613db782886132d1565b9150613dc282613b57565b600282019150613dd182613bcc565b9150613ddd82876132d1565b9150613de882613b57565b600282019150613df782613c3e565b9150613e0382866132d1565b9150613e0e82613b57565b600282019150613e1d82613cb0565b9150613e2982856132d1565b9150613e3482613cd3565b600382019150613e4382613d48565b9150613e4f82846132d1565b9150613e5a82613d6b565b6002820191508190509695505050505050565b7f2c7b2274726169745f74797065223a20225365636f6e6461727920436f6c6f7260008201527f222c202276616c7565223a202200000000000000000000000000000000000000602082015250565b6000613ec9602d8361327a565b9150613ed482613e6d565b602d82019050919050565b6000613eeb82856132d1565b9150613ef682613ebc565b9150613f0282846132d1565b9150613f0d82613d6b565b6002820191508190509392505050565b7f2c7b2274726169745f74797065223a202248616c6f222c202276616c7565223a60008201527f2022596573227d00000000000000000000000000000000000000000000000000602082015250565b6000613f7960278361327a565b9150613f8482613f1d565b602782019050919050565b6000613f9b82846132d1565b9150613fa682613f6c565b915081905092915050565b7f5d00000000000000000000000000000000000000000000000000000000000000815250565b6000613fe382846132d1565b9150613fee82613fb1565b60018201915081905092915050565b7f7b226e616d65223a220000000000000000000000000000000000000000000000600082015250565b600061403360098361327a565b915061403e82613ffd565b600982019050919050565b7f222c226465736372697074696f6e223a22000000000000000000000000000000600082015250565b600061407f60118361327a565b915061408a82614049565b601182019050919050565b7f222c000000000000000000000000000000000000000000000000000000000000600082015250565b60006140cb60028361327a565b91506140d682614095565b600282019050919050565b7f2c2022696d616765223a2022646174613a696d6167652f7376672b786d6c3b6260008201527f61736536342c0000000000000000000000000000000000000000000000000000602082015250565b600061413d60268361327a565b9150614148826140e1565b602682019050919050565b7f227d000000000000000000000000000000000000000000000000000000000000600082015250565b600061418960028361327a565b915061419482614153565b600282019050919050565b60006141aa82614026565b91506141b682876132d1565b91506141c182614072565b91506141cd82866132d1565b91506141d8826140be565b91506141e482856132d1565b91506141ef82614130565b91506141fb82846132d1565b91506142068261417c565b915081905095945050505050565b7f646174613a6170706c69636174696f6e2f6a736f6e3b6261736536342c000000600082015250565b600061424a601d8361327a565b915061425582614214565b601d82019050919050565b600061426b8261423d565b915061427782846132d1565b915081905092915050565b7f5075626c69632073616c6520686173206e6f7420737461727465642079657400600082015250565b60006142b8601f83612816565b91506142c382614282565b602082019050919050565b600060208201905081810360008301526142e7816142ab565b9050919050565b7f4f776e61626c653a206e6577206f776e657220697320746865207a65726f206160008201527f6464726573730000000000000000000000000000000000000000000000000000602082015250565b600061434a602683612816565b9150614355826142ee565b604082019050919050565b600060208201905081810360008301526143798161433d565b9050919050565b7f596f7520617265206e6f74206f6e2074686520616c6c6f776c69737400000000600082015250565b60006143b6601c83612816565b91506143c182614380565b602082019050919050565b600060208201905081810360008301526143e5816143a9565b9050919050565b7f416c6c6f776c6973742073616c6520686173206e6f742073746172746564207960008201527f6574000000000000000000000000000000000000000000000000000000000000602082015250565b6000614448602283612816565b9150614453826143ec565b604082019050919050565b600060208201905081810360008301526144778161443b565b9050919050565b7f4f776e61626c653a2063616c6c6572206973206e6f7420746865206f776e6572600082015250565b60006144b4602083612816565b91506144bf8261447e565b602082019050919050565b600060208201905081810360008301526144e3816144a7565b9050919050565b600081519050919050565b600082825260208201905092915050565b6000614511826144ea565b61451b81856144f5565b935061452b818560208601612827565b61453481612851565b840191505092915050565b60006080820190506145546000830187612952565b6145616020830186612952565b61456e6040830185612a15565b81810360608301526145808184614506565b905095945050505050565b60008151905061459a8161277c565b92915050565b6000602082840312156145b6576145b5612746565b5b60006145c48482850161458b565b91505092915050565b7f4e487b7100000000000000000000000000000000000000000000000000000000600052601260045260246000fd5b6000614607826128bd565b9150614612836128bd565b925082614622576146216145cd565b5b828204905092915050565b600060ff82169050919050565b60006146458261462d565b91506146508361462d565b9250828201905060ff81111561466957614668613043565b5b92915050565b7f496e73756666696369656e742066656500000000000000000000000000000000600082015250565b60006146a5601083612816565b91506146b08261466f565b602082019050919050565b600060208201905081810360008301526146d481614698565b9050919050565b7f45786365656473206d6178207175616e74697479000000000000000000000000600082015250565b6000614711601483612816565b915061471c826146db565b602082019050919050565b6000602082019050818103600083015261474081614704565b9050919050565b600081905092915050565b50565b6000614762600083614747565b915061476d82614752565b600082019050919050565b600061478382614755565b9150819050919050565b7f526566756e64206661696c656400000000000000000000000000000000000000600082015250565b60006147c3600d83612816565b91506147ce8261478d565b602082019050919050565b600060208201905081810360008301526147f2816147b6565b905091905056fe4142434445464748494a4b4c4d4e4f505152535455565758595a6162636465666768696a6b6c6d6e6f707172737475767778797a303132333435363738392b2f46756c6c79206f6e2d636861696e2c2070726f6365647572616c6c792067656e6572617465642c20616e696d61746564206b616c6569646f73636f7065732ea264697066735822122052abef236944e932101b30fe89aa13017f608c9ba9c850189986d5776b62cea064736f6c63430008100033",
  "libraries": {
    "utils": "0x8C7EA5ce359a9FeB86b7D74Cc1c99D8718A4830f",
    "Trigonometry": "0x9F9eE8D726e50C58a0034f54C3985a1F7fd73563"
  },
  "devdoc": {
    "kind": "dev",
    "methods": {
      "airdrop(address[],uint256)": {
        "params": {
          "_quantity": "Quantity of tokens to airdrop to each recipient.",
          "_recipients": "List of recipients to receive the airdrop."
        }
      },
      "allowListed(address,bytes32[])": {
        "params": {
          "_proof": "Merkle proof.",
          "_wallet": "Wallet to check."
        }
      },
      "approve(address,uint256)": {
        "details": "Gives permission to `to` to transfer `tokenId` token to another account. The approval is cleared when the token is transferred. Only a single account can be approved at a time, so approving the zero address clears previous approvals. Requirements: - The caller must own the token or be an approved operator. - `tokenId` must exist. Emits an {Approval} event."
      },
      "balanceOf(address)": {
        "details": "Returns the number of tokens in `owner`'s account."
      },
      "constructor": {
        "details": "Constructs a new instance of the contract.",
        "params": {
          "_maxSupply": "Maximum supply of tokens.",
          "_name": "Name of the ERC721 token.",
          "_price": "Price of each token in wei.",
          "_symbol": "Symbol of the ERC721 token."
        }
      },
      "getApproved(uint256)": {
        "details": "Returns the account approved for `tokenId` token. Requirements: - `tokenId` must exist."
      },
      "isApprovedForAll(address,address)": {
        "details": "Returns if the `operator` is allowed to manage all of the assets of `owner`. See {setApprovalForAll}."
      },
      "mintAllowList(uint256,bytes32[])": {
        "params": {
          "_proof": "Merkle proof.",
          "_quantity": "Quantity of tokens to mint."
        }
      },
      "mintPublic(uint256)": {
        "params": {
          "_quantity": "Quantity of tokens to mint."
        }
      },
      "name()": {
        "details": "Returns the token collection name."
      },
      "owner()": {
        "details": "Returns the address of the current owner."
      },
      "ownerOf(uint256)": {
        "details": "Returns the owner of the `tokenId` token. Requirements: - `tokenId` must exist."
      },
      "renounceOwnership()": {
        "details": "Leaves the contract without owner. It will not be possible to call `onlyOwner` functions anymore. Can only be called by the current owner. NOTE: Renouncing ownership will leave the contract without an owner, thereby removing any functionality that is only available to the owner."
      },
      "safeTransferFrom(address,address,uint256)": {
        "details": "Equivalent to `safeTransferFrom(from, to, tokenId, '')`."
      },
      "safeTransferFrom(address,address,uint256,bytes)": {
        "details": "Safely transfers `tokenId` token from `from` to `to`. Requirements: - `from` cannot be the zero address. - `to` cannot be the zero address. - `tokenId` token must exist and be owned by `from`. - If the caller is not `from`, it must be approved to move this token by either {approve} or {setApprovalForAll}. - If `to` refers to a smart contract, it must implement {IERC721Receiver-onERC721Received}, which is called upon a safe transfer. Emits a {Transfer} event."
      },
      "setAllowListMintStartBlock(uint256)": {
        "params": {
          "_allowListMintStartBlock": "Block at which the allowlist mint starts."
        }
      },
      "setApprovalForAll(address,bool)": {
        "details": "Approve or remove `operator` as an operator for the caller. Operators can call {transferFrom} or {safeTransferFrom} for any token owned by the caller. Requirements: - The `operator` cannot be the caller. Emits an {ApprovalForAll} event."
      },
      "setPrice(uint256)": {
        "params": {
          "_price": "Price of each token in wei."
        }
      },
      "setPublicMintOffsetBlocks(uint256)": {
        "params": {
          "_publicMintOffsetBlocks": "Number of blocks."
        }
      },
      "supportsInterface(bytes4)": {
        "details": "Returns true if this contract implements the interface defined by `interfaceId`. See the corresponding [EIP section](https://eips.ethereum.org/EIPS/eip-165#how-interfaces-are-identified) to learn more about how these ids are created. This function call must use less than 30000 gas."
      },
      "symbol()": {
        "details": "Returns the token collection symbol."
      },
      "tokenURI(uint256)": {
        "params": {
          "_tokenId": "ID of the token to get the URI for."
        },
        "returns": {
          "_0": "Token URI."
        }
      },
      "totalSupply()": {
        "details": "Returns the total number of tokens in existence. Burned tokens will reduce the count. To get the total number of tokens minted, please see {_totalMinted}."
      },
      "transferFrom(address,address,uint256)": {
        "details": "Transfers `tokenId` from `from` to `to`. Requirements: - `from` cannot be the zero address. - `to` cannot be the zero address. - `tokenId` token must be owned by `from`. - If the caller is not `from`, it must be approved to move this token by either {approve} or {setApprovalForAll}. Emits a {Transfer} event."
      },
      "transferOwnership(address)": {
        "details": "Transfers ownership of the contract to a new account (`newOwner`). Can only be called by the current owner."
      }
    },
    "version": 1
  },
  "userdoc": {
    "errors": {
      "ApprovalCallerNotOwnerNorApproved()": [
        {
          "notice": "The caller must own the token or be an approved operator."
        }
      ],
      "ApprovalQueryForNonexistentToken()": [
        {
          "notice": "The token does not exist."
        }
      ],
      "BalanceQueryForZeroAddress()": [
        {
          "notice": "Cannot query the balance for the zero address."
        }
      ],
      "MintERC2309QuantityExceedsLimit()": [
        {
          "notice": "The `quantity` minted with ERC2309 exceeds the safety limit."
        }
      ],
      "MintToZeroAddress()": [
        {
          "notice": "Cannot mint to the zero address."
        }
      ],
      "MintZeroQuantity()": [
        {
          "notice": "The quantity of tokens minted must be more than zero."
        }
      ],
      "OwnerQueryForNonexistentToken()": [
        {
          "notice": "The token does not exist."
        }
      ],
      "OwnershipNotInitializedForExtraData()": [
        {
          "notice": "The `extraData` cannot be set on an unintialized ownership slot."
        }
      ],
      "TransferCallerNotOwnerNorApproved()": [
        {
          "notice": "The caller must own the token or be an approved operator."
        }
      ],
      "TransferFromIncorrectOwner()": [
        {
          "notice": "The token must be owned by `from`."
        }
      ],
      "TransferToNonERC721ReceiverImplementer()": [
        {
          "notice": "Cannot safely transfer to a contract that does not implement the ERC721Receiver interface."
        }
      ],
      "TransferToZeroAddress()": [
        {
          "notice": "Cannot transfer to the zero address."
        }
      ],
      "URIQueryForNonexistentToken()": [
        {
          "notice": "The token does not exist."
        }
      ]
    },
    "kind": "user",
    "methods": {
      "airdrop(address[],uint256)": {
        "notice": "Airdrops tokens to a list of recipients. Only callable by the contract owner."
      },
      "allowListed(address,bytes32[])": {
        "notice": "Checks if a wallet is on the allowlist given a Merkle proof."
      },
      "hasAllowlistSaleStarted()": {
        "notice": "Checks if allow list sale has started."
      },
      "hasPublicSaleStarted()": {
        "notice": "Checks if public sale has started."
      },
      "mintAllowList(uint256,bytes32[])": {
        "notice": "Mints tokens for the caller if they are on the allowlist."
      },
      "mintPublic(uint256)": {
        "notice": "Mints tokens for the caller if public sale has started."
      },
      "setAllowListMintStartBlock(uint256)": {
        "notice": "Sets the block at which the allowlist mint starts."
      },
      "setPrice(uint256)": {
        "notice": "Sets the price of each token in wei."
      },
      "setPublicMintOffsetBlocks(uint256)": {
        "notice": "Sets the number of blocks after which the public sale starts."
      },
      "tokenURI(uint256)": {
        "notice": "Returns the token URI for a given token ID."
      },
      "withdraw()": {
        "notice": "Withdraws the contract's balance. Only callable by the contract owner."
      }
    },
    "version": 1
  },
  "storageLayout": {
    "storage": [
      {
        "astId": 3549,
        "contract": "contracts/Kaleidoscopes.sol:Kaleidoscopes",
        "label": "_currentIndex",
        "offset": 0,
        "slot": "0",
        "type": "t_uint256"
      },
      {
        "astId": 3551,
        "contract": "contracts/Kaleidoscopes.sol:Kaleidoscopes",
        "label": "_burnCounter",
        "offset": 0,
        "slot": "1",
        "type": "t_uint256"
      },
      {
        "astId": 3553,
        "contract": "contracts/Kaleidoscopes.sol:Kaleidoscopes",
        "label": "_name",
        "offset": 0,
        "slot": "2",
        "type": "t_string_storage"
      },
      {
        "astId": 3555,
        "contract": "contracts/Kaleidoscopes.sol:Kaleidoscopes",
        "label": "_symbol",
        "offset": 0,
        "slot": "3",
        "type": "t_string_storage"
      },
      {
        "astId": 3559,
        "contract": "contracts/Kaleidoscopes.sol:Kaleidoscopes",
        "label": "_packedOwnerships",
        "offset": 0,
        "slot": "4",
        "type": "t_mapping(t_uint256,t_uint256)"
      },
      {
        "astId": 3563,
        "contract": "contracts/Kaleidoscopes.sol:Kaleidoscopes",
        "label": "_packedAddressData",
        "offset": 0,
        "slot": "5",
        "type": "t_mapping(t_address,t_uint256)"
      },
      {
        "astId": 3568,
        "contract": "contracts/Kaleidoscopes.sol:Kaleidoscopes",
        "label": "_tokenApprovals",
        "offset": 0,
        "slot": "6",
        "type": "t_mapping(t_uint256,t_struct(TokenApprovalRef)3481_storage)"
      },
      {
        "astId": 3574,
        "contract": "contracts/Kaleidoscopes.sol:Kaleidoscopes",
        "label": "_operatorApprovals",
        "offset": 0,
        "slot": "7",
        "type": "t_mapping(t_address,t_mapping(t_address,t_bool))"
      },
      {
        "astId": 7,
        "contract": "contracts/Kaleidoscopes.sol:Kaleidoscopes",
        "label": "_owner",
        "offset": 0,
        "slot": "8",
        "type": "t_address"
      },
      {
        "astId": 652,
        "contract": "contracts/Kaleidoscopes.sol:Kaleidoscopes",
        "label": "price",
        "offset": 0,
        "slot": "9",
        "type": "t_uint256"
      },
      {
        "astId": 654,
        "contract": "contracts/Kaleidoscopes.sol:Kaleidoscopes",
        "label": "maxSupply",
        "offset": 0,
        "slot": "10",
        "type": "t_uint256"
      },
      {
        "astId": 660,
        "contract": "contracts/Kaleidoscopes.sol:Kaleidoscopes",
        "label": "renderer",
        "offset": 0,
        "slot": "11",
        "type": "t_contract(Renderer)2786"
      },
      {
        "astId": 662,
        "contract": "contracts/Kaleidoscopes.sol:Kaleidoscopes",
        "label": "merkleRoot",
        "offset": 0,
        "slot": "12",
        "type": "t_bytes32"
      },
      {
        "astId": 664,
        "contract": "contracts/Kaleidoscopes.sol:Kaleidoscopes",
        "label": "allowListMintStartBlock",
        "offset": 0,
        "slot": "13",
        "type": "t_uint256"
      },
      {
        "astId": 666,
        "contract": "contracts/Kaleidoscopes.sol:Kaleidoscopes",
        "label": "publicMintOffsetBlocks",
        "offset": 0,
        "slot": "14",
        "type": "t_uint256"
      }
    ],
    "types": {
      "t_address": {
        "encoding": "inplace",
        "label": "address",
        "numberOfBytes": "20"
      },
      "t_bool": {
        "encoding": "inplace",
        "label": "bool",
        "numberOfBytes": "1"
      },
      "t_bytes32": {
        "encoding": "inplace",
        "label": "bytes32",
        "numberOfBytes": "32"
      },
      "t_contract(Renderer)2786": {
        "encoding": "inplace",
        "label": "contract Renderer",
        "numberOfBytes": "20"
      },
      "t_mapping(t_address,t_bool)": {
        "encoding": "mapping",
        "key": "t_address",
        "label": "mapping(address => bool)",
        "numberOfBytes": "32",
        "value": "t_bool"
      },
      "t_mapping(t_address,t_mapping(t_address,t_bool))": {
        "encoding": "mapping",
        "key": "t_address",
        "label": "mapping(address => mapping(address => bool))",
        "numberOfBytes": "32",
        "value": "t_mapping(t_address,t_bool)"
      },
      "t_mapping(t_address,t_uint256)": {
        "encoding": "mapping",
        "key": "t_address",
        "label": "mapping(address => uint256)",
        "numberOfBytes": "32",
        "value": "t_uint256"
      },
      "t_mapping(t_uint256,t_struct(TokenApprovalRef)3481_storage)": {
        "encoding": "mapping",
        "key": "t_uint256",
        "label": "mapping(uint256 => struct ERC721A.TokenApprovalRef)",
        "numberOfBytes": "32",
        "value": "t_struct(TokenApprovalRef)3481_storage"
      },
      "t_mapping(t_uint256,t_uint256)": {
        "encoding": "mapping",
        "key": "t_uint256",
        "label": "mapping(uint256 => uint256)",
        "numberOfBytes": "32",
        "value": "t_uint256"
      },
      "t_string_storage": {
        "encoding": "bytes",
        "label": "string",
        "numberOfBytes": "32"
      },
      "t_struct(TokenApprovalRef)3481_storage": {
        "encoding": "inplace",
        "label": "struct ERC721A.TokenApprovalRef",
        "members": [
          {
            "astId": 3480,
            "contract": "contracts/Kaleidoscopes.sol:Kaleidoscopes",
            "label": "value",
            "offset": 0,
            "slot": "0",
            "type": "t_address"
          }
        ],
        "numberOfBytes": "32"
      },
      "t_uint256": {
        "encoding": "inplace",
        "label": "uint256",
        "numberOfBytes": "32"
      }
    }
  }
}