{
  "address": "0xE65B7B4E3DBF0Bb312E4F041E566C35203932829",
  "abi": [
    {
      "inputs": [
        {
          "internalType": "string",
          "name": "_name",
          "type": "string"
        },
        {
          "internalType": "string",
          "name": "_symbol",
          "type": "string"
        },
        {
          "internalType": "uint256",
          "name": "_price",
          "type": "uint256"
        },
        {
          "internalType": "uint256",
          "name": "_maxSupply",
          "type": "uint256"
        },
        {
          "internalType": "bytes32",
          "name": "_merkleRoot",
          "type": "bytes32"
        },
        {
          "internalType": "uint256",
          "name": "_allowListMintStartBlock",
          "type": "uint256"
        },
        {
          "internalType": "uint256",
          "name": "_publicMintOffsetBlocks",
          "type": "uint256"
        },
        {
          "internalType": "address",
          "name": "_renderer",
          "type": "address"
        }
      ],
      "stateMutability": "nonpayable",
      "type": "constructor"
    },
    {
      "inputs": [],
      "name": "ApprovalCallerNotOwnerNorApproved",
      "type": "error"
    },
    {
      "inputs": [],
      "name": "ApprovalQueryForNonexistentToken",
      "type": "error"
    },
    {
      "inputs": [],
      "name": "BalanceQueryForZeroAddress",
      "type": "error"
    },
    {
      "inputs": [],
      "name": "MintERC2309QuantityExceedsLimit",
      "type": "error"
    },
    {
      "inputs": [],
      "name": "MintToZeroAddress",
      "type": "error"
    },
    {
      "inputs": [],
      "name": "MintZeroQuantity",
      "type": "error"
    },
    {
      "inputs": [],
      "name": "OwnerQueryForNonexistentToken",
      "type": "error"
    },
    {
      "inputs": [],
      "name": "OwnershipNotInitializedForExtraData",
      "type": "error"
    },
    {
      "inputs": [],
      "name": "TransferCallerNotOwnerNorApproved",
      "type": "error"
    },
    {
      "inputs": [],
      "name": "TransferFromIncorrectOwner",
      "type": "error"
    },
    {
      "inputs": [],
      "name": "TransferToNonERC721ReceiverImplementer",
      "type": "error"
    },
    {
      "inputs": [],
      "name": "TransferToZeroAddress",
      "type": "error"
    },
    {
      "inputs": [],
      "name": "URIQueryForNonexistentToken",
      "type": "error"
    },
    {
      "anonymous": false,
      "inputs": [
        {
          "indexed": true,
          "internalType": "address",
          "name": "owner",
          "type": "address"
        },
        {
          "indexed": true,
          "internalType": "address",
          "name": "approved",
          "type": "address"
        },
        {
          "indexed": true,
          "internalType": "uint256",
          "name": "tokenId",
          "type": "uint256"
        }
      ],
      "name": "Approval",
      "type": "event"
    },
    {
      "anonymous": false,
      "inputs": [
        {
          "indexed": true,
          "internalType": "address",
          "name": "owner",
          "type": "address"
        },
        {
          "indexed": true,
          "internalType": "address",
          "name": "operator",
          "type": "address"
        },
        {
          "indexed": false,
          "internalType": "bool",
          "name": "approved",
          "type": "bool"
        }
      ],
      "name": "ApprovalForAll",
      "type": "event"
    },
    {
      "anonymous": false,
      "inputs": [
        {
          "indexed": true,
          "internalType": "uint256",
          "name": "fromTokenId",
          "type": "uint256"
        },
        {
          "indexed": false,
          "internalType": "uint256",
          "name": "toTokenId",
          "type": "uint256"
        },
        {
          "indexed": true,
          "internalType": "address",
          "name": "from",
          "type": "address"
        },
        {
          "indexed": true,
          "internalType": "address",
          "name": "to",
          "type": "address"
        }
      ],
      "name": "ConsecutiveTransfer",
      "type": "event"
    },
    {
      "anonymous": false,
      "inputs": [
        {
          "indexed": true,
          "internalType": "address",
          "name": "previousOwner",
          "type": "address"
        },
        {
          "indexed": true,
          "internalType": "address",
          "name": "newOwner",
          "type": "address"
        }
      ],
      "name": "OwnershipTransferred",
      "type": "event"
    },
    {
      "anonymous": false,
      "inputs": [
        {
          "indexed": true,
          "internalType": "address",
          "name": "from",
          "type": "address"
        },
        {
          "indexed": true,
          "internalType": "address",
          "name": "to",
          "type": "address"
        },
        {
          "indexed": true,
          "internalType": "uint256",
          "name": "tokenId",
          "type": "uint256"
        }
      ],
      "name": "Transfer",
      "type": "event"
    },
    {
      "inputs": [
        {
          "internalType": "address[]",
          "name": "_recipients",
          "type": "address[]"
        },
        {
          "internalType": "uint256",
          "name": "_quantity",
          "type": "uint256"
        }
      ],
      "name": "airdrop",
      "outputs": [],
      "stateMutability": "payable",
      "type": "function"
    },
    {
      "inputs": [],
      "name": "allowListMintStartBlock",
      "outputs": [
        {
          "internalType": "uint256",
          "name": "",
          "type": "uint256"
        }
      ],
      "stateMutability": "view",
      "type": "function"
    },
    {
      "inputs": [
        {
          "internalType": "address",
          "name": "_wallet",
          "type": "address"
        },
        {
          "internalType": "bytes32[]",
          "name": "_proof",
          "type": "bytes32[]"
        }
      ],
      "name": "allowListed",
      "outputs": [
        {
          "internalType": "bool",
          "name": "",
          "type": "bool"
        }
      ],
      "stateMutability": "view",
      "type": "function"
    },
    {
      "inputs": [
        {
          "internalType": "address",
          "name": "to",
          "type": "address"
        },
        {
          "internalType": "uint256",
          "name": "tokenId",
          "type": "uint256"
        }
      ],
      "name": "approve",
      "outputs": [],
      "stateMutability": "payable",
      "type": "function"
    },
    {
      "inputs": [
        {
          "internalType": "address",
          "name": "owner",
          "type": "address"
        }
      ],
      "name": "balanceOf",
      "outputs": [
        {
          "internalType": "uint256",
          "name": "",
          "type": "uint256"
        }
      ],
      "stateMutability": "view",
      "type": "function"
    },
    {
      "inputs": [
        {
          "internalType": "uint256",
          "name": "tokenId",
          "type": "uint256"
        }
      ],
      "name": "getApproved",
      "outputs": [
        {
          "internalType": "address",
          "name": "",
          "type": "address"
        }
      ],
      "stateMutability": "view",
      "type": "function"
    },
    {
      "inputs": [],
      "name": "hasAllowlistSaleStarted",
      "outputs": [
        {
          "internalType": "bool",
          "name": "",
          "type": "bool"
        }
      ],
      "stateMutability": "view",
      "type": "function"
    },
    {
      "inputs": [],
      "name": "hasPublicSaleStarted",
      "outputs": [
        {
          "internalType": "bool",
          "name": "",
          "type": "bool"
        }
      ],
      "stateMutability": "view",
      "type": "function"
    },
    {
      "inputs": [
        {
          "internalType": "address",
          "name": "owner",
          "type": "address"
        },
        {
          "internalType": "address",
          "name": "operator",
          "type": "address"
        }
      ],
      "name": "isApprovedForAll",
      "outputs": [
        {
          "internalType": "bool",
          "name": "",
          "type": "bool"
        }
      ],
      "stateMutability": "view",
      "type": "function"
    },
    {
      "inputs": [],
      "name": "maxMintPerWallet",
      "outputs": [
        {
          "internalType": "uint256",
          "name": "",
          "type": "uint256"
        }
      ],
      "stateMutability": "view",
      "type": "function"
    },
    {
      "inputs": [],
      "name": "maxSupply",
      "outputs": [
        {
          "internalType": "uint256",
          "name": "",
          "type": "uint256"
        }
      ],
      "stateMutability": "view",
      "type": "function"
    },
    {
      "inputs": [],
      "name": "merkleRoot",
      "outputs": [
        {
          "internalType": "bytes32",
          "name": "",
          "type": "bytes32"
        }
      ],
      "stateMutability": "view",
      "type": "function"
    },
    {
      "inputs": [
        {
          "internalType": "uint256",
          "name": "_quantity",
          "type": "uint256"
        },
        {
          "internalType": "bytes32[]",
          "name": "_proof",
          "type": "bytes32[]"
        }
      ],
      "name": "mintAllowList",
      "outputs": [],
      "stateMutability": "payable",
      "type": "function"
    },
    {
      "inputs": [
        {
          "internalType": "uint256",
          "name": "_quantity",
          "type": "uint256"
        }
      ],
      "name": "mintPublic",
      "outputs": [],
      "stateMutability": "payable",
      "type": "function"
    },
    {
      "inputs": [
        {
          "internalType": "address",
          "name": "_wallet",
          "type": "address"
        }
      ],
      "name": "mintQuotaRemaining",
      "outputs": [
        {
          "internalType": "uint256",
          "name": "",
          "type": "uint256"
        }
      ],
      "stateMutability": "view",
      "type": "function"
    },
    {
      "inputs": [],
      "name": "name",
      "outputs": [
        {
          "internalType": "string",
          "name": "",
          "type": "string"
        }
      ],
      "stateMutability": "view",
      "type": "function"
    },
    {
      "inputs": [],
      "name": "owner",
      "outputs": [
        {
          "internalType": "address",
          "name": "",
          "type": "address"
        }
      ],
      "stateMutability": "view",
      "type": "function"
    },
    {
      "inputs": [
        {
          "internalType": "uint256",
          "name": "tokenId",
          "type": "uint256"
        }
      ],
      "name": "ownerOf",
      "outputs": [
        {
          "internalType": "address",
          "name": "",
          "type": "address"
        }
      ],
      "stateMutability": "view",
      "type": "function"
    },
    {
      "inputs": [],
      "name": "price",
      "outputs": [
        {
          "internalType": "uint256",
          "name": "",
          "type": "uint256"
        }
      ],
      "stateMutability": "view",
      "type": "function"
    },
    {
      "inputs": [],
      "name": "publicMintOffsetBlocks",
      "outputs": [
        {
          "internalType": "uint256",
          "name": "",
          "type": "uint256"
        }
      ],
      "stateMutability": "view",
      "type": "function"
    },
    {
      "inputs": [],
      "name": "renderer",
      "outputs": [
        {
          "internalType": "contract Renderer",
          "name": "",
          "type": "address"
        }
      ],
      "stateMutability": "view",
      "type": "function"
    },
    {
      "inputs": [],
      "name": "renounceOwnership",
      "outputs": [],
      "stateMutability": "nonpayable",
      "type": "function"
    },
    {
      "inputs": [
        {
          "internalType": "address",
          "name": "from",
          "type": "address"
        },
        {
          "internalType": "address",
          "name": "to",
          "type": "address"
        },
        {
          "internalType": "uint256",
          "name": "tokenId",
          "type": "uint256"
        }
      ],
      "name": "safeTransferFrom",
      "outputs": [],
      "stateMutability": "payable",
      "type": "function"
    },
    {
      "inputs": [
        {
          "internalType": "address",
          "name": "from",
          "type": "address"
        },
        {
          "internalType": "address",
          "name": "to",
          "type": "address"
        },
        {
          "internalType": "uint256",
          "name": "tokenId",
          "type": "uint256"
        },
        {
          "internalType": "bytes",
          "name": "_data",
          "type": "bytes"
        }
      ],
      "name": "safeTransferFrom",
      "outputs": [],
      "stateMutability": "payable",
      "type": "function"
    },
    {
      "inputs": [
        {
          "internalType": "uint256",
          "name": "_allowListMintStartBlock",
          "type": "uint256"
        }
      ],
      "name": "setAllowListMintStartBlock",
      "outputs": [],
      "stateMutability": "nonpayable",
      "type": "function"
    },
    {
      "inputs": [
        {
          "internalType": "address",
          "name": "operator",
          "type": "address"
        },
        {
          "internalType": "bool",
          "name": "approved",
          "type": "bool"
        }
      ],
      "name": "setApprovalForAll",
      "outputs": [],
      "stateMutability": "nonpayable",
      "type": "function"
    },
    {
      "inputs": [
        {
          "internalType": "uint256",
          "name": "_price",
          "type": "uint256"
        }
      ],
      "name": "setPrice",
      "outputs": [],
      "stateMutability": "nonpayable",
      "type": "function"
    },
    {
      "inputs": [
        {
          "internalType": "uint256",
          "name": "_publicMintOffsetBlocks",
          "type": "uint256"
        }
      ],
      "name": "setPublicMintOffsetBlocks",
      "outputs": [],
      "stateMutability": "nonpayable",
      "type": "function"
    },
    {
      "inputs": [
        {
          "internalType": "bytes4",
          "name": "interfaceId",
          "type": "bytes4"
        }
      ],
      "name": "supportsInterface",
      "outputs": [
        {
          "internalType": "bool",
          "name": "",
          "type": "bool"
        }
      ],
      "stateMutability": "view",
      "type": "function"
    },
    {
      "inputs": [],
      "name": "symbol",
      "outputs": [
        {
          "internalType": "string",
          "name": "",
          "type": "string"
        }
      ],
      "stateMutability": "view",
      "type": "function"
    },
    {
      "inputs": [
        {
          "internalType": "uint256",
          "name": "_tokenId",
          "type": "uint256"
        }
      ],
      "name": "tokenURI",
      "outputs": [
        {
          "internalType": "string",
          "name": "",
          "type": "string"
        }
      ],
      "stateMutability": "view",
      "type": "function"
    },
    {
      "inputs": [],
      "name": "totalSupply",
      "outputs": [
        {
          "internalType": "uint256",
          "name": "",
          "type": "uint256"
        }
      ],
      "stateMutability": "view",
      "type": "function"
    },
    {
      "inputs": [
        {
          "internalType": "address",
          "name": "from",
          "type": "address"
        },
        {
          "internalType": "address",
          "name": "to",
          "type": "address"
        },
        {
          "internalType": "uint256",
          "name": "tokenId",
          "type": "uint256"
        }
      ],
      "name": "transferFrom",
      "outputs": [],
      "stateMutability": "payable",
      "type": "function"
    },
    {
      "inputs": [
        {
          "internalType": "address",
          "name": "newOwner",
          "type": "address"
        }
      ],
      "name": "transferOwnership",
      "outputs": [],
      "stateMutability": "nonpayable",
      "type": "function"
    },
    {
      "inputs": [],
      "name": "withdraw",
      "outputs": [],
      "stateMutability": "nonpayable",
      "type": "function"
    }
  ],
  "transactionHash": "0xfeef5926e1ca614f649024403a3330d2959d8399927e3336aad1bd225c4f232f",
  "args": [
    "Test",
    "TEST",
    "10000000000000000",
    1000,
    "0x1a803dbdfb3d0c0c775bc03f7e858f42eac3ccf7aae62a18b498e8dcced2b224",
    8304455,
    4,
    "0x52F6843a9Db9b2B05702700c23fD21a6260A7f0E"
  ],
  "numDeployments": 9,
  "solcInputHash": "c0ad85ee32c92d80b903723706590c34",
  "bytecode": "0x60806040523480156200001157600080fd5b50604051620051363803806200513683398181016040528101906200003791906200044c565b878781600290816200004a919062000794565b5080600390816200005c919062000794565b506200006d6200010760201b60201c565b600081905550505062000095620000896200011060201b60201c565b6200011860201b60201c565b8560098190555084600a8190555083600c8190555082600d8190555081600e8190555080600b60006101000a81548173ffffffffffffffffffffffffffffffffffffffff021916908373ffffffffffffffffffffffffffffffffffffffff16021790555050505050505050506200087b565b60006001905090565b600033905090565b6000600860009054906101000a900473ffffffffffffffffffffffffffffffffffffffff16905081600860006101000a81548173ffffffffffffffffffffffffffffffffffffffff021916908373ffffffffffffffffffffffffffffffffffffffff1602179055508173ffffffffffffffffffffffffffffffffffffffff168173ffffffffffffffffffffffffffffffffffffffff167f8be0079c531659141344cd1fd0a4f28419497f9722a3daafe3b4186f6b6457e060405160405180910390a35050565b6000604051905090565b600080fd5b600080fd5b600080fd5b600080fd5b6000601f19601f8301169050919050565b7f4e487b7100000000000000000000000000000000000000000000000000000000600052604160045260246000fd5b6200024782620001fc565b810181811067ffffffffffffffff821117156200026957620002686200020d565b5b80604052505050565b60006200027e620001de565b90506200028c82826200023c565b919050565b600067ffffffffffffffff821115620002af57620002ae6200020d565b5b620002ba82620001fc565b9050602081019050919050565b60005b83811015620002e7578082015181840152602081019050620002ca565b60008484015250505050565b60006200030a620003048462000291565b62000272565b905082815260208101848484011115620003295762000328620001f7565b5b62000336848285620002c7565b509392505050565b600082601f830112620003565762000355620001f2565b5b815162000368848260208601620002f3565b91505092915050565b6000819050919050565b620003868162000371565b81146200039257600080fd5b50565b600081519050620003a6816200037b565b92915050565b6000819050919050565b620003c181620003ac565b8114620003cd57600080fd5b50565b600081519050620003e181620003b6565b92915050565b600073ffffffffffffffffffffffffffffffffffffffff82169050919050565b60006200041482620003e7565b9050919050565b620004268162000407565b81146200043257600080fd5b50565b60008151905062000446816200041b565b92915050565b600080600080600080600080610100898b03121562000470576200046f620001e8565b5b600089015167ffffffffffffffff811115620004915762000490620001ed565b5b6200049f8b828c016200033e565b985050602089015167ffffffffffffffff811115620004c357620004c2620001ed565b5b620004d18b828c016200033e565b9750506040620004e48b828c0162000395565b9650506060620004f78b828c0162000395565b95505060806200050a8b828c01620003d0565b94505060a06200051d8b828c0162000395565b93505060c0620005308b828c0162000395565b92505060e0620005438b828c0162000435565b9150509295985092959890939650565b600081519050919050565b7f4e487b7100000000000000000000000000000000000000000000000000000000600052602260045260246000fd5b60006002820490506001821680620005a657607f821691505b602082108103620005bc57620005bb6200055e565b5b50919050565b60008190508160005260206000209050919050565b60006020601f8301049050919050565b600082821b905092915050565b600060088302620006267fffffffffffffffffffffffffffffffffffffffffffffffffffffffffffffffff82620005e7565b620006328683620005e7565b95508019841693508086168417925050509392505050565b6000819050919050565b6000620006756200066f620006698462000371565b6200064a565b62000371565b9050919050565b6000819050919050565b620006918362000654565b620006a9620006a0826200067c565b848454620005f4565b825550505050565b600090565b620006c0620006b1565b620006cd81848462000686565b505050565b5b81811015620006f557620006e9600082620006b6565b600181019050620006d3565b5050565b601f82111562000744576200070e81620005c2565b6200071984620005d7565b8101602085101562000729578190505b620007416200073885620005d7565b830182620006d2565b50505b505050565b600082821c905092915050565b6000620007696000198460080262000749565b1980831691505092915050565b600062000784838362000756565b9150826002028217905092915050565b6200079f8262000553565b67ffffffffffffffff811115620007bb57620007ba6200020d565b5b620007c782546200058d565b620007d4828285620006f9565b600060209050601f8311600181146200080c5760008415620007f7578287015190505b62000803858262000776565b86555062000873565b601f1984166200081c86620005c2565b60005b8281101562000846578489015182556001820191506020850194506020810190506200081f565b8683101562000866578489015162000862601f89168262000756565b8355505b6001600288020188555050505b505050505050565b6148ab806200088b6000396000f3fe6080604052600436106102045760003560e01c80638da5cb5b11610118578063c87b56dd116100a0578063efd0cbf91161006f578063efd0cbf91461072a578063f2fde38b14610746578063f764561d1461076f578063fa05a65714610798578063fdd4b0f0146107b457610204565b8063c87b56dd1461065a578063d0e59d5a14610697578063d5abeb01146106c2578063e985e9c5146106ed57610204565b8063a22cb465116100e7578063a22cb465146105a3578063afc1cad3146105cc578063b228d925146105f7578063b88d4fde14610622578063c204642c1461063e57610204565b80638da5cb5b146104f957806391b7f5ed1461052457806395d89b411461054d578063a035b1fe1461057857610204565b806323b872dd1161019b57806342842e0e1161016a57806342842e0e146104215780636352211e1461043d57806370a082311461047a578063715018a6146104b75780638ada6b0f146104ce57610204565b806323b872dd14610386578063247155ff146103a25780632eb4a7ab146103df5780633ccfd60b1461040a57610204565b80630bf02d87116101d75780630bf02d87146102ca5780630e2a1448146102f5578063170a78cc1461033257806318160ddd1461035b57610204565b806301ffc9a71461020957806306fdde0314610246578063081812fc14610271578063095ea7b3146102ae575b600080fd5b34801561021557600080fd5b50610230600480360381019061022b91906127a5565b6107df565b60405161023d91906127ed565b60405180910390f35b34801561025257600080fd5b5061025b610871565b6040516102689190612898565b60405180910390f35b34801561027d57600080fd5b50610298600480360381019061029391906128f0565b610903565b6040516102a5919061295e565b60405180910390f35b6102c860048036038101906102c391906129a5565b610982565b005b3480156102d657600080fd5b506102df610ac6565b6040516102ec91906127ed565b60405180910390f35b34801561030157600080fd5b5061031c600480360381019061031791906129e5565b610ad3565b6040516103299190612a21565b60405180910390f35b34801561033e57600080fd5b50610359600480360381019061035491906128f0565b610af1565b005b34801561036757600080fd5b50610370610b03565b60405161037d9190612a21565b60405180910390f35b6103a0600480360381019061039b9190612a3c565b610b1a565b005b3480156103ae57600080fd5b506103c960048036038101906103c49190612af4565b610e3c565b6040516103d691906127ed565b60405180910390f35b3480156103eb57600080fd5b506103f4610ebb565b6040516104019190612b6d565b60405180910390f35b34801561041657600080fd5b5061041f610ec1565b005b61043b60048036038101906104369190612a3c565b610f09565b005b34801561044957600080fd5b50610464600480360381019061045f91906128f0565b610f29565b604051610471919061295e565b60405180910390f35b34801561048657600080fd5b506104a1600480360381019061049c91906129e5565b610f3b565b6040516104ae9190612a21565b60405180910390f35b3480156104c357600080fd5b506104cc610ff3565b005b3480156104da57600080fd5b506104e3611007565b6040516104f09190612be7565b60405180910390f35b34801561050557600080fd5b5061050e61102d565b60405161051b919061295e565b60405180910390f35b34801561053057600080fd5b5061054b600480360381019061054691906128f0565b611057565b005b34801561055957600080fd5b50610562611069565b60405161056f9190612898565b60405180910390f35b34801561058457600080fd5b5061058d6110fb565b60405161059a9190612a21565b60405180910390f35b3480156105af57600080fd5b506105ca60048036038101906105c59190612c2e565b611101565b005b3480156105d857600080fd5b506105e161120c565b6040516105ee9190612a21565b60405180910390f35b34801561060357600080fd5b5061060c611212565b6040516106199190612a21565b60405180910390f35b61063c60048036038101906106379190612d9e565b611217565b005b61065860048036038101906106539190612ee4565b61128a565b005b34801561066657600080fd5b50610681600480360381019061067c91906128f0565b61133d565b60405161068e9190612898565b60405180910390f35b3480156106a357600080fd5b506106ac611877565b6040516106b99190612a21565b60405180910390f35b3480156106ce57600080fd5b506106d761187d565b6040516106e49190612a21565b60405180910390f35b3480156106f957600080fd5b50610714600480360381019061070f9190612f40565b611883565b60405161072191906127ed565b60405180910390f35b610744600480360381019061073f91906128f0565b611917565b005b34801561075257600080fd5b5061076d600480360381019061076891906129e5565b61196a565b005b34801561077b57600080fd5b50610796600480360381019061079191906128f0565b6119ed565b005b6107b260048036038101906107ad9190612f80565b6119ff565b005b3480156107c057600080fd5b506107c9611a9e565b6040516107d691906127ed565b60405180910390f35b60006301ffc9a760e01b827bffffffffffffffffffffffffffffffffffffffffffffffffffffffff1916148061083a57506380ac58cd60e01b827bffffffffffffffffffffffffffffffffffffffffffffffffffffffff1916145b8061086a5750635b5e139f60e01b827bffffffffffffffffffffffffffffffffffffffffffffffffffffffff1916145b9050919050565b6060600280546108809061300f565b80601f01602080910402602001604051908101604052809291908181526020018280546108ac9061300f565b80156108f95780601f106108ce576101008083540402835291602001916108f9565b820191906000526020600020905b8154815290600101906020018083116108dc57829003601f168201915b5050505050905090565b600061090e82611ab8565b610944576040517fcf4700e400000000000000000000000000000000000000000000000000000000815260040160405180910390fd5b6006600083815260200190815260200160002060000160009054906101000a900473ffffffffffffffffffffffffffffffffffffffff169050919050565b600061098d82610f29565b90508073ffffffffffffffffffffffffffffffffffffffff166109ae611b17565b73ffffffffffffffffffffffffffffffffffffffff1614610a11576109da816109d5611b17565b611883565b610a10576040517fcfb3b94200000000000000000000000000000000000000000000000000000000815260040160405180910390fd5b5b826006600084815260200190815260200160002060000160006101000a81548173ffffffffffffffffffffffffffffffffffffffff021916908373ffffffffffffffffffffffffffffffffffffffff160217905550818373ffffffffffffffffffffffffffffffffffffffff168273ffffffffffffffffffffffffffffffffffffffff167f8c5be1e5ebec7d5bd14f71427d1e84f3dd0314c0f7b2291e5b200ac8c7c3b92560405160405180910390a4505050565b6000600d54431015905090565b6000610ade82611b1f565b6014610aea919061306f565b9050919050565b610af9611b76565b80600e8190555050565b6000610b0d611bf4565b6001546000540303905090565b6000610b2582611bfd565b90508373ffffffffffffffffffffffffffffffffffffffff168173ffffffffffffffffffffffffffffffffffffffff1614610b8c576040517fa114810000000000000000000000000000000000000000000000000000000000815260040160405180910390fd5b600080610b9884611cc9565b91509150610bae8187610ba9611b17565b611cf0565b610bfa57610bc386610bbe611b17565b611883565b610bf9576040517f59c896be00000000000000000000000000000000000000000000000000000000815260040160405180910390fd5b5b600073ffffffffffffffffffffffffffffffffffffffff168573ffffffffffffffffffffffffffffffffffffffff1603610c60576040517fea553b3400000000000000000000000000000000000000000000000000000000815260040160405180910390fd5b610c6d8686866001611d34565b8015610c7857600082555b600560008773ffffffffffffffffffffffffffffffffffffffff1673ffffffffffffffffffffffffffffffffffffffff168152602001908152602001600020600081546001900391905081905550600560008673ffffffffffffffffffffffffffffffffffffffff1673ffffffffffffffffffffffffffffffffffffffff1681526020019081526020016000206000815460010191905081905550610d4685610d22888887611d3a565b7c020000000000000000000000000000000000000000000000000000000017611d62565b600460008681526020019081526020016000208190555060007c0200000000000000000000000000000000000000000000000000000000841603610dcc5760006001850190506000600460008381526020019081526020016000205403610dca576000548114610dc9578360046000838152602001908152602001600020819055505b5b505b838573ffffffffffffffffffffffffffffffffffffffff168773ffffffffffffffffffffffffffffffffffffffff167fddf252ad1be2c89b69c2b068fc378daa952ba7f163c4a11628f55a4df523b3ef60405160405180910390a4610e348686866001611d8d565b505050505050565b6000610eb2838380806020026020016040519081016040528093929190818152602001838360200280828437600081840152601f19601f82011690508083019250505050505050600c5486604051602001610e9791906130eb565b60405160208183030381529060405280519060200120611d93565b90509392505050565b600c5481565b610ec9611b76565b3373ffffffffffffffffffffffffffffffffffffffff166108fc479081150290604051600060405180830381858888f19350505050610f0757600080fd5b565b610f2483838360405180602001604052806000815250611217565b505050565b6000610f3482611bfd565b9050919050565b60008073ffffffffffffffffffffffffffffffffffffffff168273ffffffffffffffffffffffffffffffffffffffff1603610fa2576040517f8f4eb60400000000000000000000000000000000000000000000000000000000815260040160405180910390fd5b67ffffffffffffffff600560008473ffffffffffffffffffffffffffffffffffffffff1673ffffffffffffffffffffffffffffffffffffffff16815260200190815260200160002054169050919050565b610ffb611b76565b6110056000611daa565b565b600b60009054906101000a900473ffffffffffffffffffffffffffffffffffffffff1681565b6000600860009054906101000a900473ffffffffffffffffffffffffffffffffffffffff16905090565b61105f611b76565b8060098190555050565b6060600380546110789061300f565b80601f01602080910402602001604051908101604052809291908181526020018280546110a49061300f565b80156110f15780601f106110c6576101008083540402835291602001916110f1565b820191906000526020600020905b8154815290600101906020018083116110d457829003601f168201915b5050505050905090565b60095481565b806007600061110e611b17565b73ffffffffffffffffffffffffffffffffffffffff1673ffffffffffffffffffffffffffffffffffffffff16815260200190815260200160002060008473ffffffffffffffffffffffffffffffffffffffff1673ffffffffffffffffffffffffffffffffffffffff16815260200190815260200160002060006101000a81548160ff0219169083151502179055508173ffffffffffffffffffffffffffffffffffffffff166111bb611b17565b73ffffffffffffffffffffffffffffffffffffffff167f17307eab39ab6107e8899845ad3d59bd9653f200f220920489ca2b5937696c318360405161120091906127ed565b60405180910390a35050565b600e5481565b601481565b611222848484610b1a565b60008373ffffffffffffffffffffffffffffffffffffffff163b146112845761124d84848484611e70565b611283576040517fd1a57ed600000000000000000000000000000000000000000000000000000000815260040160405180910390fd5b5b50505050565b611292611b76565b600a548251826112a29190613106565b6112aa610b03565b6112b49190613160565b11156112f5576040517f08c379a00000000000000000000000000000000000000000000000000000000081526004016112ec906131e0565b60405180910390fd5b60005b82518110156113385761132583828151811061131757611316613200565b5b602002602001015183611fc0565b80806113309061322f565b9150506112f8565b505050565b606061134882611ab8565b61137e576040517fa14c4b5000000000000000000000000000000000000000000000000000000000815260040160405180910390fd5b60006113898361217b565b60405160200161139991906132ff565b604051602081830303815290604052905060006040518060600160405280603f8152602001614837603f913990506000600b60009054906101000a900473ffffffffffffffffffffffffffffffffffffffff1673ffffffffffffffffffffffffffffffffffffffff1663d6cf5f55866040518263ffffffff1660e01b81526004016114249190612a21565b61012060405180830381865afa158015611442573d6000803e3d6000fd5b505050506040513d601f19601f820116820180604052508101906114669190613435565b90506064851115816101000190151590811515815250506000600b60009054906101000a900473ffffffffffffffffffffffffffffffffffffffff1673ffffffffffffffffffffffffffffffffffffffff166391b078a4836040518263ffffffff1660e01b81526004016114da9190613538565b600060405180830381865afa1580156114f7573d6000803e3d6000fd5b505050506040513d6000823e3d601f19601f820116820180604052508101906115209190613781565b90506000600b60009054906101000a900473ffffffffffffffffffffffffffffffffffffffff1673ffffffffffffffffffffffffffffffffffffffff16637d11e69c84846040518363ffffffff1660e01b8152600401611581929190613976565b600060405180830381865afa15801561159e573d6000803e3d6000fd5b505050506040513d6000823e3d601f19601f820116820180604052508101906115c79190613a49565b905060006115d8846020015161217b565b6115e5856060015161217b565b6115f2866040015161217b565b8660c00151611636576040518060400160405280600281526020017f4e6f00000000000000000000000000000000000000000000000000000000000081525061166d565b6040518060400160405280600381526020017f59657300000000000000000000000000000000000000000000000000000000008152505b738C7EA5ce359a9FeB86b7D74Cc1c99D8718A4830f6375f5696d88600001516040518263ffffffff1660e01b81526004016116a89190613aa1565b600060405180830381865af41580156116c5573d6000803e3d6000fd5b505050506040513d6000823e3d601f19601f820116820180604052508101906116ee9190613a49565b604051602001611702959493929190613d8e565b60405160208183030381529060405290508360e00151156117c25780738C7EA5ce359a9FeB86b7D74Cc1c99D8718A4830f6375f5696d85602001516040518263ffffffff1660e01b81526004016117599190613aa1565b600060405180830381865af4158015611776573d6000803e3d6000fd5b505050506040513d6000823e3d601f19601f8201168201806040525081019061179f9190613a49565b6040516020016117b0929190613edc565b60405160208183030381529060405290505b603288116117ed57806040516020016117db9190613f8c565b60405160208183030381529060405290505b806040516020016117fe9190613fd4565b6040516020818303038152906040529050600086868361181d86612303565b604051602001611830949392919061419c565b604051602081830303815290604052905061184a81612303565b60405160200161185a919061425d565b604051602081830303815290604052975050505050505050919050565b600d5481565b600a5481565b6000600760008473ffffffffffffffffffffffffffffffffffffffff1673ffffffffffffffffffffffffffffffffffffffff16815260200190815260200160002060008373ffffffffffffffffffffffffffffffffffffffff1673ffffffffffffffffffffffffffffffffffffffff16815260200190815260200160002060009054906101000a900460ff16905092915050565b61191f611a9e565b61195e576040517f08c379a0000000000000000000000000000000000000000000000000000000008152600401611955906142cb565b60405180910390fd5b6119678161249a565b50565b611972611b76565b600073ffffffffffffffffffffffffffffffffffffffff168173ffffffffffffffffffffffffffffffffffffffff16036119e1576040517f08c379a00000000000000000000000000000000000000000000000000000000081526004016119d89061435d565b60405180910390fd5b6119ea81611daa565b50565b6119f5611b76565b80600d8190555050565b611a0a338383610e3c565b611a49576040517f08c379a0000000000000000000000000000000000000000000000000000000008152600401611a40906143c9565b60405180910390fd5b611a51610ac6565b611a90576040517f08c379a0000000000000000000000000000000000000000000000000000000008152600401611a879061445b565b60405180910390fd5b611a998361249a565b505050565b6000600e54600d54611ab09190613160565b431015905090565b600081611ac3611bf4565b11158015611ad2575060005482105b8015611b10575060007c0100000000000000000000000000000000000000000000000000000000600460008581526020019081526020016000205416145b9050919050565b600033905090565b600067ffffffffffffffff6040600560008573ffffffffffffffffffffffffffffffffffffffff1673ffffffffffffffffffffffffffffffffffffffff16815260200190815260200160002054901c169050919050565b611b7e612680565b73ffffffffffffffffffffffffffffffffffffffff16611b9c61102d565b73ffffffffffffffffffffffffffffffffffffffff1614611bf2576040517f08c379a0000000000000000000000000000000000000000000000000000000008152600401611be9906144c7565b60405180910390fd5b565b60006001905090565b60008082905080611c0c611bf4565b11611c9257600054811015611c915760006004600083815260200190815260200160002054905060007c0100000000000000000000000000000000000000000000000000000000821603611c8f575b60008103611c85576004600083600190039350838152602001908152602001600020549050611c5b565b8092505050611cc4565b505b5b6040517fdf2d9b4200000000000000000000000000000000000000000000000000000000815260040160405180910390fd5b919050565b60008060006006600085815260200190815260200160002090508092508254915050915091565b600073ffffffffffffffffffffffffffffffffffffffff8316925073ffffffffffffffffffffffffffffffffffffffff821691508382148383141790509392505050565b50505050565b60008060e883901c905060e8611d51868684612688565b62ffffff16901b9150509392505050565b600073ffffffffffffffffffffffffffffffffffffffff83169250814260a01b178317905092915050565b50505050565b600082611da08584612691565b1490509392505050565b6000600860009054906101000a900473ffffffffffffffffffffffffffffffffffffffff16905081600860006101000a81548173ffffffffffffffffffffffffffffffffffffffff021916908373ffffffffffffffffffffffffffffffffffffffff1602179055508173ffffffffffffffffffffffffffffffffffffffff168173ffffffffffffffffffffffffffffffffffffffff167f8be0079c531659141344cd1fd0a4f28419497f9722a3daafe3b4186f6b6457e060405160405180910390a35050565b60008373ffffffffffffffffffffffffffffffffffffffff1663150b7a02611e96611b17565b8786866040518563ffffffff1660e01b8152600401611eb8949392919061453c565b6020604051808303816000875af1925050508015611ef457506040513d601f19601f82011682018060405250810190611ef1919061459d565b60015b611f6d573d8060008114611f24576040519150601f19603f3d011682016040523d82523d6000602084013e611f29565b606091505b506000815103611f65576040517fd1a57ed600000000000000000000000000000000000000000000000000000000815260040160405180910390fd5b805181602001fd5b63150b7a0260e01b7bffffffffffffffffffffffffffffffffffffffffffffffffffffffff1916817bffffffffffffffffffffffffffffffffffffffffffffffffffffffff191614915050949350505050565b60008054905060008203612000576040517fb562e8dd00000000000000000000000000000000000000000000000000000000815260040160405180910390fd5b61200d6000848385611d34565b600160406001901b178202600560008573ffffffffffffffffffffffffffffffffffffffff1673ffffffffffffffffffffffffffffffffffffffff16815260200190815260200160002060008282540192505081905550612084836120756000866000611d3a565b61207e856126e7565b17611d62565b6004600083815260200190815260200160002081905550600080838301905073ffffffffffffffffffffffffffffffffffffffff85169150828260007fddf252ad1be2c89b69c2b068fc378daa952ba7f163c4a11628f55a4df523b3ef600080a4600183015b81811461212557808360007fddf252ad1be2c89b69c2b068fc378daa952ba7f163c4a11628f55a4df523b3ef600080a46001810190506120ea565b5060008203612160576040517f2e07630000000000000000000000000000000000000000000000000000000000815260040160405180910390fd5b8060008190555050506121766000848385611d8d565b505050565b6060600082036121c2576040518060400160405280600181526020017f300000000000000000000000000000000000000000000000000000000000000081525090506122fe565b600082905060005b600082146121f45780806121dd9061322f565b915050600a826121ed91906145f9565b91506121ca565b60008167ffffffffffffffff8111156122105761220f612c73565b5b6040519080825280601f01601f1916602001820160405280156122425781602001600182028036833780820191505090505b50905060008290505b600086146122f657600181612260919061306f565b90506000600a808861227291906145f9565b61227c9190613106565b87612287919061306f565b60306122939190614637565b905060008160f81b9050808484815181106122b1576122b0613200565b5b60200101907effffffffffffffffffffffffffffffffffffffffffffffffffffffffffffff1916908160001a905350600a886122ed91906145f9565b9750505061224b565b819450505050505b919050565b60606000825190506000810361232b5760405180602001604052806000815250915050612495565b6000600360028361233c9190613160565b61234691906145f9565b60046123529190613106565b905060006020826123639190613160565b67ffffffffffffffff81111561237c5761237b612c73565b5b6040519080825280601f01601f1916602001820160405280156123ae5781602001600182028036833780820191505090505b50905060006040518060600160405280604081526020016147f7604091399050600181016020830160005b868110156124525760038101905062ffffff818a015116603f8160121c168401518060081b905060ff603f83600c1c1686015116810190508060081b905060ff603f8360061c1686015116810190508060081b905060ff603f831686015116810190508060e01b905080845260048401935050506123d9565b50600386066001811461246c576002811461247c57612487565b613d3d60f01b6002830352612487565b603d60f81b60018303525b508484525050819450505050505b919050565b806009546124a89190613106565b3410156124ea576040517f08c379a00000000000000000000000000000000000000000000000000000000081526004016124e1906146b8565b60405180910390fd5b600a54816124f6610b03565b6125009190613160565b1115612541576040517f08c379a0000000000000000000000000000000000000000000000000000000008152600401612538906131e0565b60405180910390fd5b60148161254d33611b1f565b6125579190613160565b1115612598576040517f08c379a000000000000000000000000000000000000000000000000000000000815260040161258f90614724565b60405180910390fd5b6125a23382611fc0565b806009546125b09190613106565b34111561267d5760003373ffffffffffffffffffffffffffffffffffffffff16826009546125de9190613106565b346125e9919061306f565b6040516125f590614775565b60006040518083038185875af1925050503d8060008114612632576040519150601f19603f3d011682016040523d82523d6000602084013e612637565b606091505b505090508061267b576040517f08c379a0000000000000000000000000000000000000000000000000000000008152600401612672906147d6565b60405180910390fd5b505b50565b600033905090565b60009392505050565b60008082905060005b84518110156126dc576126c7828683815181106126ba576126b9613200565b5b60200260200101516126f7565b915080806126d49061322f565b91505061269a565b508091505092915050565b60006001821460e11b9050919050565b600081831061270f5761270a8284612722565b61271a565b6127198383612722565b5b905092915050565b600082600052816020526040600020905092915050565b6000604051905090565b600080fd5b600080fd5b60007fffffffff0000000000000000000000000000000000000000000000000000000082169050919050565b6127828161274d565b811461278d57600080fd5b50565b60008135905061279f81612779565b92915050565b6000602082840312156127bb576127ba612743565b5b60006127c984828501612790565b91505092915050565b60008115159050919050565b6127e7816127d2565b82525050565b600060208201905061280260008301846127de565b92915050565b600081519050919050565b600082825260208201905092915050565b60005b83811015612842578082015181840152602081019050612827565b60008484015250505050565b6000601f19601f8301169050919050565b600061286a82612808565b6128748185612813565b9350612884818560208601612824565b61288d8161284e565b840191505092915050565b600060208201905081810360008301526128b2818461285f565b905092915050565b6000819050919050565b6128cd816128ba565b81146128d857600080fd5b50565b6000813590506128ea816128c4565b92915050565b60006020828403121561290657612905612743565b5b6000612914848285016128db565b91505092915050565b600073ffffffffffffffffffffffffffffffffffffffff82169050919050565b60006129488261291d565b9050919050565b6129588161293d565b82525050565b6000602082019050612973600083018461294f565b92915050565b6129828161293d565b811461298d57600080fd5b50565b60008135905061299f81612979565b92915050565b600080604083850312156129bc576129bb612743565b5b60006129ca85828601612990565b92505060206129db858286016128db565b9150509250929050565b6000602082840312156129fb576129fa612743565b5b6000612a0984828501612990565b91505092915050565b612a1b816128ba565b82525050565b6000602082019050612a366000830184612a12565b92915050565b600080600060608486031215612a5557612a54612743565b5b6000612a6386828701612990565b9350506020612a7486828701612990565b9250506040612a85868287016128db565b9150509250925092565b600080fd5b600080fd5b600080fd5b60008083601f840112612ab457612ab3612a8f565b5b8235905067ffffffffffffffff811115612ad157612ad0612a94565b5b602083019150836020820283011115612aed57612aec612a99565b5b9250929050565b600080600060408486031215612b0d57612b0c612743565b5b6000612b1b86828701612990565b935050602084013567ffffffffffffffff811115612b3c57612b3b612748565b5b612b4886828701612a9e565b92509250509250925092565b6000819050919050565b612b6781612b54565b82525050565b6000602082019050612b826000830184612b5e565b92915050565b6000819050919050565b6000612bad612ba8612ba38461291d565b612b88565b61291d565b9050919050565b6000612bbf82612b92565b9050919050565b6000612bd182612bb4565b9050919050565b612be181612bc6565b82525050565b6000602082019050612bfc6000830184612bd8565b92915050565b612c0b816127d2565b8114612c1657600080fd5b50565b600081359050612c2881612c02565b92915050565b60008060408385031215612c4557612c44612743565b5b6000612c5385828601612990565b9250506020612c6485828601612c19565b9150509250929050565b600080fd5b7f4e487b7100000000000000000000000000000000000000000000000000000000600052604160045260246000fd5b612cab8261284e565b810181811067ffffffffffffffff82111715612cca57612cc9612c73565b5b80604052505050565b6000612cdd612739565b9050612ce98282612ca2565b919050565b600067ffffffffffffffff821115612d0957612d08612c73565b5b612d128261284e565b9050602081019050919050565b82818337600083830152505050565b6000612d41612d3c84612cee565b612cd3565b905082815260208101848484011115612d5d57612d5c612c6e565b5b612d68848285612d1f565b509392505050565b600082601f830112612d8557612d84612a8f565b5b8135612d95848260208601612d2e565b91505092915050565b60008060008060808587031215612db857612db7612743565b5b6000612dc687828801612990565b9450506020612dd787828801612990565b9350506040612de8878288016128db565b925050606085013567ffffffffffffffff811115612e0957612e08612748565b5b612e1587828801612d70565b91505092959194509250565b600067ffffffffffffffff821115612e3c57612e3b612c73565b5b602082029050602081019050919050565b6000612e60612e5b84612e21565b612cd3565b90508083825260208201905060208402830185811115612e8357612e82612a99565b5b835b81811015612eac5780612e988882612990565b845260208401935050602081019050612e85565b5050509392505050565b600082601f830112612ecb57612eca612a8f565b5b8135612edb848260208601612e4d565b91505092915050565b60008060408385031215612efb57612efa612743565b5b600083013567ffffffffffffffff811115612f1957612f18612748565b5b612f2585828601612eb6565b9250506020612f36858286016128db565b9150509250929050565b60008060408385031215612f5757612f56612743565b5b6000612f6585828601612990565b9250506020612f7685828601612990565b9150509250929050565b600080600060408486031215612f9957612f98612743565b5b6000612fa7868287016128db565b935050602084013567ffffffffffffffff811115612fc857612fc7612748565b5b612fd486828701612a9e565b92509250509250925092565b7f4e487b7100000000000000000000000000000000000000000000000000000000600052602260045260246000fd5b6000600282049050600182168061302757607f821691505b60208210810361303a57613039612fe0565b5b50919050565b7f4e487b7100000000000000000000000000000000000000000000000000000000600052601160045260246000fd5b600061307a826128ba565b9150613085836128ba565b925082820390508181111561309d5761309c613040565b5b92915050565b60008160601b9050919050565b60006130bb826130a3565b9050919050565b60006130cd826130b0565b9050919050565b6130e56130e08261293d565b6130c2565b82525050565b60006130f782846130d4565b60148201915081905092915050565b6000613111826128ba565b915061311c836128ba565b9250817fffffffffffffffffffffffffffffffffffffffffffffffffffffffffffffffff048311821515161561315557613154613040565b5b828202905092915050565b600061316b826128ba565b9150613176836128ba565b925082820190508082111561318e5761318d613040565b5b92915050565b7f45786365656473206d617820737570706c790000000000000000000000000000600082015250565b60006131ca601283612813565b91506131d582613194565b602082019050919050565b600060208201905081810360008301526131f9816131bd565b9050919050565b7f4e487b7100000000000000000000000000000000000000000000000000000000600052603260045260246000fd5b600061323a826128ba565b91507fffffffffffffffffffffffffffffffffffffffffffffffffffffffffffffffff820361326c5761326b613040565b5b600182019050919050565b600081905092915050565b7f4b616c6569646f73636f70652023000000000000000000000000000000000000600082015250565b60006132b8600e83613277565b91506132c382613282565b600e82019050919050565b60006132d982612808565b6132e38185613277565b93506132f3818560208601612824565b80840191505092915050565b600061330a826132ab565b915061331682846132ce565b915081905092915050565b600080fd5b600080fd5b60008151905061333a816128c4565b92915050565b60008151905061334f81612c02565b92915050565b6000610120828403121561336c5761336b613321565b5b613377610120612cd3565b905060006133878482850161332b565b600083015250602061339b8482850161332b565b60208301525060406133af8482850161332b565b60408301525060606133c38482850161332b565b60608301525060806133d78482850161332b565b60808301525060a06133eb8482850161332b565b60a08301525060c06133ff84828501613340565b60c08301525060e061341384828501613340565b60e08301525061010061342884828501613340565b6101008301525092915050565b6000610120828403121561344c5761344b612743565b5b600061345a84828501613355565b91505092915050565b61346c816128ba565b82525050565b61347b816127d2565b82525050565b610120820160008201516134986000850182613463565b5060208201516134ab6020850182613463565b5060408201516134be6040850182613463565b5060608201516134d16060850182613463565b5060808201516134e46080850182613463565b5060a08201516134f760a0850182613463565b5060c082015161350a60c0850182613472565b5060e082015161351d60e0850182613472565b50610100820151613532610100850182613472565b50505050565b60006101208201905061354e6000830184613481565b92915050565b60006060828403121561356a57613569613321565b5b6135746060612cd3565b905060006135848482850161332b565b60008301525060206135988482850161332b565b60208301525060406135ac8482850161332b565b60408301525092915050565b600067ffffffffffffffff8211156135d3576135d2612c73565b5b602082029050602081019050919050565b60006135f76135f2846135b8565b612cd3565b9050808382526020820190506060840283018581111561361a57613619612a99565b5b835b81811015613643578061362f8882613554565b84526020840193505060608101905061361c565b5050509392505050565b600082601f83011261366257613661612a8f565b5b81516136728482602086016135e4565b91505092915050565b6000610200828403121561369257613691613321565b5b61369d610100612cd3565b905060006136ad8482850161332b565b60008301525060206136c18482850161332b565b60208301525060406136d584828501613554565b60408301525060a06136e984828501613554565b6060830152506101006136fe84828501613554565b60808301525061016061371384828501613554565b60a0830152506101c082015167ffffffffffffffff81111561373857613737613326565b5b6137448482850161364d565b60c0830152506101e082015167ffffffffffffffff81111561376957613768613326565b5b6137758482850161364d565b60e08301525092915050565b60006020828403121561379757613796612743565b5b600082015167ffffffffffffffff8111156137b5576137b4612748565b5b6137c18482850161367b565b91505092915050565b6060820160008201516137e06000850182613463565b5060208201516137f36020850182613463565b5060408201516138066040850182613463565b50505050565b600081519050919050565b600082825260208201905092915050565b6000819050602082019050919050565b600061384483836137ca565b60608301905092915050565b6000602082019050919050565b60006138688261380c565b6138728185613817565b935061387d83613828565b8060005b838110156138ae5781516138958882613838565b97506138a083613850565b925050600181019050613881565b5085935050505092915050565b6000610200830160008301516138d46000860182613463565b5060208301516138e76020860182613463565b5060408301516138fa60408601826137ca565b50606083015161390d60a08601826137ca565b5060808301516139216101008601826137ca565b5060a08301516139356101608601826137ca565b5060c08301518482036101c086015261394e828261385d565b91505060e08301518482036101e0860152613969828261385d565b9150508091505092915050565b60006101408201905061398c6000830185613481565b81810361012083015261399f81846138bb565b90509392505050565b600067ffffffffffffffff8211156139c3576139c2612c73565b5b6139cc8261284e565b9050602081019050919050565b60006139ec6139e7846139a8565b612cd3565b905082815260208101848484011115613a0857613a07612c6e565b5b613a13848285612824565b509392505050565b600082601f830112613a3057613a2f612a8f565b5b8151613a408482602086016139d9565b91505092915050565b600060208284031215613a5f57613a5e612743565b5b600082015167ffffffffffffffff811115613a7d57613a7c612748565b5b613a8984828501613a1b565b91505092915050565b613a9b816128ba565b82525050565b6000602082019050613ab66000830184613a92565b92915050565b7f2261747472696275746573223a205b0000000000000000000000000000000000815250565b7f7b2274726169745f74797065223a20224d6972726f7273222c202276616c756560008201527f223a200000000000000000000000000000000000000000000000000000000000602082015250565b6000613b3e602383613277565b9150613b4982613ae2565b602382019050919050565b7f7d2c000000000000000000000000000000000000000000000000000000000000815250565b7f7b2274726169745f74797065223a20224f75747369646520417274696661637460008201527f73222c202276616c7565223a2000000000000000000000000000000000000000602082015250565b6000613bd6602d83613277565b9150613be182613b7a565b602d82019050919050565b7f7b2274726169745f74797065223a2022496e736964652041727469666163747360008201527f222c202276616c7565223a200000000000000000000000000000000000000000602082015250565b6000613c48602c83613277565b9150613c5382613bec565b602c82019050919050565b7f7b2274726169745f74797065223a20224772616469656e74222c202276616c7560008201527f65223a2022000000000000000000000000000000000000000000000000000000602082015250565b6000613cba602583613277565b9150613cc582613c5e565b602582019050919050565b7f227d2c0000000000000000000000000000000000000000000000000000000000815250565b7f7b2274726169745f74797065223a20225072696d61727920436f6c6f72222c2060008201527f2276616c7565223a202200000000000000000000000000000000000000000000602082015250565b6000613d52602a83613277565b9150613d5d82613cf6565b602a82019050919050565b7f227d000000000000000000000000000000000000000000000000000000000000815250565b6000613d9982613abc565b600f82019150613da882613b31565b9150613db482886132ce565b9150613dbf82613b54565b600282019150613dce82613bc9565b9150613dda82876132ce565b9150613de582613b54565b600282019150613df482613c3b565b9150613e0082866132ce565b9150613e0b82613b54565b600282019150613e1a82613cad565b9150613e2682856132ce565b9150613e3182613cd0565b600382019150613e4082613d45565b9150613e4c82846132ce565b9150613e5782613d68565b6002820191508190509695505050505050565b7f2c7b2274726169745f74797065223a20225365636f6e6461727920436f6c6f7260008201527f222c202276616c7565223a202200000000000000000000000000000000000000602082015250565b6000613ec6602d83613277565b9150613ed182613e6a565b602d82019050919050565b6000613ee882856132ce565b9150613ef382613eb9565b9150613eff82846132ce565b9150613f0a82613d68565b6002820191508190509392505050565b7f2c7b2274726169745f74797065223a202248616c6f222c202276616c7565223a60008201527f2022596573227d00000000000000000000000000000000000000000000000000602082015250565b6000613f76602783613277565b9150613f8182613f1a565b602782019050919050565b6000613f9882846132ce565b9150613fa382613f69565b915081905092915050565b7f5d00000000000000000000000000000000000000000000000000000000000000815250565b6000613fe082846132ce565b9150613feb82613fae565b60018201915081905092915050565b7f7b226e616d65223a220000000000000000000000000000000000000000000000600082015250565b6000614030600983613277565b915061403b82613ffa565b600982019050919050565b7f222c226465736372697074696f6e223a22000000000000000000000000000000600082015250565b600061407c601183613277565b915061408782614046565b601182019050919050565b7f222c000000000000000000000000000000000000000000000000000000000000600082015250565b60006140c8600283613277565b91506140d382614092565b600282019050919050565b7f2c2022696d616765223a2022646174613a696d6167652f7376672b786d6c3b6260008201527f61736536342c0000000000000000000000000000000000000000000000000000602082015250565b600061413a602683613277565b9150614145826140de565b602682019050919050565b7f227d000000000000000000000000000000000000000000000000000000000000600082015250565b6000614186600283613277565b915061419182614150565b600282019050919050565b60006141a782614023565b91506141b382876132ce565b91506141be8261406f565b91506141ca82866132ce565b91506141d5826140bb565b91506141e182856132ce565b91506141ec8261412d565b91506141f882846132ce565b915061420382614179565b915081905095945050505050565b7f646174613a6170706c69636174696f6e2f6a736f6e3b6261736536342c000000600082015250565b6000614247601d83613277565b915061425282614211565b601d82019050919050565b60006142688261423a565b915061427482846132ce565b915081905092915050565b7f5075626c69632073616c6520686173206e6f7420737461727465642079657400600082015250565b60006142b5601f83612813565b91506142c08261427f565b602082019050919050565b600060208201905081810360008301526142e4816142a8565b9050919050565b7f4f776e61626c653a206e6577206f776e657220697320746865207a65726f206160008201527f6464726573730000000000000000000000000000000000000000000000000000602082015250565b6000614347602683612813565b9150614352826142eb565b604082019050919050565b600060208201905081810360008301526143768161433a565b9050919050565b7f596f7520617265206e6f74206f6e2074686520616c6c6f776c69737400000000600082015250565b60006143b3601c83612813565b91506143be8261437d565b602082019050919050565b600060208201905081810360008301526143e2816143a6565b9050919050565b7f416c6c6f776c6973742073616c6520686173206e6f742073746172746564207960008201527f6574000000000000000000000000000000000000000000000000000000000000602082015250565b6000614445602283612813565b9150614450826143e9565b604082019050919050565b6000602082019050818103600083015261447481614438565b9050919050565b7f4f776e61626c653a2063616c6c6572206973206e6f7420746865206f776e6572600082015250565b60006144b1602083612813565b91506144bc8261447b565b602082019050919050565b600060208201905081810360008301526144e0816144a4565b9050919050565b600081519050919050565b600082825260208201905092915050565b600061450e826144e7565b61451881856144f2565b9350614528818560208601612824565b6145318161284e565b840191505092915050565b6000608082019050614551600083018761294f565b61455e602083018661294f565b61456b6040830185612a12565b818103606083015261457d8184614503565b905095945050505050565b60008151905061459781612779565b92915050565b6000602082840312156145b3576145b2612743565b5b60006145c184828501614588565b91505092915050565b7f4e487b7100000000000000000000000000000000000000000000000000000000600052601260045260246000fd5b6000614604826128ba565b915061460f836128ba565b92508261461f5761461e6145ca565b5b828204905092915050565b600060ff82169050919050565b60006146428261462a565b915061464d8361462a565b9250828201905060ff81111561466657614665613040565b5b92915050565b7f496e73756666696369656e742066656500000000000000000000000000000000600082015250565b60006146a2601083612813565b91506146ad8261466c565b602082019050919050565b600060208201905081810360008301526146d181614695565b9050919050565b7f45786365656473206d6178207175616e74697479000000000000000000000000600082015250565b600061470e601483612813565b9150614719826146d8565b602082019050919050565b6000602082019050818103600083015261473d81614701565b9050919050565b600081905092915050565b50565b600061475f600083614744565b915061476a8261474f565b600082019050919050565b600061478082614752565b9150819050919050565b7f526566756e64206661696c656400000000000000000000000000000000000000600082015250565b60006147c0600d83612813565b91506147cb8261478a565b602082019050919050565b600060208201905081810360008301526147ef816147b3565b905091905056fe4142434445464748494a4b4c4d4e4f505152535455565758595a6162636465666768696a6b6c6d6e6f707172737475767778797a303132333435363738392b2f46756c6c79206f6e2d636861696e2c2070726f6365647572616c6c792067656e6572617465642c20616e696d61746564206b616c6569646f73636f7065732ea2646970667358221220b0d594a4afccbc01053446ac05f9278eac695f2e461bd77ac5637331727b14e264736f6c63430008100033",
  "deployedBytecode": "0x6080604052600436106102045760003560e01c80638da5cb5b11610118578063c87b56dd116100a0578063efd0cbf91161006f578063efd0cbf91461072a578063f2fde38b14610746578063f764561d1461076f578063fa05a65714610798578063fdd4b0f0146107b457610204565b8063c87b56dd1461065a578063d0e59d5a14610697578063d5abeb01146106c2578063e985e9c5146106ed57610204565b8063a22cb465116100e7578063a22cb465146105a3578063afc1cad3146105cc578063b228d925146105f7578063b88d4fde14610622578063c204642c1461063e57610204565b80638da5cb5b146104f957806391b7f5ed1461052457806395d89b411461054d578063a035b1fe1461057857610204565b806323b872dd1161019b57806342842e0e1161016a57806342842e0e146104215780636352211e1461043d57806370a082311461047a578063715018a6146104b75780638ada6b0f146104ce57610204565b806323b872dd14610386578063247155ff146103a25780632eb4a7ab146103df5780633ccfd60b1461040a57610204565b80630bf02d87116101d75780630bf02d87146102ca5780630e2a1448146102f5578063170a78cc1461033257806318160ddd1461035b57610204565b806301ffc9a71461020957806306fdde0314610246578063081812fc14610271578063095ea7b3146102ae575b600080fd5b34801561021557600080fd5b50610230600480360381019061022b91906127a5565b6107df565b60405161023d91906127ed565b60405180910390f35b34801561025257600080fd5b5061025b610871565b6040516102689190612898565b60405180910390f35b34801561027d57600080fd5b50610298600480360381019061029391906128f0565b610903565b6040516102a5919061295e565b60405180910390f35b6102c860048036038101906102c391906129a5565b610982565b005b3480156102d657600080fd5b506102df610ac6565b6040516102ec91906127ed565b60405180910390f35b34801561030157600080fd5b5061031c600480360381019061031791906129e5565b610ad3565b6040516103299190612a21565b60405180910390f35b34801561033e57600080fd5b50610359600480360381019061035491906128f0565b610af1565b005b34801561036757600080fd5b50610370610b03565b60405161037d9190612a21565b60405180910390f35b6103a0600480360381019061039b9190612a3c565b610b1a565b005b3480156103ae57600080fd5b506103c960048036038101906103c49190612af4565b610e3c565b6040516103d691906127ed565b60405180910390f35b3480156103eb57600080fd5b506103f4610ebb565b6040516104019190612b6d565b60405180910390f35b34801561041657600080fd5b5061041f610ec1565b005b61043b60048036038101906104369190612a3c565b610f09565b005b34801561044957600080fd5b50610464600480360381019061045f91906128f0565b610f29565b604051610471919061295e565b60405180910390f35b34801561048657600080fd5b506104a1600480360381019061049c91906129e5565b610f3b565b6040516104ae9190612a21565b60405180910390f35b3480156104c357600080fd5b506104cc610ff3565b005b3480156104da57600080fd5b506104e3611007565b6040516104f09190612be7565b60405180910390f35b34801561050557600080fd5b5061050e61102d565b60405161051b919061295e565b60405180910390f35b34801561053057600080fd5b5061054b600480360381019061054691906128f0565b611057565b005b34801561055957600080fd5b50610562611069565b60405161056f9190612898565b60405180910390f35b34801561058457600080fd5b5061058d6110fb565b60405161059a9190612a21565b60405180910390f35b3480156105af57600080fd5b506105ca60048036038101906105c59190612c2e565b611101565b005b3480156105d857600080fd5b506105e161120c565b6040516105ee9190612a21565b60405180910390f35b34801561060357600080fd5b5061060c611212565b6040516106199190612a21565b60405180910390f35b61063c60048036038101906106379190612d9e565b611217565b005b61065860048036038101906106539190612ee4565b61128a565b005b34801561066657600080fd5b50610681600480360381019061067c91906128f0565b61133d565b60405161068e9190612898565b60405180910390f35b3480156106a357600080fd5b506106ac611877565b6040516106b99190612a21565b60405180910390f35b3480156106ce57600080fd5b506106d761187d565b6040516106e49190612a21565b60405180910390f35b3480156106f957600080fd5b50610714600480360381019061070f9190612f40565b611883565b60405161072191906127ed565b60405180910390f35b610744600480360381019061073f91906128f0565b611917565b005b34801561075257600080fd5b5061076d600480360381019061076891906129e5565b61196a565b005b34801561077b57600080fd5b50610796600480360381019061079191906128f0565b6119ed565b005b6107b260048036038101906107ad9190612f80565b6119ff565b005b3480156107c057600080fd5b506107c9611a9e565b6040516107d691906127ed565b60405180910390f35b60006301ffc9a760e01b827bffffffffffffffffffffffffffffffffffffffffffffffffffffffff1916148061083a57506380ac58cd60e01b827bffffffffffffffffffffffffffffffffffffffffffffffffffffffff1916145b8061086a5750635b5e139f60e01b827bffffffffffffffffffffffffffffffffffffffffffffffffffffffff1916145b9050919050565b6060600280546108809061300f565b80601f01602080910402602001604051908101604052809291908181526020018280546108ac9061300f565b80156108f95780601f106108ce576101008083540402835291602001916108f9565b820191906000526020600020905b8154815290600101906020018083116108dc57829003601f168201915b5050505050905090565b600061090e82611ab8565b610944576040517fcf4700e400000000000000000000000000000000000000000000000000000000815260040160405180910390fd5b6006600083815260200190815260200160002060000160009054906101000a900473ffffffffffffffffffffffffffffffffffffffff169050919050565b600061098d82610f29565b90508073ffffffffffffffffffffffffffffffffffffffff166109ae611b17565b73ffffffffffffffffffffffffffffffffffffffff1614610a11576109da816109d5611b17565b611883565b610a10576040517fcfb3b94200000000000000000000000000000000000000000000000000000000815260040160405180910390fd5b5b826006600084815260200190815260200160002060000160006101000a81548173ffffffffffffffffffffffffffffffffffffffff021916908373ffffffffffffffffffffffffffffffffffffffff160217905550818373ffffffffffffffffffffffffffffffffffffffff168273ffffffffffffffffffffffffffffffffffffffff167f8c5be1e5ebec7d5bd14f71427d1e84f3dd0314c0f7b2291e5b200ac8c7c3b92560405160405180910390a4505050565b6000600d54431015905090565b6000610ade82611b1f565b6014610aea919061306f565b9050919050565b610af9611b76565b80600e8190555050565b6000610b0d611bf4565b6001546000540303905090565b6000610b2582611bfd565b90508373ffffffffffffffffffffffffffffffffffffffff168173ffffffffffffffffffffffffffffffffffffffff1614610b8c576040517fa114810000000000000000000000000000000000000000000000000000000000815260040160405180910390fd5b600080610b9884611cc9565b91509150610bae8187610ba9611b17565b611cf0565b610bfa57610bc386610bbe611b17565b611883565b610bf9576040517f59c896be00000000000000000000000000000000000000000000000000000000815260040160405180910390fd5b5b600073ffffffffffffffffffffffffffffffffffffffff168573ffffffffffffffffffffffffffffffffffffffff1603610c60576040517fea553b3400000000000000000000000000000000000000000000000000000000815260040160405180910390fd5b610c6d8686866001611d34565b8015610c7857600082555b600560008773ffffffffffffffffffffffffffffffffffffffff1673ffffffffffffffffffffffffffffffffffffffff168152602001908152602001600020600081546001900391905081905550600560008673ffffffffffffffffffffffffffffffffffffffff1673ffffffffffffffffffffffffffffffffffffffff1681526020019081526020016000206000815460010191905081905550610d4685610d22888887611d3a565b7c020000000000000000000000000000000000000000000000000000000017611d62565b600460008681526020019081526020016000208190555060007c0200000000000000000000000000000000000000000000000000000000841603610dcc5760006001850190506000600460008381526020019081526020016000205403610dca576000548114610dc9578360046000838152602001908152602001600020819055505b5b505b838573ffffffffffffffffffffffffffffffffffffffff168773ffffffffffffffffffffffffffffffffffffffff167fddf252ad1be2c89b69c2b068fc378daa952ba7f163c4a11628f55a4df523b3ef60405160405180910390a4610e348686866001611d8d565b505050505050565b6000610eb2838380806020026020016040519081016040528093929190818152602001838360200280828437600081840152601f19601f82011690508083019250505050505050600c5486604051602001610e9791906130eb565b60405160208183030381529060405280519060200120611d93565b90509392505050565b600c5481565b610ec9611b76565b3373ffffffffffffffffffffffffffffffffffffffff166108fc479081150290604051600060405180830381858888f19350505050610f0757600080fd5b565b610f2483838360405180602001604052806000815250611217565b505050565b6000610f3482611bfd565b9050919050565b60008073ffffffffffffffffffffffffffffffffffffffff168273ffffffffffffffffffffffffffffffffffffffff1603610fa2576040517f8f4eb60400000000000000000000000000000000000000000000000000000000815260040160405180910390fd5b67ffffffffffffffff600560008473ffffffffffffffffffffffffffffffffffffffff1673ffffffffffffffffffffffffffffffffffffffff16815260200190815260200160002054169050919050565b610ffb611b76565b6110056000611daa565b565b600b60009054906101000a900473ffffffffffffffffffffffffffffffffffffffff1681565b6000600860009054906101000a900473ffffffffffffffffffffffffffffffffffffffff16905090565b61105f611b76565b8060098190555050565b6060600380546110789061300f565b80601f01602080910402602001604051908101604052809291908181526020018280546110a49061300f565b80156110f15780601f106110c6576101008083540402835291602001916110f1565b820191906000526020600020905b8154815290600101906020018083116110d457829003601f168201915b5050505050905090565b60095481565b806007600061110e611b17565b73ffffffffffffffffffffffffffffffffffffffff1673ffffffffffffffffffffffffffffffffffffffff16815260200190815260200160002060008473ffffffffffffffffffffffffffffffffffffffff1673ffffffffffffffffffffffffffffffffffffffff16815260200190815260200160002060006101000a81548160ff0219169083151502179055508173ffffffffffffffffffffffffffffffffffffffff166111bb611b17565b73ffffffffffffffffffffffffffffffffffffffff167f17307eab39ab6107e8899845ad3d59bd9653f200f220920489ca2b5937696c318360405161120091906127ed565b60405180910390a35050565b600e5481565b601481565b611222848484610b1a565b60008373ffffffffffffffffffffffffffffffffffffffff163b146112845761124d84848484611e70565b611283576040517fd1a57ed600000000000000000000000000000000000000000000000000000000815260040160405180910390fd5b5b50505050565b611292611b76565b600a548251826112a29190613106565b6112aa610b03565b6112b49190613160565b11156112f5576040517f08c379a00000000000000000000000000000000000000000000000000000000081526004016112ec906131e0565b60405180910390fd5b60005b82518110156113385761132583828151811061131757611316613200565b5b602002602001015183611fc0565b80806113309061322f565b9150506112f8565b505050565b606061134882611ab8565b61137e576040517fa14c4b5000000000000000000000000000000000000000000000000000000000815260040160405180910390fd5b60006113898361217b565b60405160200161139991906132ff565b604051602081830303815290604052905060006040518060600160405280603f8152602001614837603f913990506000600b60009054906101000a900473ffffffffffffffffffffffffffffffffffffffff1673ffffffffffffffffffffffffffffffffffffffff1663d6cf5f55866040518263ffffffff1660e01b81526004016114249190612a21565b61012060405180830381865afa158015611442573d6000803e3d6000fd5b505050506040513d601f19601f820116820180604052508101906114669190613435565b90506064851115816101000190151590811515815250506000600b60009054906101000a900473ffffffffffffffffffffffffffffffffffffffff1673ffffffffffffffffffffffffffffffffffffffff166391b078a4836040518263ffffffff1660e01b81526004016114da9190613538565b600060405180830381865afa1580156114f7573d6000803e3d6000fd5b505050506040513d6000823e3d601f19601f820116820180604052508101906115209190613781565b90506000600b60009054906101000a900473ffffffffffffffffffffffffffffffffffffffff1673ffffffffffffffffffffffffffffffffffffffff16637d11e69c84846040518363ffffffff1660e01b8152600401611581929190613976565b600060405180830381865afa15801561159e573d6000803e3d6000fd5b505050506040513d6000823e3d601f19601f820116820180604052508101906115c79190613a49565b905060006115d8846020015161217b565b6115e5856060015161217b565b6115f2866040015161217b565b8660c00151611636576040518060400160405280600281526020017f4e6f00000000000000000000000000000000000000000000000000000000000081525061166d565b6040518060400160405280600381526020017f59657300000000000000000000000000000000000000000000000000000000008152505b73__$5187c88d6fd7cbb2d86814aea483adb806$__6375f5696d88600001516040518263ffffffff1660e01b81526004016116a89190613aa1565b600060405180830381865af41580156116c5573d6000803e3d6000fd5b505050506040513d6000823e3d601f19601f820116820180604052508101906116ee9190613a49565b604051602001611702959493929190613d8e565b60405160208183030381529060405290508360e00151156117c2578073__$5187c88d6fd7cbb2d86814aea483adb806$__6375f5696d85602001516040518263ffffffff1660e01b81526004016117599190613aa1565b600060405180830381865af4158015611776573d6000803e3d6000fd5b505050506040513d6000823e3d601f19601f8201168201806040525081019061179f9190613a49565b6040516020016117b0929190613edc565b60405160208183030381529060405290505b603288116117ed57806040516020016117db9190613f8c565b60405160208183030381529060405290505b806040516020016117fe9190613fd4565b6040516020818303038152906040529050600086868361181d86612303565b604051602001611830949392919061419c565b604051602081830303815290604052905061184a81612303565b60405160200161185a919061425d565b604051602081830303815290604052975050505050505050919050565b600d5481565b600a5481565b6000600760008473ffffffffffffffffffffffffffffffffffffffff1673ffffffffffffffffffffffffffffffffffffffff16815260200190815260200160002060008373ffffffffffffffffffffffffffffffffffffffff1673ffffffffffffffffffffffffffffffffffffffff16815260200190815260200160002060009054906101000a900460ff16905092915050565b61191f611a9e565b61195e576040517f08c379a0000000000000000000000000000000000000000000000000000000008152600401611955906142cb565b60405180910390fd5b6119678161249a565b50565b611972611b76565b600073ffffffffffffffffffffffffffffffffffffffff168173ffffffffffffffffffffffffffffffffffffffff16036119e1576040517f08c379a00000000000000000000000000000000000000000000000000000000081526004016119d89061435d565b60405180910390fd5b6119ea81611daa565b50565b6119f5611b76565b80600d8190555050565b611a0a338383610e3c565b611a49576040517f08c379a0000000000000000000000000000000000000000000000000000000008152600401611a40906143c9565b60405180910390fd5b611a51610ac6565b611a90576040517f08c379a0000000000000000000000000000000000000000000000000000000008152600401611a879061445b565b60405180910390fd5b611a998361249a565b505050565b6000600e54600d54611ab09190613160565b431015905090565b600081611ac3611bf4565b11158015611ad2575060005482105b8015611b10575060007c0100000000000000000000000000000000000000000000000000000000600460008581526020019081526020016000205416145b9050919050565b600033905090565b600067ffffffffffffffff6040600560008573ffffffffffffffffffffffffffffffffffffffff1673ffffffffffffffffffffffffffffffffffffffff16815260200190815260200160002054901c169050919050565b611b7e612680565b73ffffffffffffffffffffffffffffffffffffffff16611b9c61102d565b73ffffffffffffffffffffffffffffffffffffffff1614611bf2576040517f08c379a0000000000000000000000000000000000000000000000000000000008152600401611be9906144c7565b60405180910390fd5b565b60006001905090565b60008082905080611c0c611bf4565b11611c9257600054811015611c915760006004600083815260200190815260200160002054905060007c0100000000000000000000000000000000000000000000000000000000821603611c8f575b60008103611c85576004600083600190039350838152602001908152602001600020549050611c5b565b8092505050611cc4565b505b5b6040517fdf2d9b4200000000000000000000000000000000000000000000000000000000815260040160405180910390fd5b919050565b60008060006006600085815260200190815260200160002090508092508254915050915091565b600073ffffffffffffffffffffffffffffffffffffffff8316925073ffffffffffffffffffffffffffffffffffffffff821691508382148383141790509392505050565b50505050565b60008060e883901c905060e8611d51868684612688565b62ffffff16901b9150509392505050565b600073ffffffffffffffffffffffffffffffffffffffff83169250814260a01b178317905092915050565b50505050565b600082611da08584612691565b1490509392505050565b6000600860009054906101000a900473ffffffffffffffffffffffffffffffffffffffff16905081600860006101000a81548173ffffffffffffffffffffffffffffffffffffffff021916908373ffffffffffffffffffffffffffffffffffffffff1602179055508173ffffffffffffffffffffffffffffffffffffffff168173ffffffffffffffffffffffffffffffffffffffff167f8be0079c531659141344cd1fd0a4f28419497f9722a3daafe3b4186f6b6457e060405160405180910390a35050565b60008373ffffffffffffffffffffffffffffffffffffffff1663150b7a02611e96611b17565b8786866040518563ffffffff1660e01b8152600401611eb8949392919061453c565b6020604051808303816000875af1925050508015611ef457506040513d601f19601f82011682018060405250810190611ef1919061459d565b60015b611f6d573d8060008114611f24576040519150601f19603f3d011682016040523d82523d6000602084013e611f29565b606091505b506000815103611f65576040517fd1a57ed600000000000000000000000000000000000000000000000000000000815260040160405180910390fd5b805181602001fd5b63150b7a0260e01b7bffffffffffffffffffffffffffffffffffffffffffffffffffffffff1916817bffffffffffffffffffffffffffffffffffffffffffffffffffffffff191614915050949350505050565b60008054905060008203612000576040517fb562e8dd00000000000000000000000000000000000000000000000000000000815260040160405180910390fd5b61200d6000848385611d34565b600160406001901b178202600560008573ffffffffffffffffffffffffffffffffffffffff1673ffffffffffffffffffffffffffffffffffffffff16815260200190815260200160002060008282540192505081905550612084836120756000866000611d3a565b61207e856126e7565b17611d62565b6004600083815260200190815260200160002081905550600080838301905073ffffffffffffffffffffffffffffffffffffffff85169150828260007fddf252ad1be2c89b69c2b068fc378daa952ba7f163c4a11628f55a4df523b3ef600080a4600183015b81811461212557808360007fddf252ad1be2c89b69c2b068fc378daa952ba7f163c4a11628f55a4df523b3ef600080a46001810190506120ea565b5060008203612160576040517f2e07630000000000000000000000000000000000000000000000000000000000815260040160405180910390fd5b8060008190555050506121766000848385611d8d565b505050565b6060600082036121c2576040518060400160405280600181526020017f300000000000000000000000000000000000000000000000000000000000000081525090506122fe565b600082905060005b600082146121f45780806121dd9061322f565b915050600a826121ed91906145f9565b91506121ca565b60008167ffffffffffffffff8111156122105761220f612c73565b5b6040519080825280601f01601f1916602001820160405280156122425781602001600182028036833780820191505090505b50905060008290505b600086146122f657600181612260919061306f565b90506000600a808861227291906145f9565b61227c9190613106565b87612287919061306f565b60306122939190614637565b905060008160f81b9050808484815181106122b1576122b0613200565b5b60200101907effffffffffffffffffffffffffffffffffffffffffffffffffffffffffffff1916908160001a905350600a886122ed91906145f9565b9750505061224b565b819450505050505b919050565b60606000825190506000810361232b5760405180602001604052806000815250915050612495565b6000600360028361233c9190613160565b61234691906145f9565b60046123529190613106565b905060006020826123639190613160565b67ffffffffffffffff81111561237c5761237b612c73565b5b6040519080825280601f01601f1916602001820160405280156123ae5781602001600182028036833780820191505090505b50905060006040518060600160405280604081526020016147f7604091399050600181016020830160005b868110156124525760038101905062ffffff818a015116603f8160121c168401518060081b905060ff603f83600c1c1686015116810190508060081b905060ff603f8360061c1686015116810190508060081b905060ff603f831686015116810190508060e01b905080845260048401935050506123d9565b50600386066001811461246c576002811461247c57612487565b613d3d60f01b6002830352612487565b603d60f81b60018303525b508484525050819450505050505b919050565b806009546124a89190613106565b3410156124ea576040517f08c379a00000000000000000000000000000000000000000000000000000000081526004016124e1906146b8565b60405180910390fd5b600a54816124f6610b03565b6125009190613160565b1115612541576040517f08c379a0000000000000000000000000000000000000000000000000000000008152600401612538906131e0565b60405180910390fd5b60148161254d33611b1f565b6125579190613160565b1115612598576040517f08c379a000000000000000000000000000000000000000000000000000000000815260040161258f90614724565b60405180910390fd5b6125a23382611fc0565b806009546125b09190613106565b34111561267d5760003373ffffffffffffffffffffffffffffffffffffffff16826009546125de9190613106565b346125e9919061306f565b6040516125f590614775565b60006040518083038185875af1925050503d8060008114612632576040519150601f19603f3d011682016040523d82523d6000602084013e612637565b606091505b505090508061267b576040517f08c379a0000000000000000000000000000000000000000000000000000000008152600401612672906147d6565b60405180910390fd5b505b50565b600033905090565b60009392505050565b60008082905060005b84518110156126dc576126c7828683815181106126ba576126b9613200565b5b60200260200101516126f7565b915080806126d49061322f565b91505061269a565b508091505092915050565b60006001821460e11b9050919050565b600081831061270f5761270a8284612722565b61271a565b6127198383612722565b5b905092915050565b600082600052816020526040600020905092915050565b6000604051905090565b600080fd5b600080fd5b60007fffffffff0000000000000000000000000000000000000000000000000000000082169050919050565b6127828161274d565b811461278d57600080fd5b50565b60008135905061279f81612779565b92915050565b6000602082840312156127bb576127ba612743565b5b60006127c984828501612790565b91505092915050565b60008115159050919050565b6127e7816127d2565b82525050565b600060208201905061280260008301846127de565b92915050565b600081519050919050565b600082825260208201905092915050565b60005b83811015612842578082015181840152602081019050612827565b60008484015250505050565b6000601f19601f8301169050919050565b600061286a82612808565b6128748185612813565b9350612884818560208601612824565b61288d8161284e565b840191505092915050565b600060208201905081810360008301526128b2818461285f565b905092915050565b6000819050919050565b6128cd816128ba565b81146128d857600080fd5b50565b6000813590506128ea816128c4565b92915050565b60006020828403121561290657612905612743565b5b6000612914848285016128db565b91505092915050565b600073ffffffffffffffffffffffffffffffffffffffff82169050919050565b60006129488261291d565b9050919050565b6129588161293d565b82525050565b6000602082019050612973600083018461294f565b92915050565b6129828161293d565b811461298d57600080fd5b50565b60008135905061299f81612979565b92915050565b600080604083850312156129bc576129bb612743565b5b60006129ca85828601612990565b92505060206129db858286016128db565b9150509250929050565b6000602082840312156129fb576129fa612743565b5b6000612a0984828501612990565b91505092915050565b612a1b816128ba565b82525050565b6000602082019050612a366000830184612a12565b92915050565b600080600060608486031215612a5557612a54612743565b5b6000612a6386828701612990565b9350506020612a7486828701612990565b9250506040612a85868287016128db565b9150509250925092565b600080fd5b600080fd5b600080fd5b60008083601f840112612ab457612ab3612a8f565b5b8235905067ffffffffffffffff811115612ad157612ad0612a94565b5b602083019150836020820283011115612aed57612aec612a99565b5b9250929050565b600080600060408486031215612b0d57612b0c612743565b5b6000612b1b86828701612990565b935050602084013567ffffffffffffffff811115612b3c57612b3b612748565b5b612b4886828701612a9e565b92509250509250925092565b6000819050919050565b612b6781612b54565b82525050565b6000602082019050612b826000830184612b5e565b92915050565b6000819050919050565b6000612bad612ba8612ba38461291d565b612b88565b61291d565b9050919050565b6000612bbf82612b92565b9050919050565b6000612bd182612bb4565b9050919050565b612be181612bc6565b82525050565b6000602082019050612bfc6000830184612bd8565b92915050565b612c0b816127d2565b8114612c1657600080fd5b50565b600081359050612c2881612c02565b92915050565b60008060408385031215612c4557612c44612743565b5b6000612c5385828601612990565b9250506020612c6485828601612c19565b9150509250929050565b600080fd5b7f4e487b7100000000000000000000000000000000000000000000000000000000600052604160045260246000fd5b612cab8261284e565b810181811067ffffffffffffffff82111715612cca57612cc9612c73565b5b80604052505050565b6000612cdd612739565b9050612ce98282612ca2565b919050565b600067ffffffffffffffff821115612d0957612d08612c73565b5b612d128261284e565b9050602081019050919050565b82818337600083830152505050565b6000612d41612d3c84612cee565b612cd3565b905082815260208101848484011115612d5d57612d5c612c6e565b5b612d68848285612d1f565b509392505050565b600082601f830112612d8557612d84612a8f565b5b8135612d95848260208601612d2e565b91505092915050565b60008060008060808587031215612db857612db7612743565b5b6000612dc687828801612990565b9450506020612dd787828801612990565b9350506040612de8878288016128db565b925050606085013567ffffffffffffffff811115612e0957612e08612748565b5b612e1587828801612d70565b91505092959194509250565b600067ffffffffffffffff821115612e3c57612e3b612c73565b5b602082029050602081019050919050565b6000612e60612e5b84612e21565b612cd3565b90508083825260208201905060208402830185811115612e8357612e82612a99565b5b835b81811015612eac5780612e988882612990565b845260208401935050602081019050612e85565b5050509392505050565b600082601f830112612ecb57612eca612a8f565b5b8135612edb848260208601612e4d565b91505092915050565b60008060408385031215612efb57612efa612743565b5b600083013567ffffffffffffffff811115612f1957612f18612748565b5b612f2585828601612eb6565b9250506020612f36858286016128db565b9150509250929050565b60008060408385031215612f5757612f56612743565b5b6000612f6585828601612990565b9250506020612f7685828601612990565b9150509250929050565b600080600060408486031215612f9957612f98612743565b5b6000612fa7868287016128db565b935050602084013567ffffffffffffffff811115612fc857612fc7612748565b5b612fd486828701612a9e565b92509250509250925092565b7f4e487b7100000000000000000000000000000000000000000000000000000000600052602260045260246000fd5b6000600282049050600182168061302757607f821691505b60208210810361303a57613039612fe0565b5b50919050565b7f4e487b7100000000000000000000000000000000000000000000000000000000600052601160045260246000fd5b600061307a826128ba565b9150613085836128ba565b925082820390508181111561309d5761309c613040565b5b92915050565b60008160601b9050919050565b60006130bb826130a3565b9050919050565b60006130cd826130b0565b9050919050565b6130e56130e08261293d565b6130c2565b82525050565b60006130f782846130d4565b60148201915081905092915050565b6000613111826128ba565b915061311c836128ba565b9250817fffffffffffffffffffffffffffffffffffffffffffffffffffffffffffffffff048311821515161561315557613154613040565b5b828202905092915050565b600061316b826128ba565b9150613176836128ba565b925082820190508082111561318e5761318d613040565b5b92915050565b7f45786365656473206d617820737570706c790000000000000000000000000000600082015250565b60006131ca601283612813565b91506131d582613194565b602082019050919050565b600060208201905081810360008301526131f9816131bd565b9050919050565b7f4e487b7100000000000000000000000000000000000000000000000000000000600052603260045260246000fd5b600061323a826128ba565b91507fffffffffffffffffffffffffffffffffffffffffffffffffffffffffffffffff820361326c5761326b613040565b5b600182019050919050565b600081905092915050565b7f4b616c6569646f73636f70652023000000000000000000000000000000000000600082015250565b60006132b8600e83613277565b91506132c382613282565b600e82019050919050565b60006132d982612808565b6132e38185613277565b93506132f3818560208601612824565b80840191505092915050565b600061330a826132ab565b915061331682846132ce565b915081905092915050565b600080fd5b600080fd5b60008151905061333a816128c4565b92915050565b60008151905061334f81612c02565b92915050565b6000610120828403121561336c5761336b613321565b5b613377610120612cd3565b905060006133878482850161332b565b600083015250602061339b8482850161332b565b60208301525060406133af8482850161332b565b60408301525060606133c38482850161332b565b60608301525060806133d78482850161332b565b60808301525060a06133eb8482850161332b565b60a08301525060c06133ff84828501613340565b60c08301525060e061341384828501613340565b60e08301525061010061342884828501613340565b6101008301525092915050565b6000610120828403121561344c5761344b612743565b5b600061345a84828501613355565b91505092915050565b61346c816128ba565b82525050565b61347b816127d2565b82525050565b610120820160008201516134986000850182613463565b5060208201516134ab6020850182613463565b5060408201516134be6040850182613463565b5060608201516134d16060850182613463565b5060808201516134e46080850182613463565b5060a08201516134f760a0850182613463565b5060c082015161350a60c0850182613472565b5060e082015161351d60e0850182613472565b50610100820151613532610100850182613472565b50505050565b60006101208201905061354e6000830184613481565b92915050565b60006060828403121561356a57613569613321565b5b6135746060612cd3565b905060006135848482850161332b565b60008301525060206135988482850161332b565b60208301525060406135ac8482850161332b565b60408301525092915050565b600067ffffffffffffffff8211156135d3576135d2612c73565b5b602082029050602081019050919050565b60006135f76135f2846135b8565b612cd3565b9050808382526020820190506060840283018581111561361a57613619612a99565b5b835b81811015613643578061362f8882613554565b84526020840193505060608101905061361c565b5050509392505050565b600082601f83011261366257613661612a8f565b5b81516136728482602086016135e4565b91505092915050565b6000610200828403121561369257613691613321565b5b61369d610100612cd3565b905060006136ad8482850161332b565b60008301525060206136c18482850161332b565b60208301525060406136d584828501613554565b60408301525060a06136e984828501613554565b6060830152506101006136fe84828501613554565b60808301525061016061371384828501613554565b60a0830152506101c082015167ffffffffffffffff81111561373857613737613326565b5b6137448482850161364d565b60c0830152506101e082015167ffffffffffffffff81111561376957613768613326565b5b6137758482850161364d565b60e08301525092915050565b60006020828403121561379757613796612743565b5b600082015167ffffffffffffffff8111156137b5576137b4612748565b5b6137c18482850161367b565b91505092915050565b6060820160008201516137e06000850182613463565b5060208201516137f36020850182613463565b5060408201516138066040850182613463565b50505050565b600081519050919050565b600082825260208201905092915050565b6000819050602082019050919050565b600061384483836137ca565b60608301905092915050565b6000602082019050919050565b60006138688261380c565b6138728185613817565b935061387d83613828565b8060005b838110156138ae5781516138958882613838565b97506138a083613850565b925050600181019050613881565b5085935050505092915050565b6000610200830160008301516138d46000860182613463565b5060208301516138e76020860182613463565b5060408301516138fa60408601826137ca565b50606083015161390d60a08601826137ca565b5060808301516139216101008601826137ca565b5060a08301516139356101608601826137ca565b5060c08301518482036101c086015261394e828261385d565b91505060e08301518482036101e0860152613969828261385d565b9150508091505092915050565b60006101408201905061398c6000830185613481565b81810361012083015261399f81846138bb565b90509392505050565b600067ffffffffffffffff8211156139c3576139c2612c73565b5b6139cc8261284e565b9050602081019050919050565b60006139ec6139e7846139a8565b612cd3565b905082815260208101848484011115613a0857613a07612c6e565b5b613a13848285612824565b509392505050565b600082601f830112613a3057613a2f612a8f565b5b8151613a408482602086016139d9565b91505092915050565b600060208284031215613a5f57613a5e612743565b5b600082015167ffffffffffffffff811115613a7d57613a7c612748565b5b613a8984828501613a1b565b91505092915050565b613a9b816128ba565b82525050565b6000602082019050613ab66000830184613a92565b92915050565b7f2261747472696275746573223a205b0000000000000000000000000000000000815250565b7f7b2274726169745f74797065223a20224d6972726f7273222c202276616c756560008201527f223a200000000000000000000000000000000000000000000000000000000000602082015250565b6000613b3e602383613277565b9150613b4982613ae2565b602382019050919050565b7f7d2c000000000000000000000000000000000000000000000000000000000000815250565b7f7b2274726169745f74797065223a20224f75747369646520417274696661637460008201527f73222c202276616c7565223a2000000000000000000000000000000000000000602082015250565b6000613bd6602d83613277565b9150613be182613b7a565b602d82019050919050565b7f7b2274726169745f74797065223a2022496e736964652041727469666163747360008201527f222c202276616c7565223a200000000000000000000000000000000000000000602082015250565b6000613c48602c83613277565b9150613c5382613bec565b602c82019050919050565b7f7b2274726169745f74797065223a20224772616469656e74222c202276616c7560008201527f65223a2022000000000000000000000000000000000000000000000000000000602082015250565b6000613cba602583613277565b9150613cc582613c5e565b602582019050919050565b7f227d2c0000000000000000000000000000000000000000000000000000000000815250565b7f7b2274726169745f74797065223a20225072696d61727920436f6c6f72222c2060008201527f2276616c7565223a202200000000000000000000000000000000000000000000602082015250565b6000613d52602a83613277565b9150613d5d82613cf6565b602a82019050919050565b7f227d000000000000000000000000000000000000000000000000000000000000815250565b6000613d9982613abc565b600f82019150613da882613b31565b9150613db482886132ce565b9150613dbf82613b54565b600282019150613dce82613bc9565b9150613dda82876132ce565b9150613de582613b54565b600282019150613df482613c3b565b9150613e0082866132ce565b9150613e0b82613b54565b600282019150613e1a82613cad565b9150613e2682856132ce565b9150613e3182613cd0565b600382019150613e4082613d45565b9150613e4c82846132ce565b9150613e5782613d68565b6002820191508190509695505050505050565b7f2c7b2274726169745f74797065223a20225365636f6e6461727920436f6c6f7260008201527f222c202276616c7565223a202200000000000000000000000000000000000000602082015250565b6000613ec6602d83613277565b9150613ed182613e6a565b602d82019050919050565b6000613ee882856132ce565b9150613ef382613eb9565b9150613eff82846132ce565b9150613f0a82613d68565b6002820191508190509392505050565b7f2c7b2274726169745f74797065223a202248616c6f222c202276616c7565223a60008201527f2022596573227d00000000000000000000000000000000000000000000000000602082015250565b6000613f76602783613277565b9150613f8182613f1a565b602782019050919050565b6000613f9882846132ce565b9150613fa382613f69565b915081905092915050565b7f5d00000000000000000000000000000000000000000000000000000000000000815250565b6000613fe082846132ce565b9150613feb82613fae565b60018201915081905092915050565b7f7b226e616d65223a220000000000000000000000000000000000000000000000600082015250565b6000614030600983613277565b915061403b82613ffa565b600982019050919050565b7f222c226465736372697074696f6e223a22000000000000000000000000000000600082015250565b600061407c601183613277565b915061408782614046565b601182019050919050565b7f222c000000000000000000000000000000000000000000000000000000000000600082015250565b60006140c8600283613277565b91506140d382614092565b600282019050919050565b7f2c2022696d616765223a2022646174613a696d6167652f7376672b786d6c3b6260008201527f61736536342c0000000000000000000000000000000000000000000000000000602082015250565b600061413a602683613277565b9150614145826140de565b602682019050919050565b7f227d000000000000000000000000000000000000000000000000000000000000600082015250565b6000614186600283613277565b915061419182614150565b600282019050919050565b60006141a782614023565b91506141b382876132ce565b91506141be8261406f565b91506141ca82866132ce565b91506141d5826140bb565b91506141e182856132ce565b91506141ec8261412d565b91506141f882846132ce565b915061420382614179565b915081905095945050505050565b7f646174613a6170706c69636174696f6e2f6a736f6e3b6261736536342c000000600082015250565b6000614247601d83613277565b915061425282614211565b601d82019050919050565b60006142688261423a565b915061427482846132ce565b915081905092915050565b7f5075626c69632073616c6520686173206e6f7420737461727465642079657400600082015250565b60006142b5601f83612813565b91506142c08261427f565b602082019050919050565b600060208201905081810360008301526142e4816142a8565b9050919050565b7f4f776e61626c653a206e6577206f776e657220697320746865207a65726f206160008201527f6464726573730000000000000000000000000000000000000000000000000000602082015250565b6000614347602683612813565b9150614352826142eb565b604082019050919050565b600060208201905081810360008301526143768161433a565b9050919050565b7f596f7520617265206e6f74206f6e2074686520616c6c6f776c69737400000000600082015250565b60006143b3601c83612813565b91506143be8261437d565b602082019050919050565b600060208201905081810360008301526143e2816143a6565b9050919050565b7f416c6c6f776c6973742073616c6520686173206e6f742073746172746564207960008201527f6574000000000000000000000000000000000000000000000000000000000000602082015250565b6000614445602283612813565b9150614450826143e9565b604082019050919050565b6000602082019050818103600083015261447481614438565b9050919050565b7f4f776e61626c653a2063616c6c6572206973206e6f7420746865206f776e6572600082015250565b60006144b1602083612813565b91506144bc8261447b565b602082019050919050565b600060208201905081810360008301526144e0816144a4565b9050919050565b600081519050919050565b600082825260208201905092915050565b600061450e826144e7565b61451881856144f2565b9350614528818560208601612824565b6145318161284e565b840191505092915050565b6000608082019050614551600083018761294f565b61455e602083018661294f565b61456b6040830185612a12565b818103606083015261457d8184614503565b905095945050505050565b60008151905061459781612779565b92915050565b6000602082840312156145b3576145b2612743565b5b60006145c184828501614588565b91505092915050565b7f4e487b7100000000000000000000000000000000000000000000000000000000600052601260045260246000fd5b6000614604826128ba565b915061460f836128ba565b92508261461f5761461e6145ca565b5b828204905092915050565b600060ff82169050919050565b60006146428261462a565b915061464d8361462a565b9250828201905060ff81111561466657614665613040565b5b92915050565b7f496e73756666696369656e742066656500000000000000000000000000000000600082015250565b60006146a2601083612813565b91506146ad8261466c565b602082019050919050565b600060208201905081810360008301526146d181614695565b9050919050565b7f45786365656473206d6178207175616e74697479000000000000000000000000600082015250565b600061470e601483612813565b9150614719826146d8565b602082019050919050565b6000602082019050818103600083015261473d81614701565b9050919050565b600081905092915050565b50565b600061475f600083614744565b915061476a8261474f565b600082019050919050565b600061478082614752565b9150819050919050565b7f526566756e64206661696c656400000000000000000000000000000000000000600082015250565b60006147c0600d83612813565b91506147cb8261478a565b602082019050919050565b600060208201905081810360008301526147ef816147b3565b905091905056fe4142434445464748494a4b4c4d4e4f505152535455565758595a6162636465666768696a6b6c6d6e6f707172737475767778797a303132333435363738392b2f46756c6c79206f6e2d636861696e2c2070726f6365647572616c6c792067656e6572617465642c20616e696d61746564206b616c6569646f73636f7065732ea2646970667358221220b0d594a4afccbc01053446ac05f9278eac695f2e461bd77ac5637331727b14e264736f6c63430008100033",
  "libraries": {
    "utils": "0x8C7EA5ce359a9FeB86b7D74Cc1c99D8718A4830f",
    "Trigonometry": "0x9F9eE8D726e50C58a0034f54C3985a1F7fd73563"
  },
  "devdoc": {
    "kind": "dev",
    "methods": {
      "airdrop(address[],uint256)": {
        "params": {
          "_quantity": "Quantity of tokens to airdrop to each recipient.",
          "_recipients": "List of recipients to receive the airdrop."
        }
      },
      "allowListed(address,bytes32[])": {
        "params": {
          "_proof": "Merkle proof.",
          "_wallet": "Wallet to check."
        }
      },
      "approve(address,uint256)": {
        "details": "Gives permission to `to` to transfer `tokenId` token to another account. The approval is cleared when the token is transferred. Only a single account can be approved at a time, so approving the zero address clears previous approvals. Requirements: - The caller must own the token or be an approved operator. - `tokenId` must exist. Emits an {Approval} event."
      },
      "balanceOf(address)": {
        "details": "Returns the number of tokens in `owner`'s account."
      },
      "constructor": {
        "details": "Constructs a new instance of the contract.",
        "params": {
          "_maxSupply": "Maximum supply of tokens.",
          "_name": "Name of the ERC721 token.",
          "_price": "Price of each token in wei.",
          "_symbol": "Symbol of the ERC721 token."
        }
      },
      "getApproved(uint256)": {
        "details": "Returns the account approved for `tokenId` token. Requirements: - `tokenId` must exist."
      },
      "isApprovedForAll(address,address)": {
        "details": "Returns if the `operator` is allowed to manage all of the assets of `owner`. See {setApprovalForAll}."
      },
      "mintAllowList(uint256,bytes32[])": {
        "params": {
          "_proof": "Merkle proof.",
          "_quantity": "Quantity of tokens to mint."
        }
      },
      "mintPublic(uint256)": {
        "params": {
          "_quantity": "Quantity of tokens to mint."
        }
      },
      "name()": {
        "details": "Returns the token collection name."
      },
      "owner()": {
        "details": "Returns the address of the current owner."
      },
      "ownerOf(uint256)": {
        "details": "Returns the owner of the `tokenId` token. Requirements: - `tokenId` must exist."
      },
      "renounceOwnership()": {
        "details": "Leaves the contract without owner. It will not be possible to call `onlyOwner` functions anymore. Can only be called by the current owner. NOTE: Renouncing ownership will leave the contract without an owner, thereby removing any functionality that is only available to the owner."
      },
      "safeTransferFrom(address,address,uint256)": {
        "details": "Equivalent to `safeTransferFrom(from, to, tokenId, '')`."
      },
      "safeTransferFrom(address,address,uint256,bytes)": {
        "details": "Safely transfers `tokenId` token from `from` to `to`. Requirements: - `from` cannot be the zero address. - `to` cannot be the zero address. - `tokenId` token must exist and be owned by `from`. - If the caller is not `from`, it must be approved to move this token by either {approve} or {setApprovalForAll}. - If `to` refers to a smart contract, it must implement {IERC721Receiver-onERC721Received}, which is called upon a safe transfer. Emits a {Transfer} event."
      },
      "setAllowListMintStartBlock(uint256)": {
        "params": {
          "_allowListMintStartBlock": "Block at which the allowlist mint starts."
        }
      },
      "setApprovalForAll(address,bool)": {
        "details": "Approve or remove `operator` as an operator for the caller. Operators can call {transferFrom} or {safeTransferFrom} for any token owned by the caller. Requirements: - The `operator` cannot be the caller. Emits an {ApprovalForAll} event."
      },
      "setPrice(uint256)": {
        "params": {
          "_price": "Price of each token in wei."
        }
      },
      "setPublicMintOffsetBlocks(uint256)": {
        "params": {
          "_publicMintOffsetBlocks": "Number of blocks."
        }
      },
      "supportsInterface(bytes4)": {
        "details": "Returns true if this contract implements the interface defined by `interfaceId`. See the corresponding [EIP section](https://eips.ethereum.org/EIPS/eip-165#how-interfaces-are-identified) to learn more about how these ids are created. This function call must use less than 30000 gas."
      },
      "symbol()": {
        "details": "Returns the token collection symbol."
      },
      "tokenURI(uint256)": {
        "params": {
          "_tokenId": "ID of the token to get the URI for."
        },
        "returns": {
          "_0": "Token URI."
        }
      },
      "totalSupply()": {
        "details": "Returns the total number of tokens in existence. Burned tokens will reduce the count. To get the total number of tokens minted, please see {_totalMinted}."
      },
      "transferFrom(address,address,uint256)": {
        "details": "Transfers `tokenId` from `from` to `to`. Requirements: - `from` cannot be the zero address. - `to` cannot be the zero address. - `tokenId` token must be owned by `from`. - If the caller is not `from`, it must be approved to move this token by either {approve} or {setApprovalForAll}. Emits a {Transfer} event."
      },
      "transferOwnership(address)": {
        "details": "Transfers ownership of the contract to a new account (`newOwner`). Can only be called by the current owner."
      }
    },
    "version": 1
  },
  "userdoc": {
    "errors": {
      "ApprovalCallerNotOwnerNorApproved()": [
        {
          "notice": "The caller must own the token or be an approved operator."
        }
      ],
      "ApprovalQueryForNonexistentToken()": [
        {
          "notice": "The token does not exist."
        }
      ],
      "BalanceQueryForZeroAddress()": [
        {
          "notice": "Cannot query the balance for the zero address."
        }
      ],
      "MintERC2309QuantityExceedsLimit()": [
        {
          "notice": "The `quantity` minted with ERC2309 exceeds the safety limit."
        }
      ],
      "MintToZeroAddress()": [
        {
          "notice": "Cannot mint to the zero address."
        }
      ],
      "MintZeroQuantity()": [
        {
          "notice": "The quantity of tokens minted must be more than zero."
        }
      ],
      "OwnerQueryForNonexistentToken()": [
        {
          "notice": "The token does not exist."
        }
      ],
      "OwnershipNotInitializedForExtraData()": [
        {
          "notice": "The `extraData` cannot be set on an unintialized ownership slot."
        }
      ],
      "TransferCallerNotOwnerNorApproved()": [
        {
          "notice": "The caller must own the token or be an approved operator."
        }
      ],
      "TransferFromIncorrectOwner()": [
        {
          "notice": "The token must be owned by `from`."
        }
      ],
      "TransferToNonERC721ReceiverImplementer()": [
        {
          "notice": "Cannot safely transfer to a contract that does not implement the ERC721Receiver interface."
        }
      ],
      "TransferToZeroAddress()": [
        {
          "notice": "Cannot transfer to the zero address."
        }
      ],
      "URIQueryForNonexistentToken()": [
        {
          "notice": "The token does not exist."
        }
      ]
    },
    "kind": "user",
    "methods": {
      "airdrop(address[],uint256)": {
        "notice": "Airdrops tokens to a list of recipients. Only callable by the contract owner."
      },
      "allowListed(address,bytes32[])": {
        "notice": "Checks if a wallet is on the allowlist given a Merkle proof."
      },
      "hasAllowlistSaleStarted()": {
        "notice": "Checks if allow list sale has started."
      },
      "hasPublicSaleStarted()": {
        "notice": "Checks if public sale has started."
      },
      "mintAllowList(uint256,bytes32[])": {
        "notice": "Mints tokens for the caller if they are on the allowlist."
      },
      "mintPublic(uint256)": {
        "notice": "Mints tokens for the caller if public sale has started."
      },
      "setAllowListMintStartBlock(uint256)": {
        "notice": "Sets the block at which the allowlist mint starts."
      },
      "setPrice(uint256)": {
        "notice": "Sets the price of each token in wei."
      },
      "setPublicMintOffsetBlocks(uint256)": {
        "notice": "Sets the number of blocks after which the public sale starts."
      },
      "tokenURI(uint256)": {
        "notice": "Returns the token URI for a given token ID."
      },
      "withdraw()": {
        "notice": "Withdraws the contract's balance. Only callable by the contract owner."
      }
    },
    "version": 1
  },
  "storageLayout": {
    "storage": [
      {
        "astId": 3550,
        "contract": "contracts/Kaleidoscopes.sol:Kaleidoscopes",
        "label": "_currentIndex",
        "offset": 0,
        "slot": "0",
        "type": "t_uint256"
      },
      {
        "astId": 3552,
        "contract": "contracts/Kaleidoscopes.sol:Kaleidoscopes",
        "label": "_burnCounter",
        "offset": 0,
        "slot": "1",
        "type": "t_uint256"
      },
      {
        "astId": 3554,
        "contract": "contracts/Kaleidoscopes.sol:Kaleidoscopes",
        "label": "_name",
        "offset": 0,
        "slot": "2",
        "type": "t_string_storage"
      },
      {
        "astId": 3556,
        "contract": "contracts/Kaleidoscopes.sol:Kaleidoscopes",
        "label": "_symbol",
        "offset": 0,
        "slot": "3",
        "type": "t_string_storage"
      },
      {
        "astId": 3560,
        "contract": "contracts/Kaleidoscopes.sol:Kaleidoscopes",
        "label": "_packedOwnerships",
        "offset": 0,
        "slot": "4",
        "type": "t_mapping(t_uint256,t_uint256)"
      },
      {
        "astId": 3564,
        "contract": "contracts/Kaleidoscopes.sol:Kaleidoscopes",
        "label": "_packedAddressData",
        "offset": 0,
        "slot": "5",
        "type": "t_mapping(t_address,t_uint256)"
      },
      {
        "astId": 3569,
        "contract": "contracts/Kaleidoscopes.sol:Kaleidoscopes",
        "label": "_tokenApprovals",
        "offset": 0,
        "slot": "6",
        "type": "t_mapping(t_uint256,t_struct(TokenApprovalRef)3482_storage)"
      },
      {
        "astId": 3575,
        "contract": "contracts/Kaleidoscopes.sol:Kaleidoscopes",
        "label": "_operatorApprovals",
        "offset": 0,
        "slot": "7",
        "type": "t_mapping(t_address,t_mapping(t_address,t_bool))"
      },
      {
        "astId": 7,
        "contract": "contracts/Kaleidoscopes.sol:Kaleidoscopes",
        "label": "_owner",
        "offset": 0,
        "slot": "8",
        "type": "t_address"
      },
      {
        "astId": 652,
        "contract": "contracts/Kaleidoscopes.sol:Kaleidoscopes",
        "label": "price",
        "offset": 0,
        "slot": "9",
        "type": "t_uint256"
      },
      {
        "astId": 654,
        "contract": "contracts/Kaleidoscopes.sol:Kaleidoscopes",
        "label": "maxSupply",
        "offset": 0,
        "slot": "10",
        "type": "t_uint256"
      },
      {
        "astId": 660,
        "contract": "contracts/Kaleidoscopes.sol:Kaleidoscopes",
        "label": "renderer",
        "offset": 0,
        "slot": "11",
        "type": "t_contract(Renderer)2787"
      },
      {
        "astId": 662,
        "contract": "contracts/Kaleidoscopes.sol:Kaleidoscopes",
        "label": "merkleRoot",
        "offset": 0,
        "slot": "12",
        "type": "t_bytes32"
      },
      {
        "astId": 664,
        "contract": "contracts/Kaleidoscopes.sol:Kaleidoscopes",
        "label": "allowListMintStartBlock",
        "offset": 0,
        "slot": "13",
        "type": "t_uint256"
      },
      {
        "astId": 666,
        "contract": "contracts/Kaleidoscopes.sol:Kaleidoscopes",
        "label": "publicMintOffsetBlocks",
        "offset": 0,
        "slot": "14",
        "type": "t_uint256"
      }
    ],
    "types": {
      "t_address": {
        "encoding": "inplace",
        "label": "address",
        "numberOfBytes": "20"
      },
      "t_bool": {
        "encoding": "inplace",
        "label": "bool",
        "numberOfBytes": "1"
      },
      "t_bytes32": {
        "encoding": "inplace",
        "label": "bytes32",
        "numberOfBytes": "32"
      },
      "t_contract(Renderer)2787": {
        "encoding": "inplace",
        "label": "contract Renderer",
        "numberOfBytes": "20"
      },
      "t_mapping(t_address,t_bool)": {
        "encoding": "mapping",
        "key": "t_address",
        "label": "mapping(address => bool)",
        "numberOfBytes": "32",
        "value": "t_bool"
      },
      "t_mapping(t_address,t_mapping(t_address,t_bool))": {
        "encoding": "mapping",
        "key": "t_address",
        "label": "mapping(address => mapping(address => bool))",
        "numberOfBytes": "32",
        "value": "t_mapping(t_address,t_bool)"
      },
      "t_mapping(t_address,t_uint256)": {
        "encoding": "mapping",
        "key": "t_address",
        "label": "mapping(address => uint256)",
        "numberOfBytes": "32",
        "value": "t_uint256"
      },
      "t_mapping(t_uint256,t_struct(TokenApprovalRef)3482_storage)": {
        "encoding": "mapping",
        "key": "t_uint256",
        "label": "mapping(uint256 => struct ERC721A.TokenApprovalRef)",
        "numberOfBytes": "32",
        "value": "t_struct(TokenApprovalRef)3482_storage"
      },
      "t_mapping(t_uint256,t_uint256)": {
        "encoding": "mapping",
        "key": "t_uint256",
        "label": "mapping(uint256 => uint256)",
        "numberOfBytes": "32",
        "value": "t_uint256"
      },
      "t_string_storage": {
        "encoding": "bytes",
        "label": "string",
        "numberOfBytes": "32"
      },
      "t_struct(TokenApprovalRef)3482_storage": {
        "encoding": "inplace",
        "label": "struct ERC721A.TokenApprovalRef",
        "members": [
          {
            "astId": 3481,
            "contract": "contracts/Kaleidoscopes.sol:Kaleidoscopes",
            "label": "value",
            "offset": 0,
            "slot": "0",
            "type": "t_address"
          }
        ],
        "numberOfBytes": "32"
      },
      "t_uint256": {
        "encoding": "inplace",
        "label": "uint256",
        "numberOfBytes": "32"
      }
    }
  }
}