{
  "address": "0x7247Bfa7570Da86523B94a10C763c2D69ad08Cfc",
  "abi": [
    {
      "inputs": [
        {
          "components": [
            {
              "internalType": "uint256",
              "name": "tokenId",
              "type": "uint256"
            },
            {
              "internalType": "uint256",
              "name": "repetitions",
              "type": "uint256"
            },
            {
              "internalType": "uint256",
              "name": "numInsideArtifacts",
              "type": "uint256"
            },
            {
              "internalType": "uint256",
              "name": "numOutsideArtifacts",
              "type": "uint256"
            },
            {
              "internalType": "uint256",
              "name": "centerX_precise",
              "type": "uint256"
            },
            {
              "internalType": "uint256",
              "name": "centerY_precise",
              "type": "uint256"
            },
            {
              "internalType": "bool",
              "name": "hasGradient",
              "type": "bool"
            },
            {
              "internalType": "bool",
              "name": "hasSecondaryColor",
              "type": "bool"
            },
            {
              "internalType": "bool",
              "name": "hasSpecialTrait",
              "type": "bool"
            }
          ],
          "internalType": "struct Renderer.Kaleidoscope",
          "name": "_kaleidoscope",
          "type": "tuple"
        },
        {
          "components": [
            {
              "internalType": "uint256",
              "name": "primaryHue",
              "type": "uint256"
            },
            {
              "internalType": "uint256",
              "name": "secondaryHue",
              "type": "uint256"
            },
            {
              "components": [
                {
                  "internalType": "uint256",
                  "name": "h",
                  "type": "uint256"
                },
                {
                  "internalType": "uint256",
                  "name": "s",
                  "type": "uint256"
                },
                {
                  "internalType": "uint256",
                  "name": "l",
                  "type": "uint256"
                }
              ],
              "internalType": "struct utils.HSL",
              "name": "primaryColorHsl",
              "type": "tuple"
            },
            {
              "components": [
                {
                  "internalType": "uint256",
                  "name": "h",
                  "type": "uint256"
                },
                {
                  "internalType": "uint256",
                  "name": "s",
                  "type": "uint256"
                },
                {
                  "internalType": "uint256",
                  "name": "l",
                  "type": "uint256"
                }
              ],
              "internalType": "struct utils.HSL",
              "name": "secondaryColorHsl",
              "type": "tuple"
            },
            {
              "components": [
                {
                  "internalType": "uint256",
                  "name": "h",
                  "type": "uint256"
                },
                {
                  "internalType": "uint256",
                  "name": "s",
                  "type": "uint256"
                },
                {
                  "internalType": "uint256",
                  "name": "l",
                  "type": "uint256"
                }
              ],
              "internalType": "struct utils.HSL",
              "name": "backgroundColorHsl",
              "type": "tuple"
            },
            {
              "components": [
                {
                  "internalType": "uint256",
                  "name": "h",
                  "type": "uint256"
                },
                {
                  "internalType": "uint256",
                  "name": "s",
                  "type": "uint256"
                },
                {
                  "internalType": "uint256",
                  "name": "l",
                  "type": "uint256"
                }
              ],
              "internalType": "struct utils.HSL",
              "name": "darkerSecondaryHsl",
              "type": "tuple"
            },
            {
              "components": [
                {
                  "internalType": "uint256",
                  "name": "h",
                  "type": "uint256"
                },
                {
                  "internalType": "uint256",
                  "name": "s",
                  "type": "uint256"
                },
                {
                  "internalType": "uint256",
                  "name": "l",
                  "type": "uint256"
                }
              ],
              "internalType": "struct utils.HSL[]",
              "name": "primaryColorsHsl",
              "type": "tuple[]"
            },
            {
              "components": [
                {
                  "internalType": "uint256",
                  "name": "h",
                  "type": "uint256"
                },
                {
                  "internalType": "uint256",
                  "name": "s",
                  "type": "uint256"
                },
                {
                  "internalType": "uint256",
                  "name": "l",
                  "type": "uint256"
                }
              ],
              "internalType": "struct utils.HSL[]",
              "name": "secondaryColorsHsl",
              "type": "tuple[]"
            }
          ],
          "internalType": "struct Renderer.ColorPalette",
          "name": "_palette",
          "type": "tuple"
        },
        {
          "internalType": "uint256",
          "name": "_index",
          "type": "uint256"
        }
      ],
      "name": "circleAtIndexForKaleidescope",
      "outputs": [
        {
          "components": [
            {
              "internalType": "int256",
              "name": "x1",
              "type": "int256"
            },
            {
              "internalType": "int256",
              "name": "y1",
              "type": "int256"
            },
            {
              "internalType": "int256",
              "name": "x2",
              "type": "int256"
            },
            {
              "internalType": "int256",
              "name": "y2",
              "type": "int256"
            },
            {
              "internalType": "uint256",
              "name": "radius1",
              "type": "uint256"
            },
            {
              "internalType": "uint256",
              "name": "radius2",
              "type": "uint256"
            },
            {
              "internalType": "uint256",
              "name": "alternatingClass",
              "type": "uint256"
            },
            {
              "internalType": "uint256",
              "name": "duration",
              "type": "uint256"
            },
            {
              "components": [
                {
                  "internalType": "uint256",
                  "name": "h",
                  "type": "uint256"
                },
                {
                  "internalType": "uint256",
                  "name": "s",
                  "type": "uint256"
                },
                {
                  "internalType": "uint256",
                  "name": "l",
                  "type": "uint256"
                }
              ],
              "internalType": "struct utils.HSL",
              "name": "color",
              "type": "tuple"
            }
          ],
          "internalType": "struct Renderer.AnimatedCircle",
          "name": "circle",
          "type": "tuple"
        }
      ],
      "stateMutability": "pure",
      "type": "function"
    },
    {
      "inputs": [
        {
          "components": [
            {
              "internalType": "uint256",
              "name": "tokenId",
              "type": "uint256"
            },
            {
              "internalType": "uint256",
              "name": "repetitions",
              "type": "uint256"
            },
            {
              "internalType": "uint256",
              "name": "numInsideArtifacts",
              "type": "uint256"
            },
            {
              "internalType": "uint256",
              "name": "numOutsideArtifacts",
              "type": "uint256"
            },
            {
              "internalType": "uint256",
              "name": "centerX_precise",
              "type": "uint256"
            },
            {
              "internalType": "uint256",
              "name": "centerY_precise",
              "type": "uint256"
            },
            {
              "internalType": "bool",
              "name": "hasGradient",
              "type": "bool"
            },
            {
              "internalType": "bool",
              "name": "hasSecondaryColor",
              "type": "bool"
            },
            {
              "internalType": "bool",
              "name": "hasSpecialTrait",
              "type": "bool"
            }
          ],
          "internalType": "struct Renderer.Kaleidoscope",
          "name": "_kaleidoscope",
          "type": "tuple"
        }
      ],
      "name": "colorPaletteForKaleidescope",
      "outputs": [
        {
          "components": [
            {
              "internalType": "uint256",
              "name": "primaryHue",
              "type": "uint256"
            },
            {
              "internalType": "uint256",
              "name": "secondaryHue",
              "type": "uint256"
            },
            {
              "components": [
                {
                  "internalType": "uint256",
                  "name": "h",
                  "type": "uint256"
                },
                {
                  "internalType": "uint256",
                  "name": "s",
                  "type": "uint256"
                },
                {
                  "internalType": "uint256",
                  "name": "l",
                  "type": "uint256"
                }
              ],
              "internalType": "struct utils.HSL",
              "name": "primaryColorHsl",
              "type": "tuple"
            },
            {
              "components": [
                {
                  "internalType": "uint256",
                  "name": "h",
                  "type": "uint256"
                },
                {
                  "internalType": "uint256",
                  "name": "s",
                  "type": "uint256"
                },
                {
                  "internalType": "uint256",
                  "name": "l",
                  "type": "uint256"
                }
              ],
              "internalType": "struct utils.HSL",
              "name": "secondaryColorHsl",
              "type": "tuple"
            },
            {
              "components": [
                {
                  "internalType": "uint256",
                  "name": "h",
                  "type": "uint256"
                },
                {
                  "internalType": "uint256",
                  "name": "s",
                  "type": "uint256"
                },
                {
                  "internalType": "uint256",
                  "name": "l",
                  "type": "uint256"
                }
              ],
              "internalType": "struct utils.HSL",
              "name": "backgroundColorHsl",
              "type": "tuple"
            },
            {
              "components": [
                {
                  "internalType": "uint256",
                  "name": "h",
                  "type": "uint256"
                },
                {
                  "internalType": "uint256",
                  "name": "s",
                  "type": "uint256"
                },
                {
                  "internalType": "uint256",
                  "name": "l",
                  "type": "uint256"
                }
              ],
              "internalType": "struct utils.HSL",
              "name": "darkerSecondaryHsl",
              "type": "tuple"
            },
            {
              "components": [
                {
                  "internalType": "uint256",
                  "name": "h",
                  "type": "uint256"
                },
                {
                  "internalType": "uint256",
                  "name": "s",
                  "type": "uint256"
                },
                {
                  "internalType": "uint256",
                  "name": "l",
                  "type": "uint256"
                }
              ],
              "internalType": "struct utils.HSL[]",
              "name": "primaryColorsHsl",
              "type": "tuple[]"
            },
            {
              "components": [
                {
                  "internalType": "uint256",
                  "name": "h",
                  "type": "uint256"
                },
                {
                  "internalType": "uint256",
                  "name": "s",
                  "type": "uint256"
                },
                {
                  "internalType": "uint256",
                  "name": "l",
                  "type": "uint256"
                }
              ],
              "internalType": "struct utils.HSL[]",
              "name": "secondaryColorsHsl",
              "type": "tuple[]"
            }
          ],
          "internalType": "struct Renderer.ColorPalette",
          "name": "palette",
          "type": "tuple"
        }
      ],
      "stateMutability": "pure",
      "type": "function"
    },
    {
      "inputs": [
        {
          "components": [
            {
              "internalType": "int256",
              "name": "x1",
              "type": "int256"
            },
            {
              "internalType": "int256",
              "name": "y1",
              "type": "int256"
            },
            {
              "internalType": "int256",
              "name": "x2",
              "type": "int256"
            },
            {
              "internalType": "int256",
              "name": "y2",
              "type": "int256"
            },
            {
              "internalType": "uint256",
              "name": "radius1",
              "type": "uint256"
            },
            {
              "internalType": "uint256",
              "name": "radius2",
              "type": "uint256"
            },
            {
              "internalType": "uint256",
              "name": "alternatingClass",
              "type": "uint256"
            },
            {
              "internalType": "uint256",
              "name": "duration",
              "type": "uint256"
            },
            {
              "components": [
                {
                  "internalType": "uint256",
                  "name": "h",
                  "type": "uint256"
                },
                {
                  "internalType": "uint256",
                  "name": "s",
                  "type": "uint256"
                },
                {
                  "internalType": "uint256",
                  "name": "l",
                  "type": "uint256"
                }
              ],
              "internalType": "struct utils.HSL",
              "name": "color",
              "type": "tuple"
            }
          ],
          "internalType": "struct Renderer.AnimatedCircle",
          "name": "_circle",
          "type": "tuple"
        }
      ],
      "name": "getCircleSVG",
      "outputs": [
        {
          "internalType": "string",
          "name": "",
          "type": "string"
        }
      ],
      "stateMutability": "pure",
      "type": "function"
    },
    {
      "inputs": [
        {
          "components": [
            {
              "internalType": "uint256",
              "name": "tokenId",
              "type": "uint256"
            },
            {
              "internalType": "uint256",
              "name": "repetitions",
              "type": "uint256"
            },
            {
              "internalType": "uint256",
              "name": "numInsideArtifacts",
              "type": "uint256"
            },
            {
              "internalType": "uint256",
              "name": "numOutsideArtifacts",
              "type": "uint256"
            },
            {
              "internalType": "uint256",
              "name": "centerX_precise",
              "type": "uint256"
            },
            {
              "internalType": "uint256",
              "name": "centerY_precise",
              "type": "uint256"
            },
            {
              "internalType": "bool",
              "name": "hasGradient",
              "type": "bool"
            },
            {
              "internalType": "bool",
              "name": "hasSecondaryColor",
              "type": "bool"
            },
            {
              "internalType": "bool",
              "name": "hasSpecialTrait",
              "type": "bool"
            }
          ],
          "internalType": "struct Renderer.Kaleidoscope",
          "name": "_kaleidoscope",
          "type": "tuple"
        },
        {
          "components": [
            {
              "internalType": "uint256",
              "name": "primaryHue",
              "type": "uint256"
            },
            {
              "internalType": "uint256",
              "name": "secondaryHue",
              "type": "uint256"
            },
            {
              "components": [
                {
                  "internalType": "uint256",
                  "name": "h",
                  "type": "uint256"
                },
                {
                  "internalType": "uint256",
                  "name": "s",
                  "type": "uint256"
                },
                {
                  "internalType": "uint256",
                  "name": "l",
                  "type": "uint256"
                }
              ],
              "internalType": "struct utils.HSL",
              "name": "primaryColorHsl",
              "type": "tuple"
            },
            {
              "components": [
                {
                  "internalType": "uint256",
                  "name": "h",
                  "type": "uint256"
                },
                {
                  "internalType": "uint256",
                  "name": "s",
                  "type": "uint256"
                },
                {
                  "internalType": "uint256",
                  "name": "l",
                  "type": "uint256"
                }
              ],
              "internalType": "struct utils.HSL",
              "name": "secondaryColorHsl",
              "type": "tuple"
            },
            {
              "components": [
                {
                  "internalType": "uint256",
                  "name": "h",
                  "type": "uint256"
                },
                {
                  "internalType": "uint256",
                  "name": "s",
                  "type": "uint256"
                },
                {
                  "internalType": "uint256",
                  "name": "l",
                  "type": "uint256"
                }
              ],
              "internalType": "struct utils.HSL",
              "name": "backgroundColorHsl",
              "type": "tuple"
            },
            {
              "components": [
                {
                  "internalType": "uint256",
                  "name": "h",
                  "type": "uint256"
                },
                {
                  "internalType": "uint256",
                  "name": "s",
                  "type": "uint256"
                },
                {
                  "internalType": "uint256",
                  "name": "l",
                  "type": "uint256"
                }
              ],
              "internalType": "struct utils.HSL",
              "name": "darkerSecondaryHsl",
              "type": "tuple"
            },
            {
              "components": [
                {
                  "internalType": "uint256",
                  "name": "h",
                  "type": "uint256"
                },
                {
                  "internalType": "uint256",
                  "name": "s",
                  "type": "uint256"
                },
                {
                  "internalType": "uint256",
                  "name": "l",
                  "type": "uint256"
                }
              ],
              "internalType": "struct utils.HSL[]",
              "name": "primaryColorsHsl",
              "type": "tuple[]"
            },
            {
              "components": [
                {
                  "internalType": "uint256",
                  "name": "h",
                  "type": "uint256"
                },
                {
                  "internalType": "uint256",
                  "name": "s",
                  "type": "uint256"
                },
                {
                  "internalType": "uint256",
                  "name": "l",
                  "type": "uint256"
                }
              ],
              "internalType": "struct utils.HSL[]",
              "name": "secondaryColorsHsl",
              "type": "tuple[]"
            }
          ],
          "internalType": "struct Renderer.ColorPalette",
          "name": "_palette",
          "type": "tuple"
        }
      ],
      "name": "getKaleidoscopeSVG",
      "outputs": [
        {
          "internalType": "string",
          "name": "",
          "type": "string"
        }
      ],
      "stateMutability": "pure",
      "type": "function"
    },
    {
      "inputs": [
        {
          "components": [
            {
              "internalType": "uint256",
              "name": "width",
              "type": "uint256"
            },
            {
              "internalType": "uint256",
              "name": "height",
              "type": "uint256"
            },
            {
              "internalType": "uint256",
              "name": "x",
              "type": "uint256"
            },
            {
              "internalType": "uint256",
              "name": "y",
              "type": "uint256"
            },
            {
              "internalType": "uint256",
              "name": "duration",
              "type": "uint256"
            },
            {
              "components": [
                {
                  "internalType": "uint256",
                  "name": "h",
                  "type": "uint256"
                },
                {
                  "internalType": "uint256",
                  "name": "s",
                  "type": "uint256"
                },
                {
                  "internalType": "uint256",
                  "name": "l",
                  "type": "uint256"
                }
              ],
              "internalType": "struct utils.HSL",
              "name": "color",
              "type": "tuple"
            }
          ],
          "internalType": "struct Renderer.AnimatedRectangle",
          "name": "_rectangle",
          "type": "tuple"
        }
      ],
      "name": "getRectangleSVG",
      "outputs": [
        {
          "internalType": "string",
          "name": "",
          "type": "string"
        }
      ],
      "stateMutability": "pure",
      "type": "function"
    },
    {
      "inputs": [
        {
          "internalType": "uint256",
          "name": "_tokenId",
          "type": "uint256"
        }
      ],
      "name": "kaleidoscopeForTokenId",
      "outputs": [
        {
          "components": [
            {
              "internalType": "uint256",
              "name": "tokenId",
              "type": "uint256"
            },
            {
              "internalType": "uint256",
              "name": "repetitions",
              "type": "uint256"
            },
            {
              "internalType": "uint256",
              "name": "numInsideArtifacts",
              "type": "uint256"
            },
            {
              "internalType": "uint256",
              "name": "numOutsideArtifacts",
              "type": "uint256"
            },
            {
              "internalType": "uint256",
              "name": "centerX_precise",
              "type": "uint256"
            },
            {
              "internalType": "uint256",
              "name": "centerY_precise",
              "type": "uint256"
            },
            {
              "internalType": "bool",
              "name": "hasGradient",
              "type": "bool"
            },
            {
              "internalType": "bool",
              "name": "hasSecondaryColor",
              "type": "bool"
            },
            {
              "internalType": "bool",
              "name": "hasSpecialTrait",
              "type": "bool"
            }
          ],
          "internalType": "struct Renderer.Kaleidoscope",
          "name": "kaleidoscope",
          "type": "tuple"
        }
      ],
      "stateMutability": "pure",
      "type": "function"
    },
    {
      "inputs": [
        {
          "internalType": "uint256",
          "name": "_tokenId",
          "type": "uint256"
        }
      ],
      "name": "metadata",
      "outputs": [
        {
          "components": [
            {
              "internalType": "uint256",
              "name": "tokenId",
              "type": "uint256"
            },
            {
              "internalType": "uint256",
              "name": "repetitions",
              "type": "uint256"
            },
            {
              "internalType": "uint256",
              "name": "numInsideArtifacts",
              "type": "uint256"
            },
            {
              "internalType": "uint256",
              "name": "numOutsideArtifacts",
              "type": "uint256"
            },
            {
              "internalType": "uint256",
              "name": "centerX_precise",
              "type": "uint256"
            },
            {
              "internalType": "uint256",
              "name": "centerY_precise",
              "type": "uint256"
            },
            {
              "internalType": "bool",
              "name": "hasGradient",
              "type": "bool"
            },
            {
              "internalType": "bool",
              "name": "hasSecondaryColor",
              "type": "bool"
            },
            {
              "internalType": "bool",
              "name": "hasSpecialTrait",
              "type": "bool"
            }
          ],
          "internalType": "struct Renderer.Kaleidoscope",
          "name": "",
          "type": "tuple"
        }
      ],
      "stateMutability": "pure",
      "type": "function"
    },
    {
      "inputs": [
        {
          "components": [
            {
              "internalType": "uint256",
              "name": "tokenId",
              "type": "uint256"
            },
            {
              "internalType": "uint256",
              "name": "repetitions",
              "type": "uint256"
            },
            {
              "internalType": "uint256",
              "name": "numInsideArtifacts",
              "type": "uint256"
            },
            {
              "internalType": "uint256",
              "name": "numOutsideArtifacts",
              "type": "uint256"
            },
            {
              "internalType": "uint256",
              "name": "centerX_precise",
              "type": "uint256"
            },
            {
              "internalType": "uint256",
              "name": "centerY_precise",
              "type": "uint256"
            },
            {
              "internalType": "bool",
              "name": "hasGradient",
              "type": "bool"
            },
            {
              "internalType": "bool",
              "name": "hasSecondaryColor",
              "type": "bool"
            },
            {
              "internalType": "bool",
              "name": "hasSpecialTrait",
              "type": "bool"
            }
          ],
          "internalType": "struct Renderer.Kaleidoscope",
          "name": "_kaleidoscope",
          "type": "tuple"
        },
        {
          "components": [
            {
              "internalType": "uint256",
              "name": "primaryHue",
              "type": "uint256"
            },
            {
              "internalType": "uint256",
              "name": "secondaryHue",
              "type": "uint256"
            },
            {
              "components": [
                {
                  "internalType": "uint256",
                  "name": "h",
                  "type": "uint256"
                },
                {
                  "internalType": "uint256",
                  "name": "s",
                  "type": "uint256"
                },
                {
                  "internalType": "uint256",
                  "name": "l",
                  "type": "uint256"
                }
              ],
              "internalType": "struct utils.HSL",
              "name": "primaryColorHsl",
              "type": "tuple"
            },
            {
              "components": [
                {
                  "internalType": "uint256",
                  "name": "h",
                  "type": "uint256"
                },
                {
                  "internalType": "uint256",
                  "name": "s",
                  "type": "uint256"
                },
                {
                  "internalType": "uint256",
                  "name": "l",
                  "type": "uint256"
                }
              ],
              "internalType": "struct utils.HSL",
              "name": "secondaryColorHsl",
              "type": "tuple"
            },
            {
              "components": [
                {
                  "internalType": "uint256",
                  "name": "h",
                  "type": "uint256"
                },
                {
                  "internalType": "uint256",
                  "name": "s",
                  "type": "uint256"
                },
                {
                  "internalType": "uint256",
                  "name": "l",
                  "type": "uint256"
                }
              ],
              "internalType": "struct utils.HSL",
              "name": "backgroundColorHsl",
              "type": "tuple"
            },
            {
              "components": [
                {
                  "internalType": "uint256",
                  "name": "h",
                  "type": "uint256"
                },
                {
                  "internalType": "uint256",
                  "name": "s",
                  "type": "uint256"
                },
                {
                  "internalType": "uint256",
                  "name": "l",
                  "type": "uint256"
                }
              ],
              "internalType": "struct utils.HSL",
              "name": "darkerSecondaryHsl",
              "type": "tuple"
            },
            {
              "components": [
                {
                  "internalType": "uint256",
                  "name": "h",
                  "type": "uint256"
                },
                {
                  "internalType": "uint256",
                  "name": "s",
                  "type": "uint256"
                },
                {
                  "internalType": "uint256",
                  "name": "l",
                  "type": "uint256"
                }
              ],
              "internalType": "struct utils.HSL[]",
              "name": "primaryColorsHsl",
              "type": "tuple[]"
            },
            {
              "components": [
                {
                  "internalType": "uint256",
                  "name": "h",
                  "type": "uint256"
                },
                {
                  "internalType": "uint256",
                  "name": "s",
                  "type": "uint256"
                },
                {
                  "internalType": "uint256",
                  "name": "l",
                  "type": "uint256"
                }
              ],
              "internalType": "struct utils.HSL[]",
              "name": "secondaryColorsHsl",
              "type": "tuple[]"
            }
          ],
          "internalType": "struct Renderer.ColorPalette",
          "name": "_palette",
          "type": "tuple"
        },
        {
          "internalType": "uint256",
          "name": "_index",
          "type": "uint256"
        }
      ],
      "name": "rectangleAtIndexForKaleidescope",
      "outputs": [
        {
          "components": [
            {
              "internalType": "uint256",
              "name": "width",
              "type": "uint256"
            },
            {
              "internalType": "uint256",
              "name": "height",
              "type": "uint256"
            },
            {
              "internalType": "uint256",
              "name": "x",
              "type": "uint256"
            },
            {
              "internalType": "uint256",
              "name": "y",
              "type": "uint256"
            },
            {
              "internalType": "uint256",
              "name": "duration",
              "type": "uint256"
            },
            {
              "components": [
                {
                  "internalType": "uint256",
                  "name": "h",
                  "type": "uint256"
                },
                {
                  "internalType": "uint256",
                  "name": "s",
                  "type": "uint256"
                },
                {
                  "internalType": "uint256",
                  "name": "l",
                  "type": "uint256"
                }
              ],
              "internalType": "struct utils.HSL",
              "name": "color",
              "type": "tuple"
            }
          ],
          "internalType": "struct Renderer.AnimatedRectangle",
          "name": "rectangle",
          "type": "tuple"
        }
      ],
      "stateMutability": "pure",
      "type": "function"
    },
    {
      "inputs": [
        {
          "internalType": "uint256",
          "name": "_tokenId",
          "type": "uint256"
        }
      ],
      "name": "render",
      "outputs": [
        {
          "internalType": "string",
          "name": "",
          "type": "string"
        }
      ],
      "stateMutability": "pure",
      "type": "function"
    }
  ],
  "transactionHash": "0x07f7fed9c76f9c512f471a5eb0cbec8d4cce2bf9bb597960467701fc036d93c1",
  "args": [],
  "numDeployments": 5,
  "solcInputHash": "fd0c96fb224398336959f29321ba0b91",
  "bytecode": "0x608060405234801561001057600080fd5b50614e62806100206000396000f3fe608060405234801561001057600080fd5b50600436106100935760003560e01c8063aa9e7e7511610066578063aa9e7e7514610158578063b3c34a5014610188578063c321118c146101b8578063d6cf5f55146101e8578063e3684e391461021857610093565b80631ac48ab1146100985780637d11e69c146100c85780638a0e9ad7146100f857806391b078a414610128575b600080fd5b6100b260048036038101906100ad9190612141565b610248565b6040516100bf91906121ee565b60405180910390f35b6100e260048036038101906100dd91906124fb565b6104cc565b6040516100ef91906121ee565b60405180910390f35b610112600480360381019061010d9190612559565b610c4e565b60405161011f9190612698565b60405180910390f35b610142600480360381019061013d91906126b4565b610e3a565b60405161014f919061284c565b60405180910390f35b610172600480360381019061016d919061290f565b6110c6565b60405161017f91906121ee565b60405180910390f35b6101a2600480360381019061019d9190612559565b6111e8565b6040516101af9190612a03565b60405180910390f35b6101d260048036038101906101cd9190612a1f565b6115bc565b6040516101df91906121ee565b60405180910390f35b61020260048036038101906101fd9190612a1f565b611603565b60405161020f9190612b12565b60405180910390f35b610232600480360381019061022d9190612a1f565b61187a565b60405161023f9190612b12565b60405180910390f35b606060006102598360800151611898565b6102668460a00151611898565b6102738560800151611898565b6102808660a00151611898565b61029960028860e001516102949190612b5d565b611898565b6040516020016102ad959493929190612cd7565b6040516020818303038152906040529050806102cc8460200151611a20565b6102d98560600151611a20565b6102e68660200151611a20565b6102f38760600151611a20565b61030c60028960e001516103079190612b5d565b611898565b60405160200161032196959493929190612dea565b6040516020818303038152906040529050806103408460000151611a20565b61034d8560400151611a20565b61035a8660000151611a20565b6103678760400151611a20565b61038060028960e0015161037b9190612b5d565b611898565b60405160200161039596959493929190612f0a565b60405160208183030381529060405290506103ce6002846040015185600001516103bf9190612fb8565b6103c9919061302b565b611a20565b6103f66002856060015186602001516103e79190612fb8565b6103f1919061302b565b611a20565b61041e60028660a00151876080015161040f9190613095565b61041991906130c9565b611898565b738C7EA5ce359a9FeB86b7D74Cc1c99D8718A4830f636e6472588761010001516040518263ffffffff1660e01b815260040161045a919061314b565b600060405180830381865af4158015610477573d6000803e3d6000fd5b505050506040513d6000823e3d601f19601f820116820180604052508101906104a0919061320c565b846040516020016104b5959493929190613339565b604051602081830303815290604052915050919050565b6060600060405180602001604052806000815250905060005b84606001518110156105405760006104fe868684610c4e565b90508261050a826110c6565b60405160200161051b9291906133de565b604051602081830303815290604052925050808061053890613402565b9150506104e5565b50600060405180602001604052806000815250905060005b85604001518110156105b35760006105718787846111e8565b90508261057d82610248565b60405160200161058e9291906133de565b60405160208183030381529060405292505080806105ab90613402565b915050610558565b5060006040518060200160405280600081525090506000866020015163d693a4006105de91906130c9565b905060005b876020015181101561065b578261060682846105ff9190612b5d565b6007611a74565b6106158a608001516007611a74565b6106248b60a001516007611a74565b6040516020016106379493929190613508565b6040516020818303038152906040529250808061065390613402565b9150506105e3565b50600061066d88608001516007611a74565b61067c8960a001516007611a74565b61069760028b608001516106909190612b5d565b6007611a74565b6106a160c8611898565b6106ab60c8611898565b6040516020016106bf959493929190613662565b604051602081830303815290604052905060006106dd6101f4611898565b6106e86101f4611898565b6106f36101f4611898565b6106fe6101f4611898565b610808738C7EA5ce359a9FeB86b7D74Cc1c99D8718A4830f636e6472588e604001516040518263ffffffff1660e01b815260040161073c919061314b565b600060405180830381865af4158015610759573d6000803e3d6000fd5b505050506040513d6000823e3d601f19601f82011682018060405250810190610782919061320c565b738C7EA5ce359a9FeB86b7D74Cc1c99D8718A4830f636e6472588f60a001516040518263ffffffff1660e01b81526004016107bd919061314b565b600060405180830381865af41580156107da573d6000803e3d6000fd5b505050506040513d6000823e3d601f19601f82011682018060405250810190610803919061320c565b611ade565b8661081360c8611898565b610829600260c86108249190612b5d565b611898565b61083f600260c861083a9190612b5d565b611898565b604051602001610857999897969594939291906138c7565b6040516020818303038152906040529050808960c001516108f857738C7EA5ce359a9FeB86b7D74Cc1c99D8718A4830f636e6472588a604001516040518263ffffffff1660e01b81526004016108ad919061314b565b600060405180830381865af41580156108ca573d6000803e3d6000fd5b505050506040513d6000823e3d601f19601f820116820180604052508101906108f3919061320c565b61092f565b6040518060400160405280600e81526020017f75726c28236772616469656e74290000000000000000000000000000000000008152505b87876040516020016109449493929190613a20565b6040516020818303038152906040529050806109616101f4611898565b61096c6101f4611898565b738C7EA5ce359a9FeB86b7D74Cc1c99D8718A4830f636e6472588c608001516040518263ffffffff1660e01b81526004016109a7919061314b565b600060405180830381865af41580156109c4573d6000803e3d6000fd5b505050506040513d6000823e3d601f19601f820116820180604052508101906109ed919061320c565b610a2b6007600a6109fe9190613baf565b8e60800151610a0d91906130c9565b60026101f4610a1c91906130c9565b610a269190613bfa565b611898565b604051602001610a3f959493929190613cec565b60405160208183030381529060405290506000610a618a608001516007611a74565b610a708b60a001516007611a74565b604051602001610a81929190613d8d565b6040516020818303038152906040529050600081610aab600860c8610aa69190613095565b611898565b8c6101000151610aca5760405180602001604052806000815250610ae4565b604051806060016040528060228152602001614e0b602291395b604051602001610af693929190613e2a565b604051602081830303815290604052905082610b466007600a610b199190613baf565b8d60a00151610b2891906130c9565b60026101f4610b3791906130c9565b610b419190613bfa565b611898565b83610b5160c8611898565b738C7EA5ce359a9FeB86b7D74Cc1c99D8718A4830f636e6472588f604001516040518263ffffffff1660e01b8152600401610b8c919061314b565b600060405180830381865af4158015610ba9573d6000803e3d6000fd5b505050506040513d6000823e3d601f19601f82011682018060405250810190610bd2919061320c565b8f6101000151610bf15760405180602001604052806000815250610bf3565b855b604051602001610c0896959493929190613ec5565b60405160208183030381529060405292508286604051602001610c2c929190613f7f565b6040516020818303038152906040529250829850505050505050505092915050565b610c56611d89565b610cd18460000151610c6784611898565b604051602001610c779190613fe7565b60405160208183030381529060405260026007600a610c969190613baf565b8860a00151610ca591906130c9565b610caf91906130c9565b6007600a610cbd9190613baf565b8860a00151610ccc91906130c9565b611b0a565b816000018181525050610d558460000151610ceb84611898565b604051602001610cfb9190614033565b6040516020818303038152906040526007600a610d189190613baf565b8760a00151610d2791906130c9565b600860c8610d3591906130c9565b60028960a00151610d469190612b5d565b610d509190613095565b611b0a565b81602001818152505060008160400181815250506007600a610d779190613baf565b8460a00151610d8691906130c9565b816060018181525050610dc88460000151610da084611898565b604051602001610db0919061407f565b6040516020818303038152906040526005600a611b0a565b8160800181815250506000600283610de091906140a5565b14610e0a578260e00151600081518110610dfd57610dfc6140d6565b5b6020026020010151610e2b565b8260c00151600081518110610e2257610e216140d6565b5b60200260200101515b8160a001819052509392505050565b610e42611dc5565b610e8a82600001516040518060400160405280600a81526020017f7072696d617279487565000000000000000000000000000000000000000000008152506000610168611b0a565b8160000181815250508160e00151610ea6578060000151610ec5565b61016860f08260000151610eba9190613095565b610ec491906140a5565b5b81602001818152505060405180606001604052808260000151815260200160648152602001601e8152508160400181905250604051806060016040528082602001518152602001606481526020016046815250816060018190525060405180606001604052808260000151815260200160648152602001600a81525081608001819052506040518060600160405280610168600a8460000151610f689190613095565b610f7291906140a5565b815260200160648152602001600a8152508160a00181905250738C7EA5ce359a9FeB86b7D74Cc1c99D8718A4830f635c1b88f9826000015160018560400151610fbb9190613095565b6040518363ffffffff1660e01b8152600401610fd8929190614114565b600060405180830381865af4158015610ff5573d6000803e3d6000fd5b505050506040513d6000823e3d601f19601f8201168201806040525081019061101e919061424d565b8160c00181905250738C7EA5ce359a9FeB86b7D74Cc1c99D8718A4830f635c1b88f98260200151600185604001516110569190613095565b6040518363ffffffff1660e01b8152600401611073929190614114565b600060405180830381865af4158015611090573d6000803e3d6000fd5b505050506040513d6000823e3d601f19601f820116820180604052508101906110b9919061424d565b8160e00181905250919050565b606060006110d78360600151611898565b6110e48460600151611898565b6110f18560800151611898565b604051602001611103939291906143a0565b60405160208183030381529060405290506111218360600151611898565b61112e8460000151611898565b61113b8560200151611898565b738C7EA5ce359a9FeB86b7D74Cc1c99D8718A4830f636e6472588760a001516040518263ffffffff1660e01b8152600401611176919061314b565b600060405180830381865af4158015611193573d6000803e3d6000fd5b505050506040513d6000823e3d601f19601f820116820180604052508101906111bc919061320c565b846040516020016111d1959493929190614455565b604051602081830303815290604052915050919050565b6111f0611e22565b6000600860c861120091906130c9565b6007600a61120e9190613baf565b8660a0015161121d91906130c9565b6112279190613095565b9050611261856000015161123a85611898565b60405160200161124a9190614520565b604051602081830303815290604052601484611b0a565b8260200181815250506112a2856000015161127b85611898565b60405160200161128b919061456c565b604051602081830303815290604052601484611b0a565b8260600181815250506112e485600001516112bc85611898565b6040516020016112cc91906145b8565b60405160208183030381529060405260006003611b0a565b8260c0018181525050816060015182602001511380156113145750600060028360c0015161131291906140a5565b145b1561133c57600082602001519050826060015183602001818152505080836060018181525050505b600085608001516103e88760a001516113559190612b5d565b61135f91906130c9565b9050600060026007600a6113739190613baf565b886080015161138291906130c9565b61138c9190612b5d565b90506113d96103e8846103e887602001516113a79190612b5d565b6113b191906130c9565b6103e86113be9190613bfa565b836113c99190612b5d565b6113d391906130c9565b82611b7a565b84608001818152505061142d6103e8846103e887606001516113fb9190612b5d565b61140591906130c9565b6103e86114129190613bfa565b8361141d9190612b5d565b61142791906130c9565b82611b7a565b8460a00181815250506000826103e8866020015161144b91906145de565b611455919061302b565b90506002856080015161146891906145de565b8161147391906146f5565b8560000181815250506000836103e8876060015161149191906145de565b61149b919061302b565b905060028660a001516114ae91906145de565b816007600a6114bd9190613baf565b8b608001516114cc91906130c9565b60026114d891906145de565b6114e291906146f5565b6114ec9190612fb8565b86604001818152505061152e896000015161150689611898565b604051602001611516919061475e565b60405160208183030381529060405260036007611b0a565b8660e0018181525050600060028861154691906140a5565b1461157b578760e0015160018861155d9190613095565b8151811061156e5761156d6140d6565b5b60200260200101516115a7565b8760c0015160018861158d9190613095565b8151811061159e5761159d6140d6565b5b60200260200101515b86610100018190525050505050509392505050565b606060006115c983611603565b905060018161010001901515908115158152505060006115e882610e3a565b905060006115f683836104cc565b9050809350505050919050565b61160b611e74565b81816000018181525050611658826040518060400160405280600b81526020017f72657065746974696f6e7300000000000000000000000000000000000000000081525060036014611b0a565b8160200181815250506116a4826040518060400160405280601281526020017f6e756d496e7369646541727469666163747300000000000000000000000000008152506003600a611b0a565b8160400181815250506116f0826040518060400160405280601381526020017f6e756d4f7574736964654172746966616374730000000000000000000000000081525060016004611b0a565b816060018181525050600561173e836040518060400160405280600b81526020017f6861734772616469656e740000000000000000000000000000000000000000008152506001600a611b0a565b148160c00190151590811515815250506008611793836040518060400160405280600e81526020017f7365636f6e64617279436f6c6f7200000000000000000000000000000000000081525060016008611b0a565b148160e0019015159081151581525050600060b4672b992ddfa23249d6600284602001516101686117c491906130c9565b60b46117d09190613bfa565b6117da91906130c9565b6117e49190612b5d565b6117ee91906130c9565b9050600760126117fe9190613bfa565b600a61180a9190613baf565b61181382611b93565b60c861181f91906145de565b611829919061302b565b826080018181525050600760126118409190613bfa565b600a61184c9190613baf565b61185582611bc0565b60c861186191906145de565b61186b919061302b565b8260a001818152505050919050565b611882611e74565b600061188d83611603565b905080915050919050565b6060600082036118df576040518060400160405280600181526020017f30000000000000000000000000000000000000000000000000000000000000008152509050611a1b565b600082905060005b600082146119115780806118fa90613402565b915050600a8261190a91906130c9565b91506118e7565b60008167ffffffffffffffff81111561192d5761192c611f11565b5b6040519080825280601f01601f19166020018201604052801561195f5781602001600182028036833780820191505090505b50905060008290505b60008614611a135760018161197d9190613bfa565b90506000600a808861198f91906130c9565b6119999190612b5d565b876119a49190613bfa565b60306119b09190614791565b905060008160f81b9050808484815181106119ce576119cd6140d6565b5b60200101907effffffffffffffffffffffffffffffffffffffffffffffffffffffffffffff1916908160001a905350600a88611a0a91906130c9565b97505050611968565b819450505050505b919050565b60606000821215611a6357611a3d82611a38906147c6565b611898565b604051602001611a4d9190614834565b6040516020818303038152906040529050611a6f565b611a6c82611898565b90505b919050565b6060611a9682600a611a869190613baf565b84611a9191906130c9565b611898565b611ab683600a611aa69190613baf565b85611ab191906140a5565b611898565b604051602001611ac7929190614880565b604051602081830303815290604052905092915050565b60608282604051602001611af3929190614971565b604051602081830303815290604052905092915050565b600080611b3f85611b1a88611898565b604051602001611b2b9291906133de565b604051602081830303815290604052611d56565b90508360018585611b509190613bfa565b611b5a9190613095565b82611b6591906140a5565b611b6f9190613095565b915050949350505050565b6000818310611b895781611b8b565b825b905092915050565b6000611bb96002672b992ddfa23249d681611bb157611bb0612ffc565b5b048301611bc0565b9050919050565b6000672b992ddfa23249d6600202672b992ddfa23249d66002028381611be957611be8612ffc565b5b06634000000063ffffffff160281611c0457611c03612ffc565b5b0491506000600160106001901b0360106008601c030384901c1690506000600160086001901b036008601c0385901c169050600080631000000063ffffffff168616149050600080632000000063ffffffff1687161415905081611c6d57826001610100030392505b60006040518061044001604052806104048152602001614a07610404913990506000600460ff1660028601029050600081830151905060006001600460080260ff166001901b03600460080260ff1683901c16905060006001600460080260ff166001901b0383169050600060108a84840302901c9050600088611cf357818303611cf7565b8184015b90508715611d25577fffffffffffffffffffffffffffffffffffffffffffffffffffffffffffffffff810290505b637fffffff670de0b6b3a7640000820281611d4357611d42612ffc565b5b059b505050505050505050505050919050565b600081604051602001611d6991906149ef565b6040516020818303038152906040528051906020012060001c9050919050565b6040518060c001604052806000815260200160008152602001600081526020016000815260200160008152602001611dbf611ec6565b81525090565b6040518061010001604052806000815260200160008152602001611de7611ec6565b8152602001611df4611ec6565b8152602001611e01611ec6565b8152602001611e0e611ec6565b815260200160608152602001606081525090565b6040518061012001604052806000815260200160008152602001600081526020016000815260200160008152602001600081526020016000815260200160008152602001611e6e611ec6565b81525090565b6040518061012001604052806000815260200160008152602001600081526020016000815260200160008152602001600081526020016000151581526020016000151581526020016000151581525090565b60405180606001604052806000815260200160008152602001600081525090565b6000604051905090565b600080fd5b600080fd5b600080fd5b6000601f19601f8301169050919050565b7f4e487b7100000000000000000000000000000000000000000000000000000000600052604160045260246000fd5b611f4982611f00565b810181811067ffffffffffffffff82111715611f6857611f67611f11565b5b80604052505050565b6000611f7b611ee7565b9050611f878282611f40565b919050565b600080fd5b6000819050919050565b611fa481611f91565b8114611faf57600080fd5b50565b600081359050611fc181611f9b565b92915050565b6000819050919050565b611fda81611fc7565b8114611fe557600080fd5b50565b600081359050611ff781611fd1565b92915050565b60006060828403121561201357612012611efb565b5b61201d6060611f71565b9050600061202d84828501611fe8565b600083015250602061204184828501611fe8565b602083015250604061205584828501611fe8565b60408301525092915050565b6000610160828403121561207857612077611efb565b5b612083610120611f71565b9050600061209384828501611fb2565b60008301525060206120a784828501611fb2565b60208301525060406120bb84828501611fb2565b60408301525060606120cf84828501611fb2565b60608301525060806120e384828501611fe8565b60808301525060a06120f784828501611fe8565b60a08301525060c061210b84828501611fe8565b60c08301525060e061211f84828501611fe8565b60e08301525061010061213484828501611ffd565b6101008301525092915050565b6000610160828403121561215857612157611ef1565b5b600061216684828501612061565b91505092915050565b600081519050919050565b600082825260208201905092915050565b60005b838110156121a957808201518184015260208101905061218e565b60008484015250505050565b60006121c08261216f565b6121ca818561217a565b93506121da81856020860161218b565b6121e381611f00565b840191505092915050565b6000602082019050818103600083015261220881846121b5565b905092915050565b60008115159050919050565b61222581612210565b811461223057600080fd5b50565b6000813590506122428161221c565b92915050565b6000610120828403121561225f5761225e611efb565b5b61226a610120611f71565b9050600061227a84828501611fe8565b600083015250602061228e84828501611fe8565b60208301525060406122a284828501611fe8565b60408301525060606122b684828501611fe8565b60608301525060806122ca84828501611fe8565b60808301525060a06122de84828501611fe8565b60a08301525060c06122f284828501612233565b60c08301525060e061230684828501612233565b60e08301525061010061231b84828501612233565b6101008301525092915050565b600080fd5b600067ffffffffffffffff82111561234857612347611f11565b5b602082029050602081019050919050565b600080fd5b600061237161236c8461232d565b611f71565b9050808382526020820190506060840283018581111561239457612393612359565b5b835b818110156123bd57806123a98882611ffd565b845260208401935050606081019050612396565b5050509392505050565b600082601f8301126123dc576123db612328565b5b81356123ec84826020860161235e565b91505092915050565b6000610200828403121561240c5761240b611efb565b5b612417610100611f71565b9050600061242784828501611fe8565b600083015250602061243b84828501611fe8565b602083015250604061244f84828501611ffd565b60408301525060a061246384828501611ffd565b60608301525061010061247884828501611ffd565b60808301525061016061248d84828501611ffd565b60a0830152506101c082013567ffffffffffffffff8111156124b2576124b1611f8c565b5b6124be848285016123c7565b60c0830152506101e082013567ffffffffffffffff8111156124e3576124e2611f8c565b5b6124ef848285016123c7565b60e08301525092915050565b600080610140838503121561251357612512611ef1565b5b600061252185828601612248565b92505061012083013567ffffffffffffffff81111561254357612542611ef6565b5b61254f858286016123f5565b9150509250929050565b6000806000610160848603121561257357612572611ef1565b5b600061258186828701612248565b93505061012084013567ffffffffffffffff8111156125a3576125a2611ef6565b5b6125af868287016123f5565b9250506101406125c186828701611fe8565b9150509250925092565b6125d481611fc7565b82525050565b6060820160008201516125f060008501826125cb565b50602082015161260360208501826125cb565b50604082015161261660408501826125cb565b50505050565b6101008201600082015161263360008501826125cb565b50602082015161264660208501826125cb565b50604082015161265960408501826125cb565b50606082015161266c60608501826125cb565b50608082015161267f60808501826125cb565b5060a082015161269260a08501826125da565b50505050565b6000610100820190506126ae600083018461261c565b92915050565b600061012082840312156126cb576126ca611ef1565b5b60006126d984828501612248565b91505092915050565b600081519050919050565b600082825260208201905092915050565b6000819050602082019050919050565b600061271a83836125da565b60608301905092915050565b6000602082019050919050565b600061273e826126e2565b61274881856126ed565b9350612753836126fe565b8060005b8381101561278457815161276b888261270e565b975061277683612726565b925050600181019050612757565b5085935050505092915050565b6000610200830160008301516127aa60008601826125cb565b5060208301516127bd60208601826125cb565b5060408301516127d060408601826125da565b5060608301516127e360a08601826125da565b5060808301516127f76101008601826125da565b5060a083015161280b6101608601826125da565b5060c08301518482036101c08601526128248282612733565b91505060e08301518482036101e086015261283f8282612733565b9150508091505092915050565b600060208201905081810360008301526128668184612791565b905092915050565b6000610100828403121561288557612884611efb565b5b61288f60c0611f71565b9050600061289f84828501611fe8565b60008301525060206128b384828501611fe8565b60208301525060406128c784828501611fe8565b60408301525060606128db84828501611fe8565b60608301525060806128ef84828501611fe8565b60808301525060a061290384828501611ffd565b60a08301525092915050565b6000610100828403121561292657612925611ef1565b5b60006129348482850161286e565b91505092915050565b61294681611f91565b82525050565b61016082016000820151612963600085018261293d565b506020820151612976602085018261293d565b506040820151612989604085018261293d565b50606082015161299c606085018261293d565b5060808201516129af60808501826125cb565b5060a08201516129c260a08501826125cb565b5060c08201516129d560c08501826125cb565b5060e08201516129e860e08501826125cb565b506101008201516129fd6101008501826125da565b50505050565b600061016082019050612a19600083018461294c565b92915050565b600060208284031215612a3557612a34611ef1565b5b6000612a4384828501611fe8565b91505092915050565b612a5581612210565b82525050565b61012082016000820151612a7260008501826125cb565b506020820151612a8560208501826125cb565b506040820151612a9860408501826125cb565b506060820151612aab60608501826125cb565b506080820151612abe60808501826125cb565b5060a0820151612ad160a08501826125cb565b5060c0820151612ae460c0850182612a4c565b5060e0820151612af760e0850182612a4c565b50610100820151612b0c610100850182612a4c565b50505050565b600061012082019050612b286000830184612a5b565b92915050565b7f4e487b7100000000000000000000000000000000000000000000000000000000600052601160045260246000fd5b6000612b6882611fc7565b9150612b7383611fc7565b9250817fffffffffffffffffffffffffffffffffffffffffffffffffffffffffffffffff0483118215151615612bac57612bab612b2e565b5b828202905092915050565b600081905092915050565b7f3c616e696d617465206174747269627574654e616d653d2272222076616c756560008201527f733d220000000000000000000000000000000000000000000000000000000000602082015250565b6000612c1e602383612bb7565b9150612c2982612bc2565b602382019050919050565b6000612c3f8261216f565b612c498185612bb7565b9350612c5981856020860161218b565b80840191505092915050565b7f3b00000000000000000000000000000000000000000000000000000000000000815250565b7f222063616c634d6f64653d226c696e65617222206475723d2200000000000000815250565b7f732220726570656174436f756e743d22696e646566696e697465222f3e000000815250565b6000612ce282612c11565b9150612cee8288612c34565b9150612cf982612c65565b600182019150612d098287612c34565b9150612d1482612c65565b600182019150612d248286612c34565b9150612d2f82612c65565b600182019150612d3f8285612c34565b9150612d4a82612c8b565b601982019150612d5a8284612c34565b9150612d6582612cb1565b601d820191508190509695505050505050565b7f3c616e696d617465206174747269627574654e616d653d226379222076616c7560008201527f65733d2200000000000000000000000000000000000000000000000000000000602082015250565b6000612dd4602483612bb7565b9150612ddf82612d78565b602482019050919050565b6000612df68289612c34565b9150612e0182612dc7565b9150612e0d8288612c34565b9150612e1882612c65565b600182019150612e288287612c34565b9150612e3382612c65565b600182019150612e438286612c34565b9150612e4e82612c65565b600182019150612e5e8285612c34565b9150612e6982612c8b565b601982019150612e798284612c34565b9150612e8482612cb1565b601d82019150819050979650505050505050565b7f3c616e696d617465206174747269627574654e616d653d226378222076616c7560008201527f65733d2200000000000000000000000000000000000000000000000000000000602082015250565b6000612ef4602483612bb7565b9150612eff82612e98565b602482019050919050565b6000612f168289612c34565b9150612f2182612ee7565b9150612f2d8288612c34565b9150612f3882612c65565b600182019150612f488287612c34565b9150612f5382612c65565b600182019150612f638286612c34565b9150612f6e82612c65565b600182019150612f7e8285612c34565b9150612f8982612c8b565b601982019150612f998284612c34565b9150612fa482612cb1565b601d82019150819050979650505050505050565b6000612fc382611f91565b9150612fce83611f91565b925082820190508281121560008312168382126000841215161715612ff657612ff5612b2e565b5b92915050565b7f4e487b7100000000000000000000000000000000000000000000000000000000600052601260045260246000fd5b600061303682611f91565b915061304183611f91565b92508261305157613050612ffc565b5b600160000383147f80000000000000000000000000000000000000000000000000000000000000008314161561308a57613089612b2e565b5b828205905092915050565b60006130a082611fc7565b91506130ab83611fc7565b92508282019050808211156130c3576130c2612b2e565b5b92915050565b60006130d482611fc7565b91506130df83611fc7565b9250826130ef576130ee612ffc565b5b828204905092915050565b61310381611fc7565b82525050565b60608201600082015161311f60008501826130fa565b50602082015161313260208501826130fa565b50604082015161314560408501826130fa565b50505050565b60006060820190506131606000830184613109565b92915050565b600080fd5b600067ffffffffffffffff82111561318657613185611f11565b5b61318f82611f00565b9050602081019050919050565b60006131af6131aa8461316b565b611f71565b9050828152602081018484840111156131cb576131ca613166565b5b6131d684828561218b565b509392505050565b600082601f8301126131f3576131f2612328565b5b815161320384826020860161319c565b91505092915050565b60006020828403121561322257613221611ef1565b5b600082015167ffffffffffffffff8111156132405761323f611ef6565b5b61324c848285016131de565b91505092915050565b7f3c636972636c652063783d220000000000000000000000000000000000000000815250565b7f222063793d220000000000000000000000000000000000000000000000000000815250565b7f2220723d22000000000000000000000000000000000000000000000000000000815250565b7f222066696c6c3d22000000000000000000000000000000000000000000000000815250565b7f223e000000000000000000000000000000000000000000000000000000000000815250565b7f3c2f636972636c653e0000000000000000000000000000000000000000000000815250565b600061334482613255565b600c820191506133548288612c34565b915061335f8261327b565b60068201915061336f8287612c34565b915061337a826132a1565b60058201915061338a8286612c34565b9150613395826132c7565b6008820191506133a58285612c34565b91506133b0826132ed565b6002820191506133c08284612c34565b91506133cb82613313565b6009820191508190509695505050505050565b60006133ea8285612c34565b91506133f68284612c34565b91508190509392505050565b600061340d82611fc7565b91507fffffffffffffffffffffffffffffffffffffffffffffffffffffffffffffffff820361343f5761343e612b2e565b5b600182019050919050565b7f3c75736520687265663d222374696c6522207472616e73666f726d3d22726f7460008201527f6174652800000000000000000000000000000000000000000000000000000000602082015250565b60006134a6602483612bb7565b91506134b18261344a565b602482019050919050565b7f2c00000000000000000000000000000000000000000000000000000000000000815250565b7f2922202f3e000000000000000000000000000000000000000000000000000000815250565b60006135148287612c34565b915061351f82613499565b915061352b8286612c34565b9150613536826134bc565b6001820191506135468285612c34565b9150613551826134bc565b6001820191506135618284612c34565b915061356c826134e2565b60058201915081905095945050505050565b7f3c636c6970506174682069643d22636c6970223e000000000000000000000000815250565b7f3c7061746820643d224d302c304c000000000000000000000000000000000000815250565b7f4c00000000000000000000000000000000000000000000000000000000000000815250565b7f2c30410000000000000000000000000000000000000000000000000000000000815250565b7f2c302c302c302c302c305a22202f3e0000000000000000000000000000000000815250565b7f3c2f636c6970506174683e000000000000000000000000000000000000000000815250565b600061366d8261357e565b60148201915061367c826135a4565b600e8201915061368c8288612c34565b9150613697826134bc565b6001820191506136a78287612c34565b91506136b2826135ca565b6001820191506136c28286612c34565b91506136cd826135f0565b6003820191506136dd8285612c34565b91506136e8826134bc565b6001820191506136f88284612c34565b915061370382613616565b600f820191506137128261363c565b600b820191508190509695505050505050565b7f3c73766720786d6c6e733d22687474703a2f2f7777772e77332e6f72672f323060008201527f30302f737667222076696577426f783d22302030200000000000000000000000602082015250565b6000613781603583612bb7565b915061378c82613725565b603582019050919050565b7f2000000000000000000000000000000000000000000000000000000000000000815250565b7f222077696474683d220000000000000000000000000000000000000000000000815250565b7f22206865696768743d2200000000000000000000000000000000000000000000815250565b7f223e3c646566733e000000000000000000000000000000000000000000000000815250565b7f3c672069643d2274696c652220636c69702d706174683d2275726c2823636c6960008201527f7029223e00000000000000000000000000000000000000000000000000000000602082015250565b600061388b602483612bb7565b91506138968261382f565b602482019050919050565b7f3c7265637420783d22302220793d222d00000000000000000000000000000000815250565b60006138d282613774565b91506138de828c612c34565b91506138e982613797565b6001820191506138f9828b612c34565b9150613904826137bd565b600982019150613914828a612c34565b915061391f826137e3565b600a8201915061392f8289612c34565b915061393a82613809565b60088201915061394a8288612c34565b91506139568287612c34565b91506139618261387e565b915061396c826138a1565b60108201915061397c8286612c34565b9150613987826137bd565b6009820191506139978285612c34565b91506139a2826137e3565b600a820191506139b28284612c34565b91506139bd826132c7565b6008820191508190509a9950505050505050505050565b7f223e3c2f726563743e0000000000000000000000000000000000000000000000815250565b7f3c2f673e00000000000000000000000000000000000000000000000000000000815250565b6000613a2c8287612c34565b9150613a388286612c34565b9150613a43826139d4565b600982019150613a538285612c34565b9150613a5f8284612c34565b9150613a6a826139fa565b60048201915081905095945050505050565b60008160011c9050919050565b6000808291508390505b6001851115613ad357808604811115613aaf57613aae612b2e565b5b6001851615613abe5780820291505b8081029050613acc85613a7c565b9450613a93565b94509492505050565b600082613aec5760019050613ba8565b81613afa5760009050613ba8565b8160018114613b105760028114613b1a57613b49565b6001915050613ba8565b60ff841115613b2c57613b2b612b2e565b5b8360020a915084821115613b4357613b42612b2e565b5b50613ba8565b5060208310610133831016604e8410600b8410161715613b7e5782820a905083811115613b7957613b78612b2e565b5b613ba8565b613b8b8484846001613a89565b92509050818404811115613ba257613ba1612b2e565b5b81810290505b9392505050565b6000613bba82611fc7565b9150613bc583611fc7565b9250613bf27fffffffffffffffffffffffffffffffffffffffffffffffffffffffffffffffff8484613adc565b905092915050565b6000613c0582611fc7565b9150613c1083611fc7565b9250828203905081811115613c2857613c27612b2e565b5b92915050565b7f3c2f646566733e00000000000000000000000000000000000000000000000000815250565b7f3c726563742077696474683d2200000000000000000000000000000000000000815250565b7f3c672069643d226b616c6569646f73636f706554696c6522207472616e73666f60008201527f726d3d227472616e736c61746528000000000000000000000000000000000000602082015250565b6000613cd6602e83612bb7565b9150613ce182613c7a565b602e82019050919050565b6000613cf88288612c34565b9150613d0382613c2e565b600782019150613d1282613c54565b600d82019150613d228287612c34565b9150613d2d826137e3565b600a82019150613d3d8286612c34565b9150613d48826132c7565b600882019150613d588285612c34565b9150613d63826139d4565b600982019150613d7282613cc9565b9150613d7e8284612c34565b91508190509695505050505050565b6000613d9882613255565b600c82019150613da88285612c34565b9150613db38261327b565b600682019150613dc38284612c34565b9150613dce826132a1565b6005820191508190509392505050565b7f222066696c6c3d226e6f6e652200000000000000000000000000000000000000815250565b7f2f3e000000000000000000000000000000000000000000000000000000000000815250565b6000613e368286612c34565b9150613e428285612c34565b9150613e4d82613dde565b600d82019150613e5d8284612c34565b9150613e6882613e04565b600282019150819050949350505050565b7f29223e0000000000000000000000000000000000000000000000000000000000815250565b7f22202f3e00000000000000000000000000000000000000000000000000000000815250565b6000613ed18289612c34565b9150613edc826134bc565b600182019150613eec8288612c34565b9150613ef782613e79565b600382019150613f078287612c34565b9150613f138286612c34565b9150613f1e826132c7565b600882019150613f2e8285612c34565b9150613f3982613e9f565b600482019150613f498284612c34565b9150819050979650505050505050565b7f3c2f7376673e0000000000000000000000000000000000000000000000000000815250565b6000613f8b8285612c34565b9150613f978284612c34565b9150613fa2826139fa565b600482019150613fb182613f59565b6006820191508190509392505050565b7f7265637477696474680000000000000000000000000000000000000000000000815250565b6000613ff282613fc1565b6009820191506140028284612c34565b915081905092915050565b7f7265637468656967687400000000000000000000000000000000000000000000815250565b600061403e8261400d565b600a8201915061404e8284612c34565b915081905092915050565b7f726563746475726174696f6e0000000000000000000000000000000000000000815250565b600061408a82614059565b600c8201915061409a8284612c34565b915081905092915050565b60006140b082611fc7565b91506140bb83611fc7565b9250826140cb576140ca612ffc565b5b828206905092915050565b7f4e487b7100000000000000000000000000000000000000000000000000000000600052603260045260246000fd5b61410e81611fc7565b82525050565b60006040820190506141296000830185614105565b6141366020830184614105565b9392505050565b60008151905061414c81611fd1565b92915050565b60006060828403121561416857614167611efb565b5b6141726060611f71565b905060006141828482850161413d565b60008301525060206141968482850161413d565b60208301525060406141aa8482850161413d565b60408301525092915050565b60006141c96141c48461232d565b611f71565b905080838252602082019050606084028301858111156141ec576141eb612359565b5b835b8181101561421557806142018882614152565b8452602084019350506060810190506141ee565b5050509392505050565b600082601f83011261423457614233612328565b5b81516142448482602086016141b6565b91505092915050565b60006020828403121561426357614262611ef1565b5b600082015167ffffffffffffffff81111561428157614280611ef6565b5b61428d8482850161421f565b91505092915050565b7f3c616e696d6174655472616e73666f726d206174747269627574654e616d653d60008201527f227472616e73666f726d2220747970653d22726f74617465222066726f6d3d2260208201527f302030202d000000000000000000000000000000000000000000000000000000604082015250565b6000614318604583612bb7565b915061432382614296565b604582019050919050565b7f2220746f3d222d3336302030202d000000000000000000000000000000000000815250565b7f2220626567696e3d22307322206475723d220000000000000000000000000000815250565b7f732220726570656174436f756e743d22696e646566696e69746522202f3e0000815250565b60006143ab8261430b565b91506143b78286612c34565b91506143c28261432e565b600e820191506143d28285612c34565b91506143dd82614354565b6012820191506143ed8284612c34565b91506143f88261437a565b601e82019150819050949350505050565b7f3c726563742072783d2233222072793d22332220783d22302220793d222d0000815250565b7f3c2f726563743e00000000000000000000000000000000000000000000000000815250565b600061446082614409565b601e820191506144708288612c34565b915061447b826137bd565b60098201915061448b8287612c34565b9150614496826137e3565b600a820191506144a68286612c34565b91506144b1826132c7565b6008820191506144c18285612c34565b91506144cc826132ed565b6002820191506144dc8284612c34565b91506144e78261442f565b6007820191508190509695505050505050565b7f7931000000000000000000000000000000000000000000000000000000000000815250565b600061452b826144fa565b60028201915061453b8284612c34565b915081905092915050565b7f7932000000000000000000000000000000000000000000000000000000000000815250565b600061457782614546565b6002820191506145878284612c34565b915081905092915050565b7f616c7465726e6174696e67436c61737300000000000000000000000000000000815250565b60006145c382614592565b6010820191506145d38284612c34565b915081905092915050565b60006145e982611f91565b91506145f483611f91565b9250827f7fffffffffffffffffffffffffffffffffffffffffffffffffffffffffffffff048211600084136000841316161561463357614632612b2e565b5b817f800000000000000000000000000000000000000000000000000000000000000005831260008412600084131616156146705761466f612b2e565b5b827f800000000000000000000000000000000000000000000000000000000000000005821260008413600084121616156146ad576146ac612b2e565b5b827f7fffffffffffffffffffffffffffffffffffffffffffffffffffffffffffffff05821260008412600084121616156146ea576146e9612b2e565b5b828202905092915050565b600061470082611f91565b915061470b83611f91565b925082820390508181126000841216828213600085121516171561473257614731612b2e565b5b92915050565b7f6475726174696f6e000000000000000000000000000000000000000000000000815250565b600061476982614738565b6008820191506147798284612c34565b915081905092915050565b600060ff82169050919050565b600061479c82614784565b91506147a783614784565b9250828201905060ff8111156147c0576147bf612b2e565b5b92915050565b60006147d182611f91565b91507f8000000000000000000000000000000000000000000000000000000000000000820361480357614802612b2e565b5b816000039050919050565b7f2d00000000000000000000000000000000000000000000000000000000000000815250565b600061483f8261480e565b60018201915061484f8284612c34565b915081905092915050565b7f2e00000000000000000000000000000000000000000000000000000000000000815250565b600061488c8285612c34565b91506148978261485a565b6001820191506148a78284612c34565b91508190509392505050565b7f3c6c696e6561724772616469656e742069643d226772616469656e74223e0000815250565b7f3c73746f70206f66667365743d223025222073746f702d636f6c6f723d220000815250565b7f222f3e0000000000000000000000000000000000000000000000000000000000815250565b7f3c73746f70206f66667365743d2231303025222073746f702d636f6c6f723d22815250565b7f3c2f6c696e6561724772616469656e743e000000000000000000000000000000815250565b600061497c826148b3565b601e8201915061498b826148d9565b601e8201915061499b8285612c34565b91506149a6826148ff565b6003820191506149b582614925565b6020820191506149c58284612c34565b91506149d0826148ff565b6003820191506149df8261494b565b6011820191508190509392505050565b60006149fb8284612c34565b91508190509291505056fe0000000000c90f8801921d20025b26d703242abf03ed26e604b6195d057f00350647d97c0710a34507d95b9e08a2009a096a90490a3308bc0afb68050bc3ac350c8bd35e0d53db920e1bc2e40ee387660fab272b1072a0481139f0cf120116d512c8106e138edbb1145576b1151bdf8515e2144416a81305176dd9de183366e818f8b83c19bdcbf31a82a0251b4732ef1c0b826a1ccf8cb31d934fe51e56ca1e1f19f97b1fdcdc1b209f701c2161b39f2223a4c522e541af23a6887e2467775725280c5d25e845b626a8218527679df42826b92828e5714a29a3c4852a61b1012b1f34eb2bdc4e6f2c98fbba2d553afb2e110a622ecc681e2f8752623041c76030fbc54d31b54a5d326e54c73326e2c233def2873496824f354d905636041ad936ba2013376f9e46382493b038d8fe93398cdd323a402dd13af2eeb73ba51e293c56ba703d07c1d53db832a53e680b2c3f1749b73fc5ec974073f21d4121589a41ce1e64427a41d04325c13543d09aec447acd50452456bc45cd358f46756827471cece647c3c22e4869e664490f57ee49b415334a581c9d4afb6c974b9e038f4c3fdff34ce100344d8162c34e2106174ebfe8a44f5e08e24ffb654c5097fc5e5133cc9451ced46e5269126e53028517539b2aef5433027d54ca0a4a556040e255f5a4d2568a34a9571deef957b0d2555842dd5458d40e8c5964649759f3de125a8279995b1035ce5b9d11535c290acc5cb420df5d3e52365dc79d7b5e50015d5ed77c895f5e0db25fe3b38d60686cce60ec382f616f146b61f1003e6271fa6862f201ac637114cc63ef328f646c59bf64e889256563bf9165ddfbd266573cbb66cf811f6746c7d767bd0fbc683257aa68a69e806919e31f698c246b69fd614a6a6d98a36adcc9646b4af2786bb812d06c24295f6c8f351b6cf934fb6d6227f96dca0d146e30e3496e96a99c6efb5f116f5f02b16fc1938470231099708378fe70e2cbc571410804719e2cd171fa394872552c8472af05a67307c3cf735f662573b5ebd0740b53fa745f9dd074b2c8837504d3447555bd4b75a585ce75f42c0a7641af3c768e0ea576d9498877235f2c776c4eda77b417df77fab988784033287884841378c7aba17909a92c794a7c11798a23b079c89f6d7a05eeac7a4210d87a7d055a7ab6cba37aef63237b26cb4e7b5d039d7b920b887bc5e28f7bf8882f7c29fbed7c5a3d4f7c894bdd7cb727237ce3ceb17d0f42177d3980eb7d628ac57d8a5f3f7db0fdf77dd6668e7dfa98a77e1d93e97e3f57fe7e5fe4927e7f39567e9d55fb7eba3a387ed5e5c57ef0585f7f0991c37f2191b37f3857f57f4de4507f62368e7f754e7f7f872bf27f97cebc7fa736b37fb563b27fc255957fce0c3d7fd8878d7fe1c76a7fe9cbbf7ff094777ff621817ffa72d07ffd88597fff62157fffffff207374726f6b653d222345424139343722207374726f6b652d77696474683d223422a2646970667358221220db236564b781b2c68f72eb5e422d5bea4318167240040576c1c49492255a71ab64736f6c63430008100033",
  "deployedBytecode": "0x608060405234801561001057600080fd5b50600436106100935760003560e01c8063aa9e7e7511610066578063aa9e7e7514610158578063b3c34a5014610188578063c321118c146101b8578063d6cf5f55146101e8578063e3684e391461021857610093565b80631ac48ab1146100985780637d11e69c146100c85780638a0e9ad7146100f857806391b078a414610128575b600080fd5b6100b260048036038101906100ad9190612141565b610248565b6040516100bf91906121ee565b60405180910390f35b6100e260048036038101906100dd91906124fb565b6104cc565b6040516100ef91906121ee565b60405180910390f35b610112600480360381019061010d9190612559565b610c4e565b60405161011f9190612698565b60405180910390f35b610142600480360381019061013d91906126b4565b610e3a565b60405161014f919061284c565b60405180910390f35b610172600480360381019061016d919061290f565b6110c6565b60405161017f91906121ee565b60405180910390f35b6101a2600480360381019061019d9190612559565b6111e8565b6040516101af9190612a03565b60405180910390f35b6101d260048036038101906101cd9190612a1f565b6115bc565b6040516101df91906121ee565b60405180910390f35b61020260048036038101906101fd9190612a1f565b611603565b60405161020f9190612b12565b60405180910390f35b610232600480360381019061022d9190612a1f565b61187a565b60405161023f9190612b12565b60405180910390f35b606060006102598360800151611898565b6102668460a00151611898565b6102738560800151611898565b6102808660a00151611898565b61029960028860e001516102949190612b5d565b611898565b6040516020016102ad959493929190612cd7565b6040516020818303038152906040529050806102cc8460200151611a20565b6102d98560600151611a20565b6102e68660200151611a20565b6102f38760600151611a20565b61030c60028960e001516103079190612b5d565b611898565b60405160200161032196959493929190612dea565b6040516020818303038152906040529050806103408460000151611a20565b61034d8560400151611a20565b61035a8660000151611a20565b6103678760400151611a20565b61038060028960e0015161037b9190612b5d565b611898565b60405160200161039596959493929190612f0a565b60405160208183030381529060405290506103ce6002846040015185600001516103bf9190612fb8565b6103c9919061302b565b611a20565b6103f66002856060015186602001516103e79190612fb8565b6103f1919061302b565b611a20565b61041e60028660a00151876080015161040f9190613095565b61041991906130c9565b611898565b73__$5187c88d6fd7cbb2d86814aea483adb806$__636e6472588761010001516040518263ffffffff1660e01b815260040161045a919061314b565b600060405180830381865af4158015610477573d6000803e3d6000fd5b505050506040513d6000823e3d601f19601f820116820180604052508101906104a0919061320c565b846040516020016104b5959493929190613339565b604051602081830303815290604052915050919050565b6060600060405180602001604052806000815250905060005b84606001518110156105405760006104fe868684610c4e565b90508261050a826110c6565b60405160200161051b9291906133de565b604051602081830303815290604052925050808061053890613402565b9150506104e5565b50600060405180602001604052806000815250905060005b85604001518110156105b35760006105718787846111e8565b90508261057d82610248565b60405160200161058e9291906133de565b60405160208183030381529060405292505080806105ab90613402565b915050610558565b5060006040518060200160405280600081525090506000866020015163d693a4006105de91906130c9565b905060005b876020015181101561065b578261060682846105ff9190612b5d565b6007611a74565b6106158a608001516007611a74565b6106248b60a001516007611a74565b6040516020016106379493929190613508565b6040516020818303038152906040529250808061065390613402565b9150506105e3565b50600061066d88608001516007611a74565b61067c8960a001516007611a74565b61069760028b608001516106909190612b5d565b6007611a74565b6106a160c8611898565b6106ab60c8611898565b6040516020016106bf959493929190613662565b604051602081830303815290604052905060006106dd6101f4611898565b6106e86101f4611898565b6106f36101f4611898565b6106fe6101f4611898565b61080873__$5187c88d6fd7cbb2d86814aea483adb806$__636e6472588e604001516040518263ffffffff1660e01b815260040161073c919061314b565b600060405180830381865af4158015610759573d6000803e3d6000fd5b505050506040513d6000823e3d601f19601f82011682018060405250810190610782919061320c565b73__$5187c88d6fd7cbb2d86814aea483adb806$__636e6472588f60a001516040518263ffffffff1660e01b81526004016107bd919061314b565b600060405180830381865af41580156107da573d6000803e3d6000fd5b505050506040513d6000823e3d601f19601f82011682018060405250810190610803919061320c565b611ade565b8661081360c8611898565b610829600260c86108249190612b5d565b611898565b61083f600260c861083a9190612b5d565b611898565b604051602001610857999897969594939291906138c7565b6040516020818303038152906040529050808960c001516108f85773__$5187c88d6fd7cbb2d86814aea483adb806$__636e6472588a604001516040518263ffffffff1660e01b81526004016108ad919061314b565b600060405180830381865af41580156108ca573d6000803e3d6000fd5b505050506040513d6000823e3d601f19601f820116820180604052508101906108f3919061320c565b61092f565b6040518060400160405280600e81526020017f75726c28236772616469656e74290000000000000000000000000000000000008152505b87876040516020016109449493929190613a20565b6040516020818303038152906040529050806109616101f4611898565b61096c6101f4611898565b73__$5187c88d6fd7cbb2d86814aea483adb806$__636e6472588c608001516040518263ffffffff1660e01b81526004016109a7919061314b565b600060405180830381865af41580156109c4573d6000803e3d6000fd5b505050506040513d6000823e3d601f19601f820116820180604052508101906109ed919061320c565b610a2b6007600a6109fe9190613baf565b8e60800151610a0d91906130c9565b60026101f4610a1c91906130c9565b610a269190613bfa565b611898565b604051602001610a3f959493929190613cec565b60405160208183030381529060405290506000610a618a608001516007611a74565b610a708b60a001516007611a74565b604051602001610a81929190613d8d565b6040516020818303038152906040529050600081610aab600860c8610aa69190613095565b611898565b8c6101000151610aca5760405180602001604052806000815250610ae4565b604051806060016040528060228152602001614e0b602291395b604051602001610af693929190613e2a565b604051602081830303815290604052905082610b466007600a610b199190613baf565b8d60a00151610b2891906130c9565b60026101f4610b3791906130c9565b610b419190613bfa565b611898565b83610b5160c8611898565b73__$5187c88d6fd7cbb2d86814aea483adb806$__636e6472588f604001516040518263ffffffff1660e01b8152600401610b8c919061314b565b600060405180830381865af4158015610ba9573d6000803e3d6000fd5b505050506040513d6000823e3d601f19601f82011682018060405250810190610bd2919061320c565b8f6101000151610bf15760405180602001604052806000815250610bf3565b855b604051602001610c0896959493929190613ec5565b60405160208183030381529060405292508286604051602001610c2c929190613f7f565b6040516020818303038152906040529250829850505050505050505092915050565b610c56611d89565b610cd18460000151610c6784611898565b604051602001610c779190613fe7565b60405160208183030381529060405260026007600a610c969190613baf565b8860a00151610ca591906130c9565b610caf91906130c9565b6007600a610cbd9190613baf565b8860a00151610ccc91906130c9565b611b0a565b816000018181525050610d558460000151610ceb84611898565b604051602001610cfb9190614033565b6040516020818303038152906040526007600a610d189190613baf565b8760a00151610d2791906130c9565b600860c8610d3591906130c9565b60028960a00151610d469190612b5d565b610d509190613095565b611b0a565b81602001818152505060008160400181815250506007600a610d779190613baf565b8460a00151610d8691906130c9565b816060018181525050610dc88460000151610da084611898565b604051602001610db0919061407f565b6040516020818303038152906040526005600a611b0a565b8160800181815250506000600283610de091906140a5565b14610e0a578260e00151600081518110610dfd57610dfc6140d6565b5b6020026020010151610e2b565b8260c00151600081518110610e2257610e216140d6565b5b60200260200101515b8160a001819052509392505050565b610e42611dc5565b610e8a82600001516040518060400160405280600a81526020017f7072696d617279487565000000000000000000000000000000000000000000008152506000610168611b0a565b8160000181815250508160e00151610ea6578060000151610ec5565b61016860f08260000151610eba9190613095565b610ec491906140a5565b5b81602001818152505060405180606001604052808260000151815260200160648152602001601e8152508160400181905250604051806060016040528082602001518152602001606481526020016046815250816060018190525060405180606001604052808260000151815260200160648152602001600a81525081608001819052506040518060600160405280610168600a8460000151610f689190613095565b610f7291906140a5565b815260200160648152602001600a8152508160a0018190525073__$5187c88d6fd7cbb2d86814aea483adb806$__635c1b88f9826000015160018560400151610fbb9190613095565b6040518363ffffffff1660e01b8152600401610fd8929190614114565b600060405180830381865af4158015610ff5573d6000803e3d6000fd5b505050506040513d6000823e3d601f19601f8201168201806040525081019061101e919061424d565b8160c0018190525073__$5187c88d6fd7cbb2d86814aea483adb806$__635c1b88f98260200151600185604001516110569190613095565b6040518363ffffffff1660e01b8152600401611073929190614114565b600060405180830381865af4158015611090573d6000803e3d6000fd5b505050506040513d6000823e3d601f19601f820116820180604052508101906110b9919061424d565b8160e00181905250919050565b606060006110d78360600151611898565b6110e48460600151611898565b6110f18560800151611898565b604051602001611103939291906143a0565b60405160208183030381529060405290506111218360600151611898565b61112e8460000151611898565b61113b8560200151611898565b73__$5187c88d6fd7cbb2d86814aea483adb806$__636e6472588760a001516040518263ffffffff1660e01b8152600401611176919061314b565b600060405180830381865af4158015611193573d6000803e3d6000fd5b505050506040513d6000823e3d601f19601f820116820180604052508101906111bc919061320c565b846040516020016111d1959493929190614455565b604051602081830303815290604052915050919050565b6111f0611e22565b6000600860c861120091906130c9565b6007600a61120e9190613baf565b8660a0015161121d91906130c9565b6112279190613095565b9050611261856000015161123a85611898565b60405160200161124a9190614520565b604051602081830303815290604052601484611b0a565b8260200181815250506112a2856000015161127b85611898565b60405160200161128b919061456c565b604051602081830303815290604052601484611b0a565b8260600181815250506112e485600001516112bc85611898565b6040516020016112cc91906145b8565b60405160208183030381529060405260006003611b0a565b8260c0018181525050816060015182602001511380156113145750600060028360c0015161131291906140a5565b145b1561133c57600082602001519050826060015183602001818152505080836060018181525050505b600085608001516103e88760a001516113559190612b5d565b61135f91906130c9565b9050600060026007600a6113739190613baf565b886080015161138291906130c9565b61138c9190612b5d565b90506113d96103e8846103e887602001516113a79190612b5d565b6113b191906130c9565b6103e86113be9190613bfa565b836113c99190612b5d565b6113d391906130c9565b82611b7a565b84608001818152505061142d6103e8846103e887606001516113fb9190612b5d565b61140591906130c9565b6103e86114129190613bfa565b8361141d9190612b5d565b61142791906130c9565b82611b7a565b8460a00181815250506000826103e8866020015161144b91906145de565b611455919061302b565b90506002856080015161146891906145de565b8161147391906146f5565b8560000181815250506000836103e8876060015161149191906145de565b61149b919061302b565b905060028660a001516114ae91906145de565b816007600a6114bd9190613baf565b8b608001516114cc91906130c9565b60026114d891906145de565b6114e291906146f5565b6114ec9190612fb8565b86604001818152505061152e896000015161150689611898565b604051602001611516919061475e565b60405160208183030381529060405260036007611b0a565b8660e0018181525050600060028861154691906140a5565b1461157b578760e0015160018861155d9190613095565b8151811061156e5761156d6140d6565b5b60200260200101516115a7565b8760c0015160018861158d9190613095565b8151811061159e5761159d6140d6565b5b60200260200101515b86610100018190525050505050509392505050565b606060006115c983611603565b905060018161010001901515908115158152505060006115e882610e3a565b905060006115f683836104cc565b9050809350505050919050565b61160b611e74565b81816000018181525050611658826040518060400160405280600b81526020017f72657065746974696f6e7300000000000000000000000000000000000000000081525060036014611b0a565b8160200181815250506116a4826040518060400160405280601281526020017f6e756d496e7369646541727469666163747300000000000000000000000000008152506003600a611b0a565b8160400181815250506116f0826040518060400160405280601381526020017f6e756d4f7574736964654172746966616374730000000000000000000000000081525060016004611b0a565b816060018181525050600561173e836040518060400160405280600b81526020017f6861734772616469656e740000000000000000000000000000000000000000008152506001600a611b0a565b148160c00190151590811515815250506008611793836040518060400160405280600e81526020017f7365636f6e64617279436f6c6f7200000000000000000000000000000000000081525060016008611b0a565b148160e0019015159081151581525050600060b4672b992ddfa23249d6600284602001516101686117c491906130c9565b60b46117d09190613bfa565b6117da91906130c9565b6117e49190612b5d565b6117ee91906130c9565b9050600760126117fe9190613bfa565b600a61180a9190613baf565b61181382611b93565b60c861181f91906145de565b611829919061302b565b826080018181525050600760126118409190613bfa565b600a61184c9190613baf565b61185582611bc0565b60c861186191906145de565b61186b919061302b565b8260a001818152505050919050565b611882611e74565b600061188d83611603565b905080915050919050565b6060600082036118df576040518060400160405280600181526020017f30000000000000000000000000000000000000000000000000000000000000008152509050611a1b565b600082905060005b600082146119115780806118fa90613402565b915050600a8261190a91906130c9565b91506118e7565b60008167ffffffffffffffff81111561192d5761192c611f11565b5b6040519080825280601f01601f19166020018201604052801561195f5781602001600182028036833780820191505090505b50905060008290505b60008614611a135760018161197d9190613bfa565b90506000600a808861198f91906130c9565b6119999190612b5d565b876119a49190613bfa565b60306119b09190614791565b905060008160f81b9050808484815181106119ce576119cd6140d6565b5b60200101907effffffffffffffffffffffffffffffffffffffffffffffffffffffffffffff1916908160001a905350600a88611a0a91906130c9565b97505050611968565b819450505050505b919050565b60606000821215611a6357611a3d82611a38906147c6565b611898565b604051602001611a4d9190614834565b6040516020818303038152906040529050611a6f565b611a6c82611898565b90505b919050565b6060611a9682600a611a869190613baf565b84611a9191906130c9565b611898565b611ab683600a611aa69190613baf565b85611ab191906140a5565b611898565b604051602001611ac7929190614880565b604051602081830303815290604052905092915050565b60608282604051602001611af3929190614971565b604051602081830303815290604052905092915050565b600080611b3f85611b1a88611898565b604051602001611b2b9291906133de565b604051602081830303815290604052611d56565b90508360018585611b509190613bfa565b611b5a9190613095565b82611b6591906140a5565b611b6f9190613095565b915050949350505050565b6000818310611b895781611b8b565b825b905092915050565b6000611bb96002672b992ddfa23249d681611bb157611bb0612ffc565b5b048301611bc0565b9050919050565b6000672b992ddfa23249d6600202672b992ddfa23249d66002028381611be957611be8612ffc565b5b06634000000063ffffffff160281611c0457611c03612ffc565b5b0491506000600160106001901b0360106008601c030384901c1690506000600160086001901b036008601c0385901c169050600080631000000063ffffffff168616149050600080632000000063ffffffff1687161415905081611c6d57826001610100030392505b60006040518061044001604052806104048152602001614a07610404913990506000600460ff1660028601029050600081830151905060006001600460080260ff166001901b03600460080260ff1683901c16905060006001600460080260ff166001901b0383169050600060108a84840302901c9050600088611cf357818303611cf7565b8184015b90508715611d25577fffffffffffffffffffffffffffffffffffffffffffffffffffffffffffffffff810290505b637fffffff670de0b6b3a7640000820281611d4357611d42612ffc565b5b059b505050505050505050505050919050565b600081604051602001611d6991906149ef565b6040516020818303038152906040528051906020012060001c9050919050565b6040518060c001604052806000815260200160008152602001600081526020016000815260200160008152602001611dbf611ec6565b81525090565b6040518061010001604052806000815260200160008152602001611de7611ec6565b8152602001611df4611ec6565b8152602001611e01611ec6565b8152602001611e0e611ec6565b815260200160608152602001606081525090565b6040518061012001604052806000815260200160008152602001600081526020016000815260200160008152602001600081526020016000815260200160008152602001611e6e611ec6565b81525090565b6040518061012001604052806000815260200160008152602001600081526020016000815260200160008152602001600081526020016000151581526020016000151581526020016000151581525090565b60405180606001604052806000815260200160008152602001600081525090565b6000604051905090565b600080fd5b600080fd5b600080fd5b6000601f19601f8301169050919050565b7f4e487b7100000000000000000000000000000000000000000000000000000000600052604160045260246000fd5b611f4982611f00565b810181811067ffffffffffffffff82111715611f6857611f67611f11565b5b80604052505050565b6000611f7b611ee7565b9050611f878282611f40565b919050565b600080fd5b6000819050919050565b611fa481611f91565b8114611faf57600080fd5b50565b600081359050611fc181611f9b565b92915050565b6000819050919050565b611fda81611fc7565b8114611fe557600080fd5b50565b600081359050611ff781611fd1565b92915050565b60006060828403121561201357612012611efb565b5b61201d6060611f71565b9050600061202d84828501611fe8565b600083015250602061204184828501611fe8565b602083015250604061205584828501611fe8565b60408301525092915050565b6000610160828403121561207857612077611efb565b5b612083610120611f71565b9050600061209384828501611fb2565b60008301525060206120a784828501611fb2565b60208301525060406120bb84828501611fb2565b60408301525060606120cf84828501611fb2565b60608301525060806120e384828501611fe8565b60808301525060a06120f784828501611fe8565b60a08301525060c061210b84828501611fe8565b60c08301525060e061211f84828501611fe8565b60e08301525061010061213484828501611ffd565b6101008301525092915050565b6000610160828403121561215857612157611ef1565b5b600061216684828501612061565b91505092915050565b600081519050919050565b600082825260208201905092915050565b60005b838110156121a957808201518184015260208101905061218e565b60008484015250505050565b60006121c08261216f565b6121ca818561217a565b93506121da81856020860161218b565b6121e381611f00565b840191505092915050565b6000602082019050818103600083015261220881846121b5565b905092915050565b60008115159050919050565b61222581612210565b811461223057600080fd5b50565b6000813590506122428161221c565b92915050565b6000610120828403121561225f5761225e611efb565b5b61226a610120611f71565b9050600061227a84828501611fe8565b600083015250602061228e84828501611fe8565b60208301525060406122a284828501611fe8565b60408301525060606122b684828501611fe8565b60608301525060806122ca84828501611fe8565b60808301525060a06122de84828501611fe8565b60a08301525060c06122f284828501612233565b60c08301525060e061230684828501612233565b60e08301525061010061231b84828501612233565b6101008301525092915050565b600080fd5b600067ffffffffffffffff82111561234857612347611f11565b5b602082029050602081019050919050565b600080fd5b600061237161236c8461232d565b611f71565b9050808382526020820190506060840283018581111561239457612393612359565b5b835b818110156123bd57806123a98882611ffd565b845260208401935050606081019050612396565b5050509392505050565b600082601f8301126123dc576123db612328565b5b81356123ec84826020860161235e565b91505092915050565b6000610200828403121561240c5761240b611efb565b5b612417610100611f71565b9050600061242784828501611fe8565b600083015250602061243b84828501611fe8565b602083015250604061244f84828501611ffd565b60408301525060a061246384828501611ffd565b60608301525061010061247884828501611ffd565b60808301525061016061248d84828501611ffd565b60a0830152506101c082013567ffffffffffffffff8111156124b2576124b1611f8c565b5b6124be848285016123c7565b60c0830152506101e082013567ffffffffffffffff8111156124e3576124e2611f8c565b5b6124ef848285016123c7565b60e08301525092915050565b600080610140838503121561251357612512611ef1565b5b600061252185828601612248565b92505061012083013567ffffffffffffffff81111561254357612542611ef6565b5b61254f858286016123f5565b9150509250929050565b6000806000610160848603121561257357612572611ef1565b5b600061258186828701612248565b93505061012084013567ffffffffffffffff8111156125a3576125a2611ef6565b5b6125af868287016123f5565b9250506101406125c186828701611fe8565b9150509250925092565b6125d481611fc7565b82525050565b6060820160008201516125f060008501826125cb565b50602082015161260360208501826125cb565b50604082015161261660408501826125cb565b50505050565b6101008201600082015161263360008501826125cb565b50602082015161264660208501826125cb565b50604082015161265960408501826125cb565b50606082015161266c60608501826125cb565b50608082015161267f60808501826125cb565b5060a082015161269260a08501826125da565b50505050565b6000610100820190506126ae600083018461261c565b92915050565b600061012082840312156126cb576126ca611ef1565b5b60006126d984828501612248565b91505092915050565b600081519050919050565b600082825260208201905092915050565b6000819050602082019050919050565b600061271a83836125da565b60608301905092915050565b6000602082019050919050565b600061273e826126e2565b61274881856126ed565b9350612753836126fe565b8060005b8381101561278457815161276b888261270e565b975061277683612726565b925050600181019050612757565b5085935050505092915050565b6000610200830160008301516127aa60008601826125cb565b5060208301516127bd60208601826125cb565b5060408301516127d060408601826125da565b5060608301516127e360a08601826125da565b5060808301516127f76101008601826125da565b5060a083015161280b6101608601826125da565b5060c08301518482036101c08601526128248282612733565b91505060e08301518482036101e086015261283f8282612733565b9150508091505092915050565b600060208201905081810360008301526128668184612791565b905092915050565b6000610100828403121561288557612884611efb565b5b61288f60c0611f71565b9050600061289f84828501611fe8565b60008301525060206128b384828501611fe8565b60208301525060406128c784828501611fe8565b60408301525060606128db84828501611fe8565b60608301525060806128ef84828501611fe8565b60808301525060a061290384828501611ffd565b60a08301525092915050565b6000610100828403121561292657612925611ef1565b5b60006129348482850161286e565b91505092915050565b61294681611f91565b82525050565b61016082016000820151612963600085018261293d565b506020820151612976602085018261293d565b506040820151612989604085018261293d565b50606082015161299c606085018261293d565b5060808201516129af60808501826125cb565b5060a08201516129c260a08501826125cb565b5060c08201516129d560c08501826125cb565b5060e08201516129e860e08501826125cb565b506101008201516129fd6101008501826125da565b50505050565b600061016082019050612a19600083018461294c565b92915050565b600060208284031215612a3557612a34611ef1565b5b6000612a4384828501611fe8565b91505092915050565b612a5581612210565b82525050565b61012082016000820151612a7260008501826125cb565b506020820151612a8560208501826125cb565b506040820151612a9860408501826125cb565b506060820151612aab60608501826125cb565b506080820151612abe60808501826125cb565b5060a0820151612ad160a08501826125cb565b5060c0820151612ae460c0850182612a4c565b5060e0820151612af760e0850182612a4c565b50610100820151612b0c610100850182612a4c565b50505050565b600061012082019050612b286000830184612a5b565b92915050565b7f4e487b7100000000000000000000000000000000000000000000000000000000600052601160045260246000fd5b6000612b6882611fc7565b9150612b7383611fc7565b9250817fffffffffffffffffffffffffffffffffffffffffffffffffffffffffffffffff0483118215151615612bac57612bab612b2e565b5b828202905092915050565b600081905092915050565b7f3c616e696d617465206174747269627574654e616d653d2272222076616c756560008201527f733d220000000000000000000000000000000000000000000000000000000000602082015250565b6000612c1e602383612bb7565b9150612c2982612bc2565b602382019050919050565b6000612c3f8261216f565b612c498185612bb7565b9350612c5981856020860161218b565b80840191505092915050565b7f3b00000000000000000000000000000000000000000000000000000000000000815250565b7f222063616c634d6f64653d226c696e65617222206475723d2200000000000000815250565b7f732220726570656174436f756e743d22696e646566696e697465222f3e000000815250565b6000612ce282612c11565b9150612cee8288612c34565b9150612cf982612c65565b600182019150612d098287612c34565b9150612d1482612c65565b600182019150612d248286612c34565b9150612d2f82612c65565b600182019150612d3f8285612c34565b9150612d4a82612c8b565b601982019150612d5a8284612c34565b9150612d6582612cb1565b601d820191508190509695505050505050565b7f3c616e696d617465206174747269627574654e616d653d226379222076616c7560008201527f65733d2200000000000000000000000000000000000000000000000000000000602082015250565b6000612dd4602483612bb7565b9150612ddf82612d78565b602482019050919050565b6000612df68289612c34565b9150612e0182612dc7565b9150612e0d8288612c34565b9150612e1882612c65565b600182019150612e288287612c34565b9150612e3382612c65565b600182019150612e438286612c34565b9150612e4e82612c65565b600182019150612e5e8285612c34565b9150612e6982612c8b565b601982019150612e798284612c34565b9150612e8482612cb1565b601d82019150819050979650505050505050565b7f3c616e696d617465206174747269627574654e616d653d226378222076616c7560008201527f65733d2200000000000000000000000000000000000000000000000000000000602082015250565b6000612ef4602483612bb7565b9150612eff82612e98565b602482019050919050565b6000612f168289612c34565b9150612f2182612ee7565b9150612f2d8288612c34565b9150612f3882612c65565b600182019150612f488287612c34565b9150612f5382612c65565b600182019150612f638286612c34565b9150612f6e82612c65565b600182019150612f7e8285612c34565b9150612f8982612c8b565b601982019150612f998284612c34565b9150612fa482612cb1565b601d82019150819050979650505050505050565b6000612fc382611f91565b9150612fce83611f91565b925082820190508281121560008312168382126000841215161715612ff657612ff5612b2e565b5b92915050565b7f4e487b7100000000000000000000000000000000000000000000000000000000600052601260045260246000fd5b600061303682611f91565b915061304183611f91565b92508261305157613050612ffc565b5b600160000383147f80000000000000000000000000000000000000000000000000000000000000008314161561308a57613089612b2e565b5b828205905092915050565b60006130a082611fc7565b91506130ab83611fc7565b92508282019050808211156130c3576130c2612b2e565b5b92915050565b60006130d482611fc7565b91506130df83611fc7565b9250826130ef576130ee612ffc565b5b828204905092915050565b61310381611fc7565b82525050565b60608201600082015161311f60008501826130fa565b50602082015161313260208501826130fa565b50604082015161314560408501826130fa565b50505050565b60006060820190506131606000830184613109565b92915050565b600080fd5b600067ffffffffffffffff82111561318657613185611f11565b5b61318f82611f00565b9050602081019050919050565b60006131af6131aa8461316b565b611f71565b9050828152602081018484840111156131cb576131ca613166565b5b6131d684828561218b565b509392505050565b600082601f8301126131f3576131f2612328565b5b815161320384826020860161319c565b91505092915050565b60006020828403121561322257613221611ef1565b5b600082015167ffffffffffffffff8111156132405761323f611ef6565b5b61324c848285016131de565b91505092915050565b7f3c636972636c652063783d220000000000000000000000000000000000000000815250565b7f222063793d220000000000000000000000000000000000000000000000000000815250565b7f2220723d22000000000000000000000000000000000000000000000000000000815250565b7f222066696c6c3d22000000000000000000000000000000000000000000000000815250565b7f223e000000000000000000000000000000000000000000000000000000000000815250565b7f3c2f636972636c653e0000000000000000000000000000000000000000000000815250565b600061334482613255565b600c820191506133548288612c34565b915061335f8261327b565b60068201915061336f8287612c34565b915061337a826132a1565b60058201915061338a8286612c34565b9150613395826132c7565b6008820191506133a58285612c34565b91506133b0826132ed565b6002820191506133c08284612c34565b91506133cb82613313565b6009820191508190509695505050505050565b60006133ea8285612c34565b91506133f68284612c34565b91508190509392505050565b600061340d82611fc7565b91507fffffffffffffffffffffffffffffffffffffffffffffffffffffffffffffffff820361343f5761343e612b2e565b5b600182019050919050565b7f3c75736520687265663d222374696c6522207472616e73666f726d3d22726f7460008201527f6174652800000000000000000000000000000000000000000000000000000000602082015250565b60006134a6602483612bb7565b91506134b18261344a565b602482019050919050565b7f2c00000000000000000000000000000000000000000000000000000000000000815250565b7f2922202f3e000000000000000000000000000000000000000000000000000000815250565b60006135148287612c34565b915061351f82613499565b915061352b8286612c34565b9150613536826134bc565b6001820191506135468285612c34565b9150613551826134bc565b6001820191506135618284612c34565b915061356c826134e2565b60058201915081905095945050505050565b7f3c636c6970506174682069643d22636c6970223e000000000000000000000000815250565b7f3c7061746820643d224d302c304c000000000000000000000000000000000000815250565b7f4c00000000000000000000000000000000000000000000000000000000000000815250565b7f2c30410000000000000000000000000000000000000000000000000000000000815250565b7f2c302c302c302c302c305a22202f3e0000000000000000000000000000000000815250565b7f3c2f636c6970506174683e000000000000000000000000000000000000000000815250565b600061366d8261357e565b60148201915061367c826135a4565b600e8201915061368c8288612c34565b9150613697826134bc565b6001820191506136a78287612c34565b91506136b2826135ca565b6001820191506136c28286612c34565b91506136cd826135f0565b6003820191506136dd8285612c34565b91506136e8826134bc565b6001820191506136f88284612c34565b915061370382613616565b600f820191506137128261363c565b600b820191508190509695505050505050565b7f3c73766720786d6c6e733d22687474703a2f2f7777772e77332e6f72672f323060008201527f30302f737667222076696577426f783d22302030200000000000000000000000602082015250565b6000613781603583612bb7565b915061378c82613725565b603582019050919050565b7f2000000000000000000000000000000000000000000000000000000000000000815250565b7f222077696474683d220000000000000000000000000000000000000000000000815250565b7f22206865696768743d2200000000000000000000000000000000000000000000815250565b7f223e3c646566733e000000000000000000000000000000000000000000000000815250565b7f3c672069643d2274696c652220636c69702d706174683d2275726c2823636c6960008201527f7029223e00000000000000000000000000000000000000000000000000000000602082015250565b600061388b602483612bb7565b91506138968261382f565b602482019050919050565b7f3c7265637420783d22302220793d222d00000000000000000000000000000000815250565b60006138d282613774565b91506138de828c612c34565b91506138e982613797565b6001820191506138f9828b612c34565b9150613904826137bd565b600982019150613914828a612c34565b915061391f826137e3565b600a8201915061392f8289612c34565b915061393a82613809565b60088201915061394a8288612c34565b91506139568287612c34565b91506139618261387e565b915061396c826138a1565b60108201915061397c8286612c34565b9150613987826137bd565b6009820191506139978285612c34565b91506139a2826137e3565b600a820191506139b28284612c34565b91506139bd826132c7565b6008820191508190509a9950505050505050505050565b7f223e3c2f726563743e0000000000000000000000000000000000000000000000815250565b7f3c2f673e00000000000000000000000000000000000000000000000000000000815250565b6000613a2c8287612c34565b9150613a388286612c34565b9150613a43826139d4565b600982019150613a538285612c34565b9150613a5f8284612c34565b9150613a6a826139fa565b60048201915081905095945050505050565b60008160011c9050919050565b6000808291508390505b6001851115613ad357808604811115613aaf57613aae612b2e565b5b6001851615613abe5780820291505b8081029050613acc85613a7c565b9450613a93565b94509492505050565b600082613aec5760019050613ba8565b81613afa5760009050613ba8565b8160018114613b105760028114613b1a57613b49565b6001915050613ba8565b60ff841115613b2c57613b2b612b2e565b5b8360020a915084821115613b4357613b42612b2e565b5b50613ba8565b5060208310610133831016604e8410600b8410161715613b7e5782820a905083811115613b7957613b78612b2e565b5b613ba8565b613b8b8484846001613a89565b92509050818404811115613ba257613ba1612b2e565b5b81810290505b9392505050565b6000613bba82611fc7565b9150613bc583611fc7565b9250613bf27fffffffffffffffffffffffffffffffffffffffffffffffffffffffffffffffff8484613adc565b905092915050565b6000613c0582611fc7565b9150613c1083611fc7565b9250828203905081811115613c2857613c27612b2e565b5b92915050565b7f3c2f646566733e00000000000000000000000000000000000000000000000000815250565b7f3c726563742077696474683d2200000000000000000000000000000000000000815250565b7f3c672069643d226b616c6569646f73636f706554696c6522207472616e73666f60008201527f726d3d227472616e736c61746528000000000000000000000000000000000000602082015250565b6000613cd6602e83612bb7565b9150613ce182613c7a565b602e82019050919050565b6000613cf88288612c34565b9150613d0382613c2e565b600782019150613d1282613c54565b600d82019150613d228287612c34565b9150613d2d826137e3565b600a82019150613d3d8286612c34565b9150613d48826132c7565b600882019150613d588285612c34565b9150613d63826139d4565b600982019150613d7282613cc9565b9150613d7e8284612c34565b91508190509695505050505050565b6000613d9882613255565b600c82019150613da88285612c34565b9150613db38261327b565b600682019150613dc38284612c34565b9150613dce826132a1565b6005820191508190509392505050565b7f222066696c6c3d226e6f6e652200000000000000000000000000000000000000815250565b7f2f3e000000000000000000000000000000000000000000000000000000000000815250565b6000613e368286612c34565b9150613e428285612c34565b9150613e4d82613dde565b600d82019150613e5d8284612c34565b9150613e6882613e04565b600282019150819050949350505050565b7f29223e0000000000000000000000000000000000000000000000000000000000815250565b7f22202f3e00000000000000000000000000000000000000000000000000000000815250565b6000613ed18289612c34565b9150613edc826134bc565b600182019150613eec8288612c34565b9150613ef782613e79565b600382019150613f078287612c34565b9150613f138286612c34565b9150613f1e826132c7565b600882019150613f2e8285612c34565b9150613f3982613e9f565b600482019150613f498284612c34565b9150819050979650505050505050565b7f3c2f7376673e0000000000000000000000000000000000000000000000000000815250565b6000613f8b8285612c34565b9150613f978284612c34565b9150613fa2826139fa565b600482019150613fb182613f59565b6006820191508190509392505050565b7f7265637477696474680000000000000000000000000000000000000000000000815250565b6000613ff282613fc1565b6009820191506140028284612c34565b915081905092915050565b7f7265637468656967687400000000000000000000000000000000000000000000815250565b600061403e8261400d565b600a8201915061404e8284612c34565b915081905092915050565b7f726563746475726174696f6e0000000000000000000000000000000000000000815250565b600061408a82614059565b600c8201915061409a8284612c34565b915081905092915050565b60006140b082611fc7565b91506140bb83611fc7565b9250826140cb576140ca612ffc565b5b828206905092915050565b7f4e487b7100000000000000000000000000000000000000000000000000000000600052603260045260246000fd5b61410e81611fc7565b82525050565b60006040820190506141296000830185614105565b6141366020830184614105565b9392505050565b60008151905061414c81611fd1565b92915050565b60006060828403121561416857614167611efb565b5b6141726060611f71565b905060006141828482850161413d565b60008301525060206141968482850161413d565b60208301525060406141aa8482850161413d565b60408301525092915050565b60006141c96141c48461232d565b611f71565b905080838252602082019050606084028301858111156141ec576141eb612359565b5b835b8181101561421557806142018882614152565b8452602084019350506060810190506141ee565b5050509392505050565b600082601f83011261423457614233612328565b5b81516142448482602086016141b6565b91505092915050565b60006020828403121561426357614262611ef1565b5b600082015167ffffffffffffffff81111561428157614280611ef6565b5b61428d8482850161421f565b91505092915050565b7f3c616e696d6174655472616e73666f726d206174747269627574654e616d653d60008201527f227472616e73666f726d2220747970653d22726f74617465222066726f6d3d2260208201527f302030202d000000000000000000000000000000000000000000000000000000604082015250565b6000614318604583612bb7565b915061432382614296565b604582019050919050565b7f2220746f3d222d3336302030202d000000000000000000000000000000000000815250565b7f2220626567696e3d22307322206475723d220000000000000000000000000000815250565b7f732220726570656174436f756e743d22696e646566696e69746522202f3e0000815250565b60006143ab8261430b565b91506143b78286612c34565b91506143c28261432e565b600e820191506143d28285612c34565b91506143dd82614354565b6012820191506143ed8284612c34565b91506143f88261437a565b601e82019150819050949350505050565b7f3c726563742072783d2233222072793d22332220783d22302220793d222d0000815250565b7f3c2f726563743e00000000000000000000000000000000000000000000000000815250565b600061446082614409565b601e820191506144708288612c34565b915061447b826137bd565b60098201915061448b8287612c34565b9150614496826137e3565b600a820191506144a68286612c34565b91506144b1826132c7565b6008820191506144c18285612c34565b91506144cc826132ed565b6002820191506144dc8284612c34565b91506144e78261442f565b6007820191508190509695505050505050565b7f7931000000000000000000000000000000000000000000000000000000000000815250565b600061452b826144fa565b60028201915061453b8284612c34565b915081905092915050565b7f7932000000000000000000000000000000000000000000000000000000000000815250565b600061457782614546565b6002820191506145878284612c34565b915081905092915050565b7f616c7465726e6174696e67436c61737300000000000000000000000000000000815250565b60006145c382614592565b6010820191506145d38284612c34565b915081905092915050565b60006145e982611f91565b91506145f483611f91565b9250827f7fffffffffffffffffffffffffffffffffffffffffffffffffffffffffffffff048211600084136000841316161561463357614632612b2e565b5b817f800000000000000000000000000000000000000000000000000000000000000005831260008412600084131616156146705761466f612b2e565b5b827f800000000000000000000000000000000000000000000000000000000000000005821260008413600084121616156146ad576146ac612b2e565b5b827f7fffffffffffffffffffffffffffffffffffffffffffffffffffffffffffffff05821260008412600084121616156146ea576146e9612b2e565b5b828202905092915050565b600061470082611f91565b915061470b83611f91565b925082820390508181126000841216828213600085121516171561473257614731612b2e565b5b92915050565b7f6475726174696f6e000000000000000000000000000000000000000000000000815250565b600061476982614738565b6008820191506147798284612c34565b915081905092915050565b600060ff82169050919050565b600061479c82614784565b91506147a783614784565b9250828201905060ff8111156147c0576147bf612b2e565b5b92915050565b60006147d182611f91565b91507f8000000000000000000000000000000000000000000000000000000000000000820361480357614802612b2e565b5b816000039050919050565b7f2d00000000000000000000000000000000000000000000000000000000000000815250565b600061483f8261480e565b60018201915061484f8284612c34565b915081905092915050565b7f2e00000000000000000000000000000000000000000000000000000000000000815250565b600061488c8285612c34565b91506148978261485a565b6001820191506148a78284612c34565b91508190509392505050565b7f3c6c696e6561724772616469656e742069643d226772616469656e74223e0000815250565b7f3c73746f70206f66667365743d223025222073746f702d636f6c6f723d220000815250565b7f222f3e0000000000000000000000000000000000000000000000000000000000815250565b7f3c73746f70206f66667365743d2231303025222073746f702d636f6c6f723d22815250565b7f3c2f6c696e6561724772616469656e743e000000000000000000000000000000815250565b600061497c826148b3565b601e8201915061498b826148d9565b601e8201915061499b8285612c34565b91506149a6826148ff565b6003820191506149b582614925565b6020820191506149c58284612c34565b91506149d0826148ff565b6003820191506149df8261494b565b6011820191508190509392505050565b60006149fb8284612c34565b91508190509291505056fe0000000000c90f8801921d20025b26d703242abf03ed26e604b6195d057f00350647d97c0710a34507d95b9e08a2009a096a90490a3308bc0afb68050bc3ac350c8bd35e0d53db920e1bc2e40ee387660fab272b1072a0481139f0cf120116d512c8106e138edbb1145576b1151bdf8515e2144416a81305176dd9de183366e818f8b83c19bdcbf31a82a0251b4732ef1c0b826a1ccf8cb31d934fe51e56ca1e1f19f97b1fdcdc1b209f701c2161b39f2223a4c522e541af23a6887e2467775725280c5d25e845b626a8218527679df42826b92828e5714a29a3c4852a61b1012b1f34eb2bdc4e6f2c98fbba2d553afb2e110a622ecc681e2f8752623041c76030fbc54d31b54a5d326e54c73326e2c233def2873496824f354d905636041ad936ba2013376f9e46382493b038d8fe93398cdd323a402dd13af2eeb73ba51e293c56ba703d07c1d53db832a53e680b2c3f1749b73fc5ec974073f21d4121589a41ce1e64427a41d04325c13543d09aec447acd50452456bc45cd358f46756827471cece647c3c22e4869e664490f57ee49b415334a581c9d4afb6c974b9e038f4c3fdff34ce100344d8162c34e2106174ebfe8a44f5e08e24ffb654c5097fc5e5133cc9451ced46e5269126e53028517539b2aef5433027d54ca0a4a556040e255f5a4d2568a34a9571deef957b0d2555842dd5458d40e8c5964649759f3de125a8279995b1035ce5b9d11535c290acc5cb420df5d3e52365dc79d7b5e50015d5ed77c895f5e0db25fe3b38d60686cce60ec382f616f146b61f1003e6271fa6862f201ac637114cc63ef328f646c59bf64e889256563bf9165ddfbd266573cbb66cf811f6746c7d767bd0fbc683257aa68a69e806919e31f698c246b69fd614a6a6d98a36adcc9646b4af2786bb812d06c24295f6c8f351b6cf934fb6d6227f96dca0d146e30e3496e96a99c6efb5f116f5f02b16fc1938470231099708378fe70e2cbc571410804719e2cd171fa394872552c8472af05a67307c3cf735f662573b5ebd0740b53fa745f9dd074b2c8837504d3447555bd4b75a585ce75f42c0a7641af3c768e0ea576d9498877235f2c776c4eda77b417df77fab988784033287884841378c7aba17909a92c794a7c11798a23b079c89f6d7a05eeac7a4210d87a7d055a7ab6cba37aef63237b26cb4e7b5d039d7b920b887bc5e28f7bf8882f7c29fbed7c5a3d4f7c894bdd7cb727237ce3ceb17d0f42177d3980eb7d628ac57d8a5f3f7db0fdf77dd6668e7dfa98a77e1d93e97e3f57fe7e5fe4927e7f39567e9d55fb7eba3a387ed5e5c57ef0585f7f0991c37f2191b37f3857f57f4de4507f62368e7f754e7f7f872bf27f97cebc7fa736b37fb563b27fc255957fce0c3d7fd8878d7fe1c76a7fe9cbbf7ff094777ff621817ffa72d07ffd88597fff62157fffffff207374726f6b653d222345424139343722207374726f6b652d77696474683d223422a2646970667358221220db236564b781b2c68f72eb5e422d5bea4318167240040576c1c49492255a71ab64736f6c63430008100033",
  "libraries": {
    "utils": "0x8C7EA5ce359a9FeB86b7D74Cc1c99D8718A4830f",
    "Trigonometry": "0x9F9eE8D726e50C58a0034f54C3985a1F7fd73563"
  },
  "devdoc": {
    "kind": "dev",
    "methods": {},
    "version": 1
  },
  "userdoc": {
    "kind": "user",
    "methods": {},
    "version": 1
  },
  "storageLayout": {
    "storage": [],
    "types": null
  }
}